{
  "contractName": "Authorizable",
  "abi": [
    {
      "anonymous": false,
      "inputs": [
        {
          "indexed": true,
          "internalType": "address",
          "name": "previousOwner",
          "type": "address"
        },
        {
          "indexed": true,
          "internalType": "address",
          "name": "newOwner",
          "type": "address"
        }
      ],
      "name": "OwnershipTransferred",
      "type": "event"
    },
    {
      "inputs": [
        {
          "internalType": "address",
          "name": "",
          "type": "address"
        }
      ],
      "name": "authorized",
      "outputs": [
        {
          "internalType": "bool",
          "name": "",
          "type": "bool"
        }
      ],
      "stateMutability": "view",
      "type": "function"
    },
    {
      "inputs": [],
      "name": "owner",
      "outputs": [
        {
          "internalType": "address",
          "name": "",
          "type": "address"
        }
      ],
      "stateMutability": "view",
      "type": "function"
    },
    {
      "inputs": [],
      "name": "renounceOwnership",
      "outputs": [],
      "stateMutability": "nonpayable",
      "type": "function"
    },
    {
      "inputs": [
        {
          "internalType": "address",
          "name": "newOwner",
          "type": "address"
        }
      ],
      "name": "transferOwnership",
      "outputs": [],
      "stateMutability": "nonpayable",
      "type": "function"
    },
    {
      "inputs": [
        {
          "internalType": "address",
          "name": "_toAdd",
          "type": "address"
        }
      ],
      "name": "addAuthorized",
      "outputs": [],
      "stateMutability": "nonpayable",
      "type": "function"
    },
    {
      "inputs": [
        {
          "internalType": "address",
          "name": "_toRemove",
          "type": "address"
        }
      ],
      "name": "removeAuthorized",
      "outputs": [],
      "stateMutability": "nonpayable",
      "type": "function"
    }
  ],
  "bytecode": "0x608060405234801561001057600080fd5b5061001a3361001f565b61006f565b600080546001600160a01b038381166001600160a01b0319831681178455604051919092169283917f8be0079c531659141344cd1fd0a4f28419497f9722a3daafe3b4186f6b6457e09190a35050565b61039b8061007e6000396000f3fe608060405234801561001057600080fd5b50600436106100625760003560e01c8063485d7d9414610067578063715018a61461007c5780638da5cb5b14610084578063b9181611146100a9578063cf1c316a146100dc578063f2fde38b146100ef575b600080fd5b61007a610075366004610300565b610102565b005b61007a610170565b61008c6101ab565b6040516001600160a01b0390911681526020015b60405180910390f35b6100cc6100b7366004610300565b60016020526000908152604090205460ff1681565b60405190151581526020016100a0565b61007a6100ea366004610300565b6101ba565b61007a6100fd366004610300565b610210565b3361010b6101ab565b6001600160a01b03161461013a5760405162461bcd60e51b815260040161013190610330565b60405180910390fd5b336001600160a01b0382160361014f57600080fd5b6001600160a01b03166000908152600160205260409020805460ff19169055565b336101796101ab565b6001600160a01b03161461019f5760405162461bcd60e51b815260040161013190610330565b6101a960006102b0565b565b6000546001600160a01b031690565b336101c36101ab565b6001600160a01b0316146101e95760405162461bcd60e51b815260040161013190610330565b6001600160a01b03166000908152600160208190526040909120805460ff19169091179055565b336102196101ab565b6001600160a01b03161461023f5760405162461bcd60e51b815260040161013190610330565b6001600160a01b0381166102a45760405162461bcd60e51b815260206004820152602660248201527f4f776e61626c653a206e6577206f776e657220697320746865207a65726f206160448201526564647265737360d01b6064820152608401610131565b6102ad816102b0565b50565b600080546001600160a01b038381166001600160a01b0319831681178455604051919092169283917f8be0079c531659141344cd1fd0a4f28419497f9722a3daafe3b4186f6b6457e09190a35050565b60006020828403121561031257600080fd5b81356001600160a01b038116811461032957600080fd5b9392505050565b6020808252818101527f4f776e61626c653a2063616c6c6572206973206e6f7420746865206f776e657260408201526060019056fea2646970667358221220a14779aff2febb60d5b370086730b66048b7222fb2c57a754286f7929d82a62064736f6c634300080d0033",
  "immutableReferences": {},
  "source": "// SPDX-License-Identifier: MIT\r\n\r\npragma solidity 0.8.13;\r\n\r\nimport \"@openzeppelin/contracts/access/Ownable.sol\";\r\n\r\ncontract Authorizable is Ownable {\r\n    mapping(address => bool) public authorized;\r\n\r\n    modifier onlyAuthorized() {\r\n        require(\r\n            authorized[msg.sender] || owner() == msg.sender,\r\n            \"caller is not authorized\"\r\n        );\r\n        _;\r\n    }\r\n\r\n    function addAuthorized(address _toAdd) public onlyOwner {\r\n        authorized[_toAdd] = true;\r\n    }\r\n\r\n    function removeAuthorized(address _toRemove) public onlyOwner {\r\n        require(_toRemove != msg.sender);\r\n        authorized[_toRemove] = false;\r\n    }\r\n}\r\n",
  "sourcePath": "D:\\Projects\\EvoVerses\\contracts\\contracts\\Authorizable.sol",
  "compiler": {
    "name": "solc",
    "version": "0.8.13+commit.abaa5c0e.Emscripten.clang"
  },
  "schemaVersion": "3.4.6",
  "updatedAt": "2022-04-05T20:33:28.894Z",
  "devdoc": {
    "kind": "dev",
    "methods": {
      "owner()": {
        "details": "Returns the address of the current owner."
      },
      "renounceOwnership()": {
        "details": "Leaves the contract without owner. It will not be possible to call `onlyOwner` functions anymore. Can only be called by the current owner. NOTE: Renouncing ownership will leave the contract without an owner, thereby removing any functionality that is only available to the owner."
      },
      "transferOwnership(address)": {
        "details": "Transfers ownership of the contract to a new account (`newOwner`). Can only be called by the current owner."
      }
    },
    "version": 1
  },
  "userdoc": {
    "kind": "user",
    "methods": {},
    "version": 1
  }
}