{
  "contractName": "Box",
  "abi": [
    {
      "anonymous": false,
      "inputs": [
        {
          "indexed": true,
          "internalType": "address",
          "name": "previousOwner",
          "type": "address"
        },
        {
          "indexed": true,
          "internalType": "address",
          "name": "newOwner",
          "type": "address"
        }
      ],
      "name": "OwnershipTransferred",
      "type": "event"
    },
    {
      "anonymous": false,
      "inputs": [
        {
          "indexed": false,
          "internalType": "uint256",
          "name": "value",
          "type": "uint256"
        }
      ],
      "name": "ValueChanged",
      "type": "event"
    },
    {
      "inputs": [],
      "name": "owner",
      "outputs": [
        {
          "internalType": "address",
          "name": "",
          "type": "address"
        }
      ],
      "stateMutability": "view",
      "type": "function"
    },
    {
      "inputs": [],
      "name": "renounceOwnership",
      "outputs": [],
      "stateMutability": "nonpayable",
      "type": "function"
    },
    {
      "inputs": [
        {
          "internalType": "address",
          "name": "newOwner",
          "type": "address"
        }
      ],
      "name": "transferOwnership",
      "outputs": [],
      "stateMutability": "nonpayable",
      "type": "function"
    },
    {
      "inputs": [
        {
          "internalType": "uint256",
          "name": "value",
          "type": "uint256"
        }
      ],
      "name": "initialize",
      "outputs": [],
      "stateMutability": "nonpayable",
      "type": "function"
    },
    {
      "inputs": [
        {
          "internalType": "uint256",
          "name": "value",
          "type": "uint256"
        }
      ],
      "name": "store",
      "outputs": [],
      "stateMutability": "nonpayable",
      "type": "function"
    },
    {
      "inputs": [],
      "name": "retrieve",
      "outputs": [
        {
          "internalType": "uint256",
          "name": "",
          "type": "uint256"
        }
      ],
      "stateMutability": "view",
      "type": "function"
    }
  ],
  "bytecode": "0x608060405234801561001057600080fd5b506104af806100206000396000f3fe608060405234801561001057600080fd5b50600436106100625760003560e01c80632e64cec1146100675780636057361d1461007d578063715018a6146100925780638da5cb5b1461009a578063f2fde38b146100ba578063fe4b84df146100cd575b600080fd5b6065546040519081526020015b60405180910390f35b61009061008b3660046103b0565b6100e0565b005b610090610153565b6100a261018e565b6040516001600160a01b039091168152602001610074565b6100906100c83660046103c9565b61019d565b6100906100db3660046103b0565b61023d565b336100e961018e565b6001600160a01b0316146101185760405162461bcd60e51b815260040161010f906103f9565b60405180910390fd5b60658190556040518181527f93fe6d397c74fdf1402a8b72e47b68512f0510d7b98a4bc4cbdf6ac7108b3c599060200160405180910390a150565b3361015c61018e565b6001600160a01b0316146101825760405162461bcd60e51b815260040161010f906103f9565b61018c6000610304565b565b6033546001600160a01b031690565b336101a661018e565b6001600160a01b0316146101cc5760405162461bcd60e51b815260040161010f906103f9565b6001600160a01b0381166102315760405162461bcd60e51b815260206004820152602660248201527f4f776e61626c653a206e6577206f776e657220697320746865207a65726f206160448201526564647265737360d01b606482015260840161010f565b61023a81610304565b50565b600054610100900460ff166102585760005460ff161561025c565b303b155b6102bf5760405162461bcd60e51b815260206004820152602e60248201527f496e697469616c697a61626c653a20636f6e747261637420697320616c72656160448201526d191e481a5b9a5d1a585b1a5e995960921b606482015260840161010f565b600054610100900460ff161580156102e1576000805461ffff19166101011790555b60658290556102ee610356565b8015610300576000805461ff00191690555b5050565b603380546001600160a01b038381166001600160a01b0319831681179093556040519116919082907f8be0079c531659141344cd1fd0a4f28419497f9722a3daafe3b4186f6b6457e090600090a35050565b600054610100900460ff1661037d5760405162461bcd60e51b815260040161010f9061042e565b61018c600054610100900460ff166103a75760405162461bcd60e51b815260040161010f9061042e565b61018c33610304565b6000602082840312156103c257600080fd5b5035919050565b6000602082840312156103db57600080fd5b81356001600160a01b03811681146103f257600080fd5b9392505050565b6020808252818101527f4f776e61626c653a2063616c6c6572206973206e6f7420746865206f776e6572604082015260600190565b6020808252602b908201527f496e697469616c697a61626c653a20636f6e7472616374206973206e6f74206960408201526a6e697469616c697a696e6760a81b60608201526080019056fea2646970667358221220477485b6949a5dd46ebb3c6af68e2883bc9f471c19a6c1f113069233964e70b264736f6c634300080d0033",
  "immutableReferences": {},
  "source": "// contracts/Box.sol\r\n// SPDX-License-Identifier: MIT\r\npragma solidity ^0.8.13;\r\n\r\n// Import Ownable from the OpenZeppelin Contracts library\r\nimport \"@openzeppelin/contracts-upgradeable/access/OwnableUpgradeable.sol\";\r\n\r\ncontract Box is Initializable, OwnableUpgradeable {\r\n    uint256 private _value;\r\n\r\n    event ValueChanged(uint256 value);\r\n\r\n    function initialize(uint256 value) public initializer {\r\n        _value = value;\r\n        __Ownable_init();\r\n    }\r\n\r\n    function store(uint256 value) public onlyOwner {\r\n        _value = value;\r\n        emit ValueChanged(value);\r\n    }\r\n\r\n    function retrieve() public view returns (uint256) {\r\n        return _value;\r\n    }\r\n}\r\n",
  "sourcePath": "D:\\Projects\\EvoVerses\\contracts\\contracts\\Box.sol",
  "compiler": {
    "name": "solc",
    "version": "0.8.13+commit.abaa5c0e.Emscripten.clang"
  },
  "schemaVersion": "3.4.6",
  "updatedAt": "2022-04-05T20:33:28.899Z",
  "devdoc": {
    "kind": "dev",
    "methods": {
      "owner()": {
        "details": "Returns the address of the current owner."
      },
      "renounceOwnership()": {
        "details": "Leaves the contract without owner. It will not be possible to call `onlyOwner` functions anymore. Can only be called by the current owner. NOTE: Renouncing ownership will leave the contract without an owner, thereby removing any functionality that is only available to the owner."
      },
      "transferOwnership(address)": {
        "details": "Transfers ownership of the contract to a new account (`newOwner`). Can only be called by the current owner."
      }
    },
    "version": 1
  },
  "userdoc": {
    "kind": "user",
    "methods": {},
    "version": 1
  }
}