{
  "contractName": "BoxV2",
  "abi": [
    {
      "anonymous": false,
      "inputs": [
        {
          "indexed": true,
          "internalType": "address",
          "name": "previousOwner",
          "type": "address"
        },
        {
          "indexed": true,
          "internalType": "address",
          "name": "newOwner",
          "type": "address"
        }
      ],
      "name": "OwnershipTransferred",
      "type": "event"
    },
    {
      "anonymous": false,
      "inputs": [
        {
          "indexed": false,
          "internalType": "uint256",
          "name": "value",
          "type": "uint256"
        }
      ],
      "name": "ValueChanged",
      "type": "event"
    },
    {
      "inputs": [],
      "name": "owner",
      "outputs": [
        {
          "internalType": "address",
          "name": "",
          "type": "address"
        }
      ],
      "stateMutability": "view",
      "type": "function"
    },
    {
      "inputs": [],
      "name": "renounceOwnership",
      "outputs": [],
      "stateMutability": "nonpayable",
      "type": "function"
    },
    {
      "inputs": [
        {
          "internalType": "address",
          "name": "newOwner",
          "type": "address"
        }
      ],
      "name": "transferOwnership",
      "outputs": [],
      "stateMutability": "nonpayable",
      "type": "function"
    },
    {
      "inputs": [
        {
          "internalType": "uint256",
          "name": "value",
          "type": "uint256"
        }
      ],
      "name": "initialize",
      "outputs": [],
      "stateMutability": "nonpayable",
      "type": "function"
    },
    {
      "inputs": [
        {
          "internalType": "uint256",
          "name": "value",
          "type": "uint256"
        }
      ],
      "name": "store",
      "outputs": [],
      "stateMutability": "nonpayable",
      "type": "function"
    },
    {
      "inputs": [],
      "name": "retrieve",
      "outputs": [
        {
          "internalType": "uint256",
          "name": "",
          "type": "uint256"
        }
      ],
      "stateMutability": "view",
      "type": "function"
    },
    {
      "inputs": [],
      "name": "increment",
      "outputs": [],
      "stateMutability": "nonpayable",
      "type": "function"
    }
  ],
  "bytecode": "0x608060405234801561001057600080fd5b5061052c806100206000396000f3fe608060405234801561001057600080fd5b506004361061006d5760003560e01c80632e64cec1146100725780636057361d14610088578063715018a61461009d5780638da5cb5b146100a5578063d09de08a146100c5578063f2fde38b146100cd578063fe4b84df146100e0575b600080fd5b6065546040519081526020015b60405180910390f35b61009b6100963660046103e7565b6100f3565b005b61009b610154565b6100ad61018f565b6040516001600160a01b03909116815260200161007f565b61009b61019e565b61009b6100db366004610400565b6101d4565b61009b6100ee3660046103e7565b610274565b336100fc61018f565b6001600160a01b03161461012b5760405162461bcd60e51b815260040161012290610430565b60405180910390fd5b60658190556040518181526000805160206104d78339815191529060200160405180910390a150565b3361015d61018f565b6001600160a01b0316146101835760405162461bcd60e51b815260040161012290610430565b61018d600061033b565b565b6033546001600160a01b031690565b6065546101ac906001610465565b60658190556040519081526000805160206104d78339815191529060200160405180910390a1565b336101dd61018f565b6001600160a01b0316146102035760405162461bcd60e51b815260040161012290610430565b6001600160a01b0381166102685760405162461bcd60e51b815260206004820152602660248201527f4f776e61626c653a206e6577206f776e657220697320746865207a65726f206160448201526564647265737360d01b6064820152608401610122565b6102718161033b565b50565b600054610100900460ff1661028f5760005460ff1615610293565b303b155b6102f65760405162461bcd60e51b815260206004820152602e60248201527f496e697469616c697a61626c653a20636f6e747261637420697320616c72656160448201526d191e481a5b9a5d1a585b1a5e995960921b6064820152608401610122565b600054610100900460ff16158015610318576000805461ffff19166101011790555b606582905561032561038d565b8015610337576000805461ff00191690555b5050565b603380546001600160a01b038381166001600160a01b0319831681179093556040519116919082907f8be0079c531659141344cd1fd0a4f28419497f9722a3daafe3b4186f6b6457e090600090a35050565b600054610100900460ff166103b45760405162461bcd60e51b81526004016101229061048b565b61018d600054610100900460ff166103de5760405162461bcd60e51b81526004016101229061048b565b61018d3361033b565b6000602082840312156103f957600080fd5b5035919050565b60006020828403121561041257600080fd5b81356001600160a01b038116811461042957600080fd5b9392505050565b6020808252818101527f4f776e61626c653a2063616c6c6572206973206e6f7420746865206f776e6572604082015260600190565b6000821982111561048657634e487b7160e01b600052601160045260246000fd5b500190565b6020808252602b908201527f496e697469616c697a61626c653a20636f6e7472616374206973206e6f74206960408201526a6e697469616c697a696e6760a81b60608201526080019056fe93fe6d397c74fdf1402a8b72e47b68512f0510d7b98a4bc4cbdf6ac7108b3c59a2646970667358221220839cb0010f8187ae8dad166ff16c3909ebb27dd50ee2cf09e47ce8a9aedc55af64736f6c634300080d0033",
  "immutableReferences": {},
  "source": "// contracts/Box.sol\r\n// SPDX-License-Identifier: MIT\r\npragma solidity ^0.8.13;\r\n\r\n// Import Ownable from the OpenZeppelin Contracts library\r\nimport \"@openzeppelin/contracts-upgradeable/access/OwnableUpgradeable.sol\";\r\n\r\ncontract BoxV2 is Initializable, OwnableUpgradeable {\r\n    uint256 private _value;\r\n\r\n    event ValueChanged(uint256 value);\r\n\r\n    function initialize(uint256 value) public initializer {\r\n        _value = value;\r\n        __Ownable_init();\r\n    }\r\n\r\n    function store(uint256 value) public onlyOwner {\r\n        _value = value;\r\n        emit ValueChanged(value);\r\n    }\r\n\r\n    function retrieve() public view returns (uint256) {\r\n        return _value;\r\n    }\r\n\r\n    function increment() public {\r\n        _value = _value + 1;\r\n        emit ValueChanged(_value);\r\n    }\r\n}\r\n",
  "sourcePath": "D:\\Projects\\EvoVerses\\contracts\\contracts\\BoxV2.sol",
  "compiler": {
    "name": "solc",
    "version": "0.8.13+commit.abaa5c0e.Emscripten.clang"
  },
  "schemaVersion": "3.4.6",
  "updatedAt": "2022-04-05T20:33:28.901Z",
  "devdoc": {
    "kind": "dev",
    "methods": {
      "owner()": {
        "details": "Returns the address of the current owner."
      },
      "renounceOwnership()": {
        "details": "Leaves the contract without owner. It will not be possible to call `onlyOwner` functions anymore. Can only be called by the current owner. NOTE: Renouncing ownership will leave the contract without an owner, thereby removing any functionality that is only available to the owner."
      },
      "transferOwnership(address)": {
        "details": "Transfers ownership of the contract to a new account (`newOwner`). Can only be called by the current owner."
      }
    },
    "version": 1
  },
  "userdoc": {
    "kind": "user",
    "methods": {},
    "version": 1
  }
}