{
  "contractName": "vEvoToken",
  "abi": [
    {
      "inputs": [],
      "stateMutability": "nonpayable",
      "type": "constructor"
    },
    {
      "anonymous": false,
      "inputs": [
        {
          "indexed": true,
          "internalType": "address",
          "name": "addr",
          "type": "address"
        },
        {
          "indexed": false,
          "internalType": "bool",
          "name": "value",
          "type": "bool"
        }
      ],
      "name": "AllowedTransfersListUpdated",
      "type": "event"
    },
    {
      "anonymous": false,
      "inputs": [
        {
          "indexed": true,
          "internalType": "address",
          "name": "owner",
          "type": "address"
        },
        {
          "indexed": true,
          "internalType": "address",
          "name": "spender",
          "type": "address"
        },
        {
          "indexed": false,
          "internalType": "uint256",
          "name": "value",
          "type": "uint256"
        }
      ],
      "name": "Approval",
      "type": "event"
    },
    {
      "anonymous": false,
      "inputs": [],
      "name": "DisabledMinting",
      "type": "event"
    },
    {
      "anonymous": false,
      "inputs": [],
      "name": "EnabledMinting",
      "type": "event"
    },
    {
      "anonymous": false,
      "inputs": [
        {
          "indexed": true,
          "internalType": "address",
          "name": "previousOwner",
          "type": "address"
        },
        {
          "indexed": true,
          "internalType": "address",
          "name": "newOwner",
          "type": "address"
        }
      ],
      "name": "OwnershipTransferred",
      "type": "event"
    },
    {
      "anonymous": false,
      "inputs": [
        {
          "indexed": true,
          "internalType": "address",
          "name": "receiver",
          "type": "address"
        },
        {
          "indexed": false,
          "internalType": "uint256",
          "name": "amount",
          "type": "uint256"
        }
      ],
      "name": "TokenMinted",
      "type": "event"
    },
    {
      "anonymous": false,
      "inputs": [
        {
          "indexed": true,
          "internalType": "address",
          "name": "from",
          "type": "address"
        },
        {
          "indexed": true,
          "internalType": "address",
          "name": "to",
          "type": "address"
        },
        {
          "indexed": false,
          "internalType": "uint256",
          "name": "value",
          "type": "uint256"
        }
      ],
      "name": "Transfer",
      "type": "event"
    },
    {
      "inputs": [
        {
          "internalType": "address",
          "name": "_toAdd",
          "type": "address"
        }
      ],
      "name": "addAuthorized",
      "outputs": [],
      "stateMutability": "nonpayable",
      "type": "function"
    },
    {
      "inputs": [
        {
          "internalType": "address",
          "name": "owner",
          "type": "address"
        },
        {
          "internalType": "address",
          "name": "spender",
          "type": "address"
        }
      ],
      "name": "allowance",
      "outputs": [
        {
          "internalType": "uint256",
          "name": "",
          "type": "uint256"
        }
      ],
      "stateMutability": "view",
      "type": "function",
      "constant": true
    },
    {
      "inputs": [
        {
          "internalType": "address",
          "name": "spender",
          "type": "address"
        },
        {
          "internalType": "uint256",
          "name": "amount",
          "type": "uint256"
        }
      ],
      "name": "approve",
      "outputs": [
        {
          "internalType": "bool",
          "name": "",
          "type": "bool"
        }
      ],
      "stateMutability": "nonpayable",
      "type": "function"
    },
    {
      "inputs": [
        {
          "internalType": "address",
          "name": "",
          "type": "address"
        }
      ],
      "name": "authorized",
      "outputs": [
        {
          "internalType": "bool",
          "name": "",
          "type": "bool"
        }
      ],
      "stateMutability": "view",
      "type": "function",
      "constant": true
    },
    {
      "inputs": [
        {
          "internalType": "address",
          "name": "account",
          "type": "address"
        }
      ],
      "name": "balanceOf",
      "outputs": [
        {
          "internalType": "uint256",
          "name": "",
          "type": "uint256"
        }
      ],
      "stateMutability": "view",
      "type": "function",
      "constant": true
    },
    {
      "inputs": [],
      "name": "decimals",
      "outputs": [
        {
          "internalType": "uint8",
          "name": "",
          "type": "uint8"
        }
      ],
      "stateMutability": "view",
      "type": "function",
      "constant": true
    },
    {
      "inputs": [
        {
          "internalType": "address",
          "name": "spender",
          "type": "address"
        },
        {
          "internalType": "uint256",
          "name": "subtractedValue",
          "type": "uint256"
        }
      ],
      "name": "decreaseAllowance",
      "outputs": [
        {
          "internalType": "bool",
          "name": "",
          "type": "bool"
        }
      ],
      "stateMutability": "nonpayable",
      "type": "function"
    },
    {
      "inputs": [
        {
          "internalType": "address",
          "name": "spender",
          "type": "address"
        },
        {
          "internalType": "uint256",
          "name": "addedValue",
          "type": "uint256"
        }
      ],
      "name": "increaseAllowance",
      "outputs": [
        {
          "internalType": "bool",
          "name": "",
          "type": "bool"
        }
      ],
      "stateMutability": "nonpayable",
      "type": "function"
    },
    {
      "inputs": [],
      "name": "mintingEnabled",
      "outputs": [
        {
          "internalType": "bool",
          "name": "",
          "type": "bool"
        }
      ],
      "stateMutability": "view",
      "type": "function",
      "constant": true
    },
    {
      "inputs": [],
      "name": "name",
      "outputs": [
        {
          "internalType": "string",
          "name": "",
          "type": "string"
        }
      ],
      "stateMutability": "view",
      "type": "function",
      "constant": true
    },
    {
      "inputs": [],
      "name": "owner",
      "outputs": [
        {
          "internalType": "address",
          "name": "",
          "type": "address"
        }
      ],
      "stateMutability": "view",
      "type": "function",
      "constant": true
    },
    {
      "inputs": [
        {
          "internalType": "address",
          "name": "_toRemove",
          "type": "address"
        }
      ],
      "name": "removeAuthorized",
      "outputs": [],
      "stateMutability": "nonpayable",
      "type": "function"
    },
    {
      "inputs": [],
      "name": "renounceOwnership",
      "outputs": [],
      "stateMutability": "nonpayable",
      "type": "function"
    },
    {
      "inputs": [],
      "name": "symbol",
      "outputs": [
        {
          "internalType": "string",
          "name": "",
          "type": "string"
        }
      ],
      "stateMutability": "view",
      "type": "function",
      "constant": true
    },
    {
      "inputs": [],
      "name": "totalSupply",
      "outputs": [
        {
          "internalType": "uint256",
          "name": "",
          "type": "uint256"
        }
      ],
      "stateMutability": "view",
      "type": "function",
      "constant": true
    },
    {
      "inputs": [
        {
          "internalType": "address",
          "name": "to",
          "type": "address"
        },
        {
          "internalType": "uint256",
          "name": "amount",
          "type": "uint256"
        }
      ],
      "name": "transfer",
      "outputs": [
        {
          "internalType": "bool",
          "name": "",
          "type": "bool"
        }
      ],
      "stateMutability": "nonpayable",
      "type": "function"
    },
    {
      "inputs": [
        {
          "internalType": "address",
          "name": "from",
          "type": "address"
        },
        {
          "internalType": "address",
          "name": "to",
          "type": "address"
        },
        {
          "internalType": "uint256",
          "name": "amount",
          "type": "uint256"
        }
      ],
      "name": "transferFrom",
      "outputs": [
        {
          "internalType": "bool",
          "name": "",
          "type": "bool"
        }
      ],
      "stateMutability": "nonpayable",
      "type": "function"
    },
    {
      "inputs": [
        {
          "internalType": "address",
          "name": "newOwner",
          "type": "address"
        }
      ],
      "name": "transferOwnership",
      "outputs": [],
      "stateMutability": "nonpayable",
      "type": "function"
    },
    {
      "inputs": [],
      "name": "enableMinting",
      "outputs": [],
      "stateMutability": "nonpayable",
      "type": "function"
    },
    {
      "inputs": [],
      "name": "disableMinting",
      "outputs": [],
      "stateMutability": "nonpayable",
      "type": "function"
    },
    {
      "inputs": [
        {
          "internalType": "address",
          "name": "addr",
          "type": "address"
        },
        {
          "internalType": "uint256",
          "name": "amount",
          "type": "uint256"
        }
      ],
      "name": "mintTokenFor",
      "outputs": [],
      "stateMutability": "nonpayable",
      "type": "function"
    },
    {
      "inputs": [
        {
          "internalType": "address",
          "name": "addr",
          "type": "address"
        }
      ],
      "name": "addToAllowedTransfers",
      "outputs": [],
      "stateMutability": "nonpayable",
      "type": "function"
    },
    {
      "inputs": [
        {
          "internalType": "address",
          "name": "addr",
          "type": "address"
        }
      ],
      "name": "removeFromAllowedTransfers",
      "outputs": [],
      "stateMutability": "nonpayable",
      "type": "function"
    },
    {
      "inputs": [
        {
          "internalType": "address",
          "name": "addrToTransferTo",
          "type": "address"
        }
      ],
      "name": "isAllowedToTransferTo",
      "outputs": [
        {
          "internalType": "bool",
          "name": "",
          "type": "bool"
        }
      ],
      "stateMutability": "view",
      "type": "function",
      "constant": true
    }
  ],
  "bytecode": "0x60806040523480156200001157600080fd5b506040805180820182526004808252637645564f60e01b60208084018281528551808701909652928552840152815191929162000051916003916200011d565b508051620000679060049060208401906200011d565b505050620000846200007e620000c760201b60201c565b620000cb565b600160078190556009805460ff191690911790556040517fe85ce7fde36808f4259c16359ff6f7001ef8adf7bc3839e1a24c9c0fbb3179d390600090a1620001ff565b3390565b600580546001600160a01b038381166001600160a01b0319831681179093556040519116919082907f8be0079c531659141344cd1fd0a4f28419497f9722a3daafe3b4186f6b6457e090600090a35050565b8280546200012b90620001c3565b90600052602060002090601f0160209004810192826200014f57600085556200019a565b82601f106200016a57805160ff19168380011785556200019a565b828001600101855582156200019a579182015b828111156200019a5782518255916020019190600101906200017d565b50620001a8929150620001ac565b5090565b5b80821115620001a85760008155600101620001ad565b600181811c90821680620001d857607f821691505b602082108103620001f957634e487b7160e01b600052602260045260246000fd5b50919050565b61124c806200020f6000396000f3fe608060405234801561001057600080fd5b50600436106101285760003560e01c806306fdde031461012d578063095ea7b31461014b57806317f975b21461016e57806318160ddd1461018357806323b872dd14610195578063313ce567146101a857806331c39c52146101b757806339509351146101ca578063485d7d94146101dd57806370a08231146101f0578063715018a6146102195780637e5cd5c1146102215780638da5cb5b1461022957806395d89b41146102495780639fd6db1214610251578063a457c2d71461025e578063a9059cbb14610271578063b51c64b214610284578063b918161114610297578063cf1c316a146102ba578063d8f4e540146102cd578063dd62ed3e146102e0578063e797ec1b146102f3578063f2fde38b146102fb575b600080fd5b61013561030e565b6040516101429190610fe3565b60405180910390f35b61015e610159366004611054565b6103a0565b6040519015158152602001610142565b61018161017c366004611054565b6103b8565b005b6002545b604051908152602001610142565b61015e6101a336600461107e565b61051a565b60405160128152602001610142565b6101816101c53660046110ba565b61053e565b61015e6101d8366004611054565b6105cb565b6101816101eb3660046110ba565b61060a565b6101876101fe3660046110ba565b6001600160a01b031660009081526020819052604090205490565b61018161066f565b6101816106aa565b61023161077e565b6040516001600160a01b039091168152602001610142565b61013561078d565b60095461015e9060ff1681565b61015e61026c366004611054565b61079c565b61015e61027f366004611054565b61082e565b6101816102923660046110ba565b61083c565b61015e6102a53660046110ba565b60066020526000908152604090205460ff1681565b6101816102c83660046110ba565b6108ca565b61015e6102db3660046110ba565b61091d565b6101876102ee3660046110dc565b61093b565b610181610966565b6101816103093660046110ba565b610a38565b60606003805461031d9061110f565b80601f01602080910402602001604051908101604052809291908181526020018280546103499061110f565b80156103965780601f1061036b57610100808354040283529160200191610396565b820191906000526020600020905b81548152906001019060200180831161037957829003601f168201915b5050505050905090565b6000336103ae818585610ad8565b5060019392505050565b3360009081526006602052604090205460ff16806103e55750336103da61077e565b6001600160a01b0316145b61040a5760405162461bcd60e51b815260040161040190611149565b60405180910390fd5b60026007540361045c5760405162461bcd60e51b815260206004820152601f60248201527f5265656e7472616e637947756172643a207265656e7472616e742063616c6c006044820152606401610401565b600260075560095460ff1615156001146104b25760405162461bcd60e51b81526020600482015260176024820152764d696e74696e67206973206e6f7420656e61626c65642160481b6044820152606401610401565b6104bb8261083c565b6104c58282610bfc565b6104ce8261053e565b816001600160a01b03167fb9144c96c86541f6fa89c9f2f02495cccf4b08cd6643e26d34ee00aa586558a88260405161050991815260200190565b60405180910390a250506001600755565b600033610528858285610cd5565b610533858585610d4f565b506001949350505050565b3360009081526006602052604090205460ff168061056b57503361056061077e565b6001600160a01b0316145b6105875760405162461bcd60e51b815260040161040190611149565b6001600160a01b0381166000818152600860209081526040808320805460ff19169055519182526000805160206111d783398151915291015b60405180910390a250565b3360008181526001602090815260408083206001600160a01b03871684529091528120549091906103ae908290869061060590879061117b565b610ad8565b3361061361077e565b6001600160a01b0316146106395760405162461bcd60e51b8152600401610401906111a1565b336001600160a01b0382160361064e57600080fd5b6001600160a01b03166000908152600660205260409020805460ff19169055565b3361067861077e565b6001600160a01b03161461069e5760405162461bcd60e51b8152600401610401906111a1565b6106a86000610f16565b565b3360009081526006602052604090205460ff16806106d75750336106cc61077e565b6001600160a01b0316145b6106f35760405162461bcd60e51b815260040161040190611149565b60095460ff1615156001146107495760405162461bcd60e51b815260206004820152601c60248201527b4d696e74696e6720697320616c72656164792064697361626c65642160201b6044820152606401610401565b6009805460ff191690556040517f25b2f61d02a979113154f291a13559471c5c2e10a1bce72535026fa81999f41690600090a1565b6005546001600160a01b031690565b60606004805461031d9061110f565b3360008181526001602090815260408083206001600160a01b0387168452909152812054909190838110156108215760405162461bcd60e51b815260206004820152602560248201527f45524332303a2064656372656173656420616c6c6f77616e63652062656c6f77604482015264207a65726f60d81b6064820152608401610401565b6105338286868403610ad8565b6000336103ae818585610d4f565b3360009081526006602052604090205460ff168061086957503361085e61077e565b6001600160a01b0316145b6108855760405162461bcd60e51b815260040161040190611149565b6001600160a01b038116600081815260086020908152604091829020805460ff1916600190811790915591519182526000805160206111d783398151915291016105c0565b336108d361077e565b6001600160a01b0316146108f95760405162461bcd60e51b8152600401610401906111a1565b6001600160a01b03166000908152600660205260409020805460ff19166001179055565b6001600160a01b031660009081526008602052604090205460ff1690565b6001600160a01b03918216600090815260016020908152604080832093909416825291909152205490565b3360009081526006602052604090205460ff168061099357503361098861077e565b6001600160a01b0316145b6109af5760405162461bcd60e51b815260040161040190611149565b60095460ff1615610a005760405162461bcd60e51b815260206004820152601b60248201527a4d696e74696e6720697320616c726561647920656e61626c65642160281b6044820152606401610401565b6009805460ff191660011790556040517fe85ce7fde36808f4259c16359ff6f7001ef8adf7bc3839e1a24c9c0fbb3179d390600090a1565b33610a4161077e565b6001600160a01b031614610a675760405162461bcd60e51b8152600401610401906111a1565b6001600160a01b038116610acc5760405162461bcd60e51b815260206004820152602660248201527f4f776e61626c653a206e6577206f776e657220697320746865207a65726f206160448201526564647265737360d01b6064820152608401610401565b610ad581610f16565b50565b6001600160a01b038316610b3a5760405162461bcd60e51b8152602060048201526024808201527f45524332303a20617070726f76652066726f6d20746865207a65726f206164646044820152637265737360e01b6064820152608401610401565b6001600160a01b038216610b9b5760405162461bcd60e51b815260206004820152602260248201527f45524332303a20617070726f766520746f20746865207a65726f206164647265604482015261737360f01b6064820152608401610401565b6001600160a01b0383811660008181526001602090815260408083209487168084529482529182902085905590518481527f8c5be1e5ebec7d5bd14f71427d1e84f3dd0314c0f7b2291e5b200ac8c7c3b925910160405180910390a3505050565b6001600160a01b038216610c525760405162461bcd60e51b815260206004820152601f60248201527f45524332303a206d696e7420746f20746865207a65726f2061646472657373006044820152606401610401565b610c5e60008383610f68565b8060026000828254610c70919061117b565b90915550506001600160a01b03821660009081526020819052604081208054839290610c9d90849061117b565b90915550506040518181526001600160a01b038316906000906000805160206111f78339815191529060200160405180910390a35050565b6000610ce1848461093b565b90506000198114610d495781811015610d3c5760405162461bcd60e51b815260206004820152601d60248201527f45524332303a20696e73756666696369656e7420616c6c6f77616e63650000006044820152606401610401565b610d498484848403610ad8565b50505050565b6001600160a01b038316610db35760405162461bcd60e51b815260206004820152602560248201527f45524332303a207472616e736665722066726f6d20746865207a65726f206164604482015264647265737360d81b6064820152608401610401565b6001600160a01b038216610e155760405162461bcd60e51b815260206004820152602360248201527f45524332303a207472616e7366657220746f20746865207a65726f206164647260448201526265737360e81b6064820152608401610401565b610e20838383610f68565b6001600160a01b03831660009081526020819052604090205481811015610e985760405162461bcd60e51b815260206004820152602660248201527f45524332303a207472616e7366657220616d6f756e7420657863656564732062604482015265616c616e636560d01b6064820152608401610401565b6001600160a01b03808516600090815260208190526040808220858503905591851681529081208054849290610ecf90849061117b565b92505081905550826001600160a01b0316846001600160a01b03166000805160206111f783398151915284604051610f0991815260200190565b60405180910390a3610d49565b600580546001600160a01b038381166001600160a01b0319831681179093556040519116919082907f8be0079c531659141344cd1fd0a4f28419497f9722a3daafe3b4186f6b6457e090600090a35050565b610f718261091d565b610fde5760405162461bcd60e51b815260206004820152603860248201527f546f6b656e207472616e7366657220726566757365642e205265636569766572604482015277081a5cc81b9bdd081a5b881d1a19481dda1a5d195b1a5cdd60421b6064820152608401610401565b505050565b600060208083528351808285015260005b8181101561101057858101830151858201604001528201610ff4565b81811115611022576000604083870101525b50601f01601f1916929092016040019392505050565b80356001600160a01b038116811461104f57600080fd5b919050565b6000806040838503121561106757600080fd5b61107083611038565b946020939093013593505050565b60008060006060848603121561109357600080fd5b61109c84611038565b92506110aa60208501611038565b9150604084013590509250925092565b6000602082840312156110cc57600080fd5b6110d582611038565b9392505050565b600080604083850312156110ef57600080fd5b6110f883611038565b915061110660208401611038565b90509250929050565b600181811c9082168061112357607f821691505b60208210810361114357634e487b7160e01b600052602260045260246000fd5b50919050565b60208082526018908201527718d85b1b195c881a5cc81b9bdd08185d5d1a1bdc9a5e995960421b604082015260600190565b6000821982111561119c57634e487b7160e01b600052601160045260246000fd5b500190565b6020808252818101527f4f776e61626c653a2063616c6c6572206973206e6f7420746865206f776e657260408201526060019056fed490db2598a34eee8b1fe03c8cc9b1cd6a6349b0b86ea5310afce40a059290dfddf252ad1be2c89b69c2b068fc378daa952ba7f163c4a11628f55a4df523b3efa26469706673582212201474626f4c14f9edd91ef7e345ce9032e015c0a12be6e1fa57688a7786432dfa64736f6c634300080d0033",
  "immutableReferences": {},
  "source": "// SPDX-License-Identifier: MIT\r\n\r\npragma solidity 0.8.13;\r\n\r\nimport \"@openzeppelin/contracts/token/ERC20/ERC20.sol\";\r\nimport \"@openzeppelin/contracts/access/Ownable.sol\";\r\nimport \"@openzeppelin/contracts/security/ReentrancyGuard.sol\";\r\nimport \"./Authorizable.sol\";\r\n\r\n/**\r\n * @author EvoVerses\r\n * @title vEvoToken\r\n */\r\n\r\n/*\r\n * This token is the vested token for the private sale of the EvoVerses project. Since Evo tokens from the private sale are vested\r\n * and unlocked in a linear way (starting after the end of the public sale and finishing 11,664,000 blocks later\r\n * (9 months * 30 days each month * 24 hours each day * 60 minutes each hour * 60 seconds each minutes) / 2 seconds average block time).\r\n *\r\n * Vested Evo tokens can be swaped in exchange of Evo tokens following that vesting schedule in the EvoVerses website.\r\n * Vested tokens can not be transferred in any way but they can be staked in a special single token pool (available only for vEVO holders).\r\n * This pool has way less rewards than public pools but it allows private sale investors to still use their tokens for profit even\r\n * if they can't be transferred.\r\n */\r\n\r\ncontract vEvoToken is ERC20, Ownable, Authorizable, ReentrancyGuard {\r\n    // It is a vested token, so you shouldn't be able to transfer it most of the time\r\n    // But we need to allow users to transfer to some addresses\r\n    // Like the single token farm or the claiming EVO token contract\r\n    mapping(address => bool) _allowedTransferToAddresses;\r\n    bool public mintingEnabled;\r\n\r\n    // Events\r\n    event AllowedTransfersListUpdated(address indexed addr, bool value);\r\n    event EnabledMinting();\r\n    event DisabledMinting();\r\n    event TokenMinted(address indexed receiver, uint256 amount);\r\n    //\r\n\r\n    // Modifiers\r\n    modifier onlyWithMintingEnabled() {\r\n        require(mintingEnabled == true, \"Minting is not enabled!\");\r\n        _;\r\n    }\r\n\r\n    //\r\n\r\n    constructor() ERC20(\"vEVO\", \"vEVO\") Ownable() {\r\n        // We have to mint only the amount of vested tokens equivalent to the EVO tokens sold in the private sale\r\n        // You can find the amount here: https://docs.evoverses.com/tokenomics/evo-token#token-distribution\r\n        // We need to whitelist owner (msg.sender) address so we can send the minted tokens\r\n        //addToAllowedTransfers(msg.sender);\r\n        //_mint(msg.sender, 17000000 * (10**uint256(decimals())));\r\n        // After that we should remove it from the whitelist\r\n        //removeFromAllowedTransfers(msg.sender);\r\n        mintingEnabled = true;\r\n        emit EnabledMinting();\r\n    }\r\n\r\n    function enableMinting() public onlyAuthorized {\r\n        require(mintingEnabled == false, \"Minting is already enabled!\");\r\n        mintingEnabled = true;\r\n        emit EnabledMinting();\r\n    }\r\n\r\n    function disableMinting() public onlyAuthorized {\r\n        require(mintingEnabled == true, \"Minting is already disabled!\");\r\n        mintingEnabled = false;\r\n        emit DisabledMinting();\r\n    }\r\n\r\n    function mintTokenFor(address addr, uint256 amount)\r\n        public\r\n        onlyAuthorized\r\n        nonReentrant\r\n        onlyWithMintingEnabled\r\n    {\r\n        addToAllowedTransfers(addr);\r\n        _mint(addr, amount);\r\n        removeFromAllowedTransfers(addr);\r\n        emit TokenMinted(addr, amount);\r\n    }\r\n\r\n    // Only the owner should be able to whitelist addresses for transfers\r\n    function addToAllowedTransfers(address addr) public onlyAuthorized {\r\n        _allowedTransferToAddresses[addr] = true;\r\n        emit AllowedTransfersListUpdated(addr, true);\r\n    }\r\n\r\n    // The same applies for removing whitelisted transfer addresses\r\n    function removeFromAllowedTransfers(address addr) public onlyAuthorized {\r\n        _allowedTransferToAddresses[addr] = false;\r\n        emit AllowedTransfersListUpdated(addr, false);\r\n    }\r\n\r\n    function isAllowedToTransferTo(address addrToTransferTo)\r\n        public\r\n        view\r\n        returns (bool)\r\n    {\r\n        return _allowedTransferToAddresses[addrToTransferTo];\r\n    }\r\n\r\n    function _beforeTokenTransfer(\r\n        address from,\r\n        address to,\r\n        uint256 amount\r\n    ) internal virtual override(ERC20) {\r\n        require(\r\n            isAllowedToTransferTo(to),\r\n            \"Token transfer refused. Receiver is not in the whitelist\"\r\n        );\r\n        super._beforeTokenTransfer(from, to, amount);\r\n    }\r\n}\r\n",
  "sourcePath": "D:\\Projects\\EvoVerses\\contracts\\contracts\\vEvoToken.sol",
  "compiler": {
    "name": "solc",
    "version": "0.8.13+commit.abaa5c0e.Emscripten.clang"
  },
  "schemaVersion": "3.4.6",
  "updatedAt": "2022-04-05T20:34:17.056Z",
  "networkType": "ethereum",
  "devdoc": {
    "author": "EvoVerses",
    "kind": "dev",
    "methods": {
      "allowance(address,address)": {
        "details": "See {IERC20-allowance}."
      },
      "approve(address,uint256)": {
        "details": "See {IERC20-approve}. NOTE: If `amount` is the maximum `uint256`, the allowance is not updated on `transferFrom`. This is semantically equivalent to an infinite approval. Requirements: - `spender` cannot be the zero address."
      },
      "balanceOf(address)": {
        "details": "See {IERC20-balanceOf}."
      },
      "decimals()": {
        "details": "Returns the number of decimals used to get its user representation. For example, if `decimals` equals `2`, a balance of `505` tokens should be displayed to a user as `5.05` (`505 / 10 ** 2`). Tokens usually opt for a value of 18, imitating the relationship between Ether and Wei. This is the value {ERC20} uses, unless this function is overridden; NOTE: This information is only used for _display_ purposes: it in no way affects any of the arithmetic of the contract, including {IERC20-balanceOf} and {IERC20-transfer}."
      },
      "decreaseAllowance(address,uint256)": {
        "details": "Atomically decreases the allowance granted to `spender` by the caller. This is an alternative to {approve} that can be used as a mitigation for problems described in {IERC20-approve}. Emits an {Approval} event indicating the updated allowance. Requirements: - `spender` cannot be the zero address. - `spender` must have allowance for the caller of at least `subtractedValue`."
      },
      "increaseAllowance(address,uint256)": {
        "details": "Atomically increases the allowance granted to `spender` by the caller. This is an alternative to {approve} that can be used as a mitigation for problems described in {IERC20-approve}. Emits an {Approval} event indicating the updated allowance. Requirements: - `spender` cannot be the zero address."
      },
      "name()": {
        "details": "Returns the name of the token."
      },
      "owner()": {
        "details": "Returns the address of the current owner."
      },
      "renounceOwnership()": {
        "details": "Leaves the contract without owner. It will not be possible to call `onlyOwner` functions anymore. Can only be called by the current owner. NOTE: Renouncing ownership will leave the contract without an owner, thereby removing any functionality that is only available to the owner."
      },
      "symbol()": {
        "details": "Returns the symbol of the token, usually a shorter version of the name."
      },
      "totalSupply()": {
        "details": "See {IERC20-totalSupply}."
      },
      "transfer(address,uint256)": {
        "details": "See {IERC20-transfer}. Requirements: - `to` cannot be the zero address. - the caller must have a balance of at least `amount`."
      },
      "transferFrom(address,address,uint256)": {
        "details": "See {IERC20-transferFrom}. Emits an {Approval} event indicating the updated allowance. This is not required by the EIP. See the note at the beginning of {ERC20}. NOTE: Does not update the allowance if the current allowance is the maximum `uint256`. Requirements: - `from` and `to` cannot be the zero address. - `from` must have a balance of at least `amount`. - the caller must have allowance for ``from``'s tokens of at least `amount`."
      },
      "transferOwnership(address)": {
        "details": "Transfers ownership of the contract to a new account (`newOwner`). Can only be called by the current owner."
      }
    },
    "title": "vEvoToken",
    "version": 1
  },
  "userdoc": {
    "kind": "user",
    "methods": {},
    "version": 1
  }
}