{
  "contractName": "claimVEvoToken",
  "abi": [
    {
      "inputs": [],
      "stateMutability": "nonpayable",
      "type": "constructor"
    },
    {
      "anonymous": false,
      "inputs": [
        {
          "indexed": true,
          "internalType": "address",
          "name": "previousOwner",
          "type": "address"
        },
        {
          "indexed": true,
          "internalType": "address",
          "name": "newOwner",
          "type": "address"
        }
      ],
      "name": "OwnershipTransferred",
      "type": "event"
    },
    {
      "anonymous": false,
      "inputs": [
        {
          "indexed": false,
          "internalType": "bool",
          "name": "status",
          "type": "bool"
        }
      ],
      "name": "UpdateTokenClaimEvent",
      "type": "event"
    },
    {
      "anonymous": false,
      "inputs": [
        {
          "indexed": false,
          "internalType": "uint256",
          "name": "amount",
          "type": "uint256"
        }
      ],
      "name": "UpdateTotalClaimedTokens",
      "type": "event"
    },
    {
      "anonymous": false,
      "inputs": [
        {
          "indexed": true,
          "internalType": "address",
          "name": "addr",
          "type": "address"
        },
        {
          "indexed": false,
          "internalType": "uint256",
          "name": "amount",
          "type": "uint256"
        }
      ],
      "name": "UpdateUserClaimable",
      "type": "event"
    },
    {
      "anonymous": false,
      "inputs": [
        {
          "indexed": true,
          "internalType": "address",
          "name": "addr",
          "type": "address"
        },
        {
          "indexed": false,
          "internalType": "uint256",
          "name": "amount",
          "type": "uint256"
        }
      ],
      "name": "UserClaimedTokens",
      "type": "event"
    },
    {
      "inputs": [
        {
          "internalType": "address",
          "name": "_toAdd",
          "type": "address"
        }
      ],
      "name": "addAuthorized",
      "outputs": [],
      "stateMutability": "nonpayable",
      "type": "function"
    },
    {
      "inputs": [
        {
          "internalType": "address",
          "name": "",
          "type": "address"
        }
      ],
      "name": "authorized",
      "outputs": [
        {
          "internalType": "bool",
          "name": "",
          "type": "bool"
        }
      ],
      "stateMutability": "view",
      "type": "function",
      "constant": true
    },
    {
      "inputs": [],
      "name": "isClaimEnabled",
      "outputs": [
        {
          "internalType": "bool",
          "name": "",
          "type": "bool"
        }
      ],
      "stateMutability": "view",
      "type": "function",
      "constant": true
    },
    {
      "inputs": [],
      "name": "isWhitelistInitialized",
      "outputs": [
        {
          "internalType": "bool",
          "name": "",
          "type": "bool"
        }
      ],
      "stateMutability": "view",
      "type": "function",
      "constant": true
    },
    {
      "inputs": [],
      "name": "owner",
      "outputs": [
        {
          "internalType": "address",
          "name": "",
          "type": "address"
        }
      ],
      "stateMutability": "view",
      "type": "function",
      "constant": true
    },
    {
      "inputs": [
        {
          "internalType": "address",
          "name": "_toRemove",
          "type": "address"
        }
      ],
      "name": "removeAuthorized",
      "outputs": [],
      "stateMutability": "nonpayable",
      "type": "function"
    },
    {
      "inputs": [],
      "name": "renounceOwnership",
      "outputs": [],
      "stateMutability": "nonpayable",
      "type": "function"
    },
    {
      "inputs": [],
      "name": "totalClaimedTokens",
      "outputs": [
        {
          "internalType": "uint256",
          "name": "",
          "type": "uint256"
        }
      ],
      "stateMutability": "view",
      "type": "function",
      "constant": true
    },
    {
      "inputs": [
        {
          "internalType": "address",
          "name": "newOwner",
          "type": "address"
        }
      ],
      "name": "transferOwnership",
      "outputs": [],
      "stateMutability": "nonpayable",
      "type": "function"
    },
    {
      "inputs": [
        {
          "internalType": "address",
          "name": "",
          "type": "address"
        }
      ],
      "name": "userClaimable",
      "outputs": [
        {
          "internalType": "uint256",
          "name": "amount",
          "type": "uint256"
        },
        {
          "internalType": "bool",
          "name": "valid",
          "type": "bool"
        }
      ],
      "stateMutability": "view",
      "type": "function",
      "constant": true
    },
    {
      "inputs": [
        {
          "internalType": "contract IERC20",
          "name": "vEvoToken",
          "type": "address"
        }
      ],
      "name": "initialize",
      "outputs": [],
      "stateMutability": "nonpayable",
      "type": "function"
    },
    {
      "inputs": [],
      "name": "enableTokenClaimEvent",
      "outputs": [],
      "stateMutability": "nonpayable",
      "type": "function"
    },
    {
      "inputs": [],
      "name": "disableTokenClaimEvent",
      "outputs": [],
      "stateMutability": "nonpayable",
      "type": "function"
    },
    {
      "inputs": [],
      "name": "hasClaimable",
      "outputs": [
        {
          "internalType": "uint256",
          "name": "",
          "type": "uint256"
        }
      ],
      "stateMutability": "view",
      "type": "function",
      "constant": true
    },
    {
      "inputs": [],
      "name": "claim",
      "outputs": [],
      "stateMutability": "nonpayable",
      "type": "function"
    },
    {
      "inputs": [
        {
          "internalType": "address",
          "name": "addr",
          "type": "address"
        },
        {
          "internalType": "uint256",
          "name": "amount",
          "type": "uint256"
        }
      ],
      "name": "addToWhitelist",
      "outputs": [],
      "stateMutability": "nonpayable",
      "type": "function"
    },
    {
      "inputs": [
        {
          "internalType": "address",
          "name": "addr",
          "type": "address"
        },
        {
          "internalType": "uint256",
          "name": "amount",
          "type": "uint256"
        }
      ],
      "name": "removeFromWhitelist",
      "outputs": [],
      "stateMutability": "nonpayable",
      "type": "function"
    }
  ],
  "bytecode": "0x60806040523480156200001157600080fd5b506200001d3362000033565b60016002556005805461ff001916905562000083565b600080546001600160a01b038381166001600160a01b0319831681178455604051919092169283917f8be0079c531659141344cd1fd0a4f28419497f9722a3daafe3b4186f6b6457e09190a35050565b6158b980620000936000396000f3fe608060405234801561001057600080fd5b50600436106100db5760003560e01c8063214405fc146100e0578063485d7d94146100f55780634e71d92d146101085780635977e8d614610110578063712f7bcb1461012b578063715018a61461016a5780638da5cb5b146101725780639981360f146101925780639edcb8ee1461019a578063b9181611146101b7578063c4d66de8146101da578063cf1c316a146101ed578063eb3892a814610200578063f2fde38b14610213578063f30e5b2614610226578063fcb56f4714610233578063fdc926ab1461023c575b600080fd5b6100f36100ee3660046156a5565b610244565b005b6100f36101033660046156d1565b6103ae565b6100f3610413565b6101186106a2565b6040519081526020015b60405180910390f35b6101556101393660046156d1565b6004602052600090815260409020805460019091015460ff1682565b60408051928352901515602083015201610122565b6100f3610738565b61017a610773565b6040516001600160a01b039091168152602001610122565b6100f3610782565b6007546101a79060ff1681565b6040519015158152602001610122565b6101a76101c53660046156d1565b60016020526000908152604090205460ff1681565b6100f36101e83660046156d1565b61082c565b6100f36101fb3660046156d1565b6108ed565b6100f361020e3660046156a5565b610943565b6100f36102213660046156d1565b610ac7565b6005546101a79060ff1681565b61011860065481565b6100f3610b67565b60055460ff61010090910416151560011461027a5760405162461bcd60e51b8152600401610271906156f5565b60405180910390fd5b3360009081526001602052604090205460ff16806102a757503361029c610773565b6001600160a01b0316145b6102c35760405162461bcd60e51b81526004016102719061572b565b6001600160a01b03821660009081526004602052604090206001015460ff1615610329576001600160a01b03821660009081526004602052604090205461030b908290615773565b6001600160a01b03831660009081526004602052604090205561036e565b604080518082018252828152600160208083018281526001600160a01b038716600090815260049092529390209151825591519101805460ff19169115159190911790555b6001600160a01b03821660008181526004602090815260409182902054915191825260008051602061586483398151915291015b60405180910390a25050565b336103b7610773565b6001600160a01b0316146103dd5760405162461bcd60e51b81526004016102719061578b565b336001600160a01b038216036103f257600080fd5b6001600160a01b03166000908152600160205260409020805460ff19169055565b60055460ff6101009091041615156001146104405760405162461bcd60e51b8152600401610271906156f5565b60055460ff1615156001146104675760405162461bcd60e51b8152600401610271906157c0565b33600090815260046020526040902060019081015460ff161515146104d95760405162461bcd60e51b815260206004820152602260248201527f55736572206973206e6f742066726f6d2074686520707269766174652073616c604482015261652160f01b6064820152608401610271565b336000908152600460205260409020546105415760405162461bcd60e51b815260206004820152602360248201527f5573657220686173206e6f7420636c61696d61626c6520746f6b656e73206c6560448201526266742160e81b6064820152608401610271565b60028054036105925760405162461bcd60e51b815260206004820152601f60248201527f5265656e7472616e637947756172643a207265656e7472616e742063616c6c006044820152606401610271565b6002805533600081815260046020526040812080549190556006546105b8908290615773565b60068190556040519081527fd70452ac47d203280edd4caea7afb888d4451c3ecb9791fd93ef5680dd6e91509060200160405180910390a1600354604051630bfcbad960e11b81526001600160a01b03848116600483015260248201849052909116906317f975b290604401600060405180830381600087803b15801561063e57600080fd5b505af1158015610652573d6000803e3d6000fd5b50505050816001600160a01b03167f7dcb6aa232addb2ca3639b1914512620987e17c4c1727c4a3d146a22aad4308d8260405161069191815260200190565b60405180910390a250506001600255565b60055460009060ff6101009091041615156001146106d25760405162461bcd60e51b8152600401610271906156f5565b60055460ff1615156001146106f95760405162461bcd60e51b8152600401610271906157c0565b3360008181526004602052604081206001015460ff161561073257506001600160a01b0316600090815260046020526040902054905090565b91505090565b33610741610773565b6001600160a01b0316146107675760405162461bcd60e51b81526004016102719061578b565b6107716000610c06565b565b6000546001600160a01b031690565b60055460ff6101009091041615156001146107af5760405162461bcd60e51b8152600401610271906156f5565b3360009081526001602052604090205460ff16806107dc5750336107d1610773565b6001600160a01b0316145b6107f85760405162461bcd60e51b81526004016102719061572b565b6005805460ff19166001908117909155604051908152600080516020615844833981519152906020015b60405180910390a1565b3360009081526001602052604090205460ff168061085957503361084e610773565b6001600160a01b0316145b6108755760405162461bcd60e51b81526004016102719061572b565b600554610100900460ff161561089d5760405162461bcd60e51b8152600401610271906157f5565b600380546001600160a01b0319166001600160a01b0383161790556007805460ff1990811690915560058054909116905560006006556108db610c56565b506005805461ff001916610100179055565b336108f6610773565b6001600160a01b03161461091c5760405162461bcd60e51b81526004016102719061578b565b6001600160a01b03166000908152600160208190526040909120805460ff19169091179055565b60055460ff6101009091041615156001146109705760405162461bcd60e51b8152600401610271906156f5565b3360009081526001602052604090205460ff168061099d575033610992610773565b6001600160a01b0316145b6109b95760405162461bcd60e51b81526004016102719061572b565b6001600160a01b038216600090815260046020526040902060019081015460ff16151514610a295760405162461bcd60e51b815260206004820152601d60248201527f55736572206973206e6f7420696e207468652077686974656c697374210000006044820152606401610271565b6001600160a01b038216600090815260046020526040902054811115610a67576001600160a01b03821660009081526004602052604081205561036e565b6001600160a01b038216600090815260046020526040902054610a8b90829061582c565b6001600160a01b0383166000818152600460209081526040918290208490559051928352909160008051602061586483398151915291016103a2565b33610ad0610773565b6001600160a01b031614610af65760405162461bcd60e51b81526004016102719061578b565b6001600160a01b038116610b5b5760405162461bcd60e51b815260206004820152602660248201527f4f776e61626c653a206e6577206f776e657220697320746865207a65726f206160448201526564647265737360d01b6064820152608401610271565b610b6481610c06565b50565b60055460ff610100909104161515600114610b945760405162461bcd60e51b8152600401610271906156f5565b3360009081526001602052604090205460ff1680610bc1575033610bb6610773565b6001600160a01b0316145b610bdd5760405162461bcd60e51b81526004016102719061572b565b6005805460ff191690556040516000815260008051602061584483398151915290602001610822565b600080546001600160a01b038381166001600160a01b0319831681178455604051919092169283917f8be0079c531659141344cd1fd0a4f28419497f9722a3daafe3b4186f6b6457e09190a35050565b600554610100900460ff1615610c7e5760405162461bcd60e51b8152600401610271906157f5565b3360009081526001602052604090205460ff1680610cab575033610ca0610773565b6001600160a01b0316145b610cc75760405162461bcd60e51b81526004016102719061572b565b60075460ff1615610d245760405162461bcd60e51b815260206004820152602160248201527f57686974656c69737420697320616c726561647920696e697469616c697a65646044820152602160f81b6064820152608401610271565b60405180604001604052806905fffd3d6008bdf800008152602001600115158152506004600073784ca853277fe20b17c06c63958add91b047c1666001600160a01b03166001600160a01b031681526020019081526020016000206000820151816000015560208201518160010160006101000a81548160ff0219169083151502179055509050506040518060400160405280690bffec9a095dd48c000081526020016001151581525060046000735560ea6c7f764bc49688e168a19b035c99efa2ce6001600160a01b03166001600160a01b031681526020019081526020016000206000820151816000015560208201518160010160006101000a81548160ff02191690831515021790555090505060405180604001604052806902666ad8d5e4f558000081526020016001151581525060046000730e97d72a5f07e288aab1abe66f831be64c7853b16001600160a01b03166001600160a01b031681526020019081526020016000206000820151816000015560208201518160010160006101000a81548160ff0219169083151502179055509050506040518060400160405280690bffec9a095dd48c00008152602001600115158152506004600073e9e0f19a41b3972383b603b667950e8fa603600e6001600160a01b03166001600160a01b031681526020019081526020016000206000820151816000015560208201518160010160006101000a81548160ff0219169083151502179055509050506040518060400160405280690567100016552d040000815260200160011515815250600460007350ae5984f31ea1cd581d9883e3bea971a37549466001600160a01b03166001600160a01b031681526020019081526020016000206000820151816000015560208201518160010160006101000a81548160ff02191690831515021790555090505060405180604001604052806908fffbdc100d1cf400008152602001600115158152506004600073e0ab50bb4eeb58dd8d1f0d8b758f7d573d06ba266001600160a01b03166001600160a01b031681526020019081526020016000206000820151816000015560208201518160010160006101000a81548160ff0219169083151502179055509050506040518060400160405280690accc50e551f014400008152602001600115158152506004600073162d0a0f7290e8fc983698d53d3efe4ba7f4499f6001600160a01b03166001600160a01b031681526020019081526020016000206000820151816000015560208201518160010160006101000a81548160ff021916908315150217905550905050604051806040016040528069034ccf71f86de7800000815260200160011515815250600460007341f20d9b73b0c0a473a0804cfa90016e2d66c0f96001600160a01b03166001600160a01b031681526020019081526020016000206000820151816000015560208201518160010160006101000a81548160ff0219169083151502179055509050506040518060400160405280690c0303a2b75e19d0000081526020016001151581525060046000732a74b4e05bb82c03c17fadd73b13f5b651597e656001600160a01b03166001600160a01b031681526020019081526020016000206000820151816000015560208201518160010160006101000a81548160ff021916908315150217905550905050604051806040016040528069026c8b097b31d87c00008152602001600115158152506004600073366ec35fe5f667762b4cc21fcc65b55efb39691e6001600160a01b03166001600160a01b031681526020019081526020016000206000820151816000015560208201518160010160006101000a81548160ff02191690831515021790555090505060405180604001604052806904ccc7d0f516434c00008152602001600115158152506004600073ec8d43b6982dac8dffc1294d79e494aabee743ea6001600160a01b03166001600160a01b031681526020019081526020016000206000820151816000015560208201518160010160006101000a81548160ff02191690831515021790555090505060405180604001604052806977ff3023a6f6a614000081526020016001151581525060046000730767b2bc858e6089ea52539842e649ec886807216001600160a01b03166001600160a01b031681526020019081526020016000206000820151816000015560208201518160010160006101000a81548160ff0219169083151502179055509050506040518060400160405280690bffec9a095dd48c000081526020016001151581525060046000738f7464f8115e50b152d04c5be35d25b5d7d3c3de6001600160a01b03166001600160a01b031681526020019081526020016000206000820151816000015560208201518160010160006101000a81548160ff02191690831515021790555090505060405180604001604052806908fffbdc100d1cf4000081526020016001151581525060046000730b509b48dd857a27811e97324f360b1d044077d66001600160a01b03166001600160a01b031681526020019081526020016000206000820151816000015560208201518160010160006101000a81548160ff0219169083151502179055509050506040518060400160405280690bffec9a095dd48c00008152602001600115158152506004600073c045dc7d059ad101691c545c319a496c703894b36001600160a01b03166001600160a01b031681526020019081526020016000206000820151816000015560208201518160010160006101000a81548160ff02191690831515021790555090505060405180604001604052806917ffd93412bba9180000815260200160011515815250600460007394b56330ae10dcf0463660cc8a4ae06c1fa131596001600160a01b03166001600160a01b031681526020019081526020016000206000820151816000015560208201518160010160006101000a81548160ff02191690831515021790555090505060405180604001604052806905fffd3d6008bdf800008152602001600115158152506004600073cbcca505aa6908cd6fbd4e78064a0a68b7dc10cc6001600160a01b03166001600160a01b031681526020019081526020016000206000820151816000015560208201518160010160006101000a81548160ff0219169083151502179055509050506040518060400160405280690133356c6af27aac00008152602001600115158152506004600073b61dfcb9379027254ba458ee18ffb0f9ce25d0886001600160a01b03166001600160a01b031681526020019081526020016000206000820151816000015560208201518160010160006101000a81548160ff02191690831515021790555090505060405180604001604052806902666ad8d5e4f5580000815260200160011515815250600460007337732d06ba9fc502fcc51069f9938fc5e6bc781f6001600160a01b03166001600160a01b031681526020019081526020016000206000820151816000015560208201518160010160006101000a81548160ff0219169083151502179055509050506040518060400160405280690bffec9a095dd48c000081526020016001151581525060046000738d661227a1e671780f71bfdbc83a2a9b80c3a1fb6001600160a01b03166001600160a01b031681526020019081526020016000206000820151816000015560208201518160010160006101000a81548160ff02191690831515021790555090505060405180604001604052806908fffbdc100d1cf400008152602001600115158152506004600073cc852b08ef9bed533e63de253d9d15cd865bac5d6001600160a01b03166001600160a01b031681526020019081526020016000206000820151816000015560208201518160010160006101000a81548160ff02191690831515021790555090505060405180604001604052806902666ad8d5e4f55800008152602001600115158152506004600073989f4c3181a64aa7d52d400c7c245b6384cab4ea6001600160a01b03166001600160a01b031681526020019081526020016000206000820151816000015560208201518160010160006101000a81548160ff021916908315150217905550905050604051806040016040528069067deb574040ae6400008152602001600115158152506004600073e54503e19133976141618b00dfc894c35a73d5fd6001600160a01b03166001600160a01b031681526020019081526020016000206000820151816000015560208201518160010160006101000a81548160ff02191690831515021790555090505060405180604001604052806905fffd3d6008bdf800008152602001600115158152506004600073640f5fb43aefce2b4a3c22f204862723bb08e6eb6001600160a01b03166001600160a01b031681526020019081526020016000206000820151816000015560208201518160010160006101000a81548160ff021916908315150217905550905050604051806040016040528069013e97c24a51cab4000081526020016001151581525060046000731b3cf414fdcd12b71df6a9c6b1741a5128ea3dc86001600160a01b03166001600160a01b031681526020019081526020016000206000820151816000015560208201518160010160006101000a81548160ff02191690831515021790555090505060405180604001604052806902c4d9f41061ffd000008152602001600115158152506004600073993beafe52055532e95999ccef6e8f226efd98096001600160a01b03166001600160a01b031681526020019081526020016000206000820151816000015560208201518160010160006101000a81548160ff02191690831515021790555090505060405180604001604052806905fffd3d6008bdf800008152602001600115158152506004600073343f50d9c79a78008283a3b109de97f3fd738f1c6001600160a01b03166001600160a01b031681526020019081526020016000206000820151816000015560208201518160010160006101000a81548160ff0219169083151502179055509050506040518060400160405280690747a296d98cbae80000815260200160011515815250600460007387e3c488d2183acdb4e9b33d905e3086faec33a86001600160a01b03166001600160a01b031681526020019081526020016000206000820151816000015560208201518160010160006101000a81548160ff0219169083151502179055509050506040518060400160405280690bffec9a095dd48c000081526020016001151581525060046000737b32fc6e42150b0316b2c7e6c913fff944f873db6001600160a01b03166001600160a01b031681526020019081526020016000206000820151816000015560208201518160010160006101000a81548160ff02191690831515021790555090505060405180604001604052806901ccd712fbc58bb400008152602001600115158152506004600073eaa91737c1f7ee983fbc90177ddf4388f90a4bc36001600160a01b03166001600160a01b031681526020019081526020016000206000820151816000015560208201518160010160006101000a81548160ff02191690831515021790555090505060405180604001604052806905fffd3d6008bdf8000081526020016001151581525060046000732f3059dbfbb208cd6027fd2ea7650179a138e1e46001600160a01b03166001600160a01b031681526020019081526020016000206000820151816000015560208201518160010160006101000a81548160ff0219169083151502179055509050506040518060400160405280690148bae7bf8d10c000008152602001600115158152506004600073a29938d059664f7bca45e2188e0b5604f3c16fa66001600160a01b03166001600160a01b031681526020019081526020016000206000820151816000015560208201518160010160006101000a81548160ff02191690831515021790555090505060405180604001604052806905fffd3d6008bdf800008152602001600115158152506004600073cb67feffa39792fe2769796b2407d851faaff9ca6001600160a01b03166001600160a01b031681526020019081526020016000206000820151816000015560208201518160010160006101000a81548160ff02191690831515021790555090505060405180604001604052806902fffe9eb0045efc00008152602001600115158152506004600073a3bbd6478f9c5f8d940e1ccad14c6335526e448a6001600160a01b03166001600160a01b031681526020019081526020016000206000820151816000015560208201518160010160006101000a81548160ff02191690831515021790555090505060405180604001604052806907335c4bef162ed000008152602001600115158152506004600073eadce7a42f0a03a12ab599e4abe199abbe4f75eb6001600160a01b03166001600160a01b031681526020019081526020016000206000820151816000015560208201518160010160006101000a81548160ff021916908315150217905550905050604051806040016040528069137a07695244502000008152602001600115158152506004600073c2893e25d477610db55a2806eb36a830ff5200526001600160a01b03166001600160a01b031681526020019081526020016000206000820151816000015560208201518160010160006101000a81548160ff021916908315150217905550905050604051806040016040528069073332a9cafb38a400008152602001600115158152506004600073ef75137087a65f4ffb4fc9159e588adbe5aec4f66001600160a01b03166001600160a01b031681526020019081526020016000206000820151816000015560208201518160010160006101000a81548160ff02191690831515021790555090505060405180604001604052806911ffe9d76966928400008152602001600115158152506004600073f96e38bce53dbbaa6cb16e7a48c481cb7a97f61e6001600160a01b03166001600160a01b031681526020019081526020016000206000820151816000015560208201518160010160006101000a81548160ff02191690831515021790555090505060405180604001604052806902fffe9eb0045efc00008152602001600115158152506004600073b0268ea1b14941daf20b3b446f7dc93b9cef2b766001600160a01b03166001600160a01b031681526020019081526020016000206000820151816000015560208201518160010160006101000a81548160ff02191690831515021790555090505060405180604001604052806905fffd3d6008bdf8000081526020016001151581525060046000735361dea02d6c759b89aa1ee92ba675cedfa11ba66001600160a01b03166001600160a01b031681526020019081526020016000206000820151816000015560208201518160010160006101000a81548160ff0219169083151502179055509050506040518060400160405280691343707aa594ddc400008152602001600115158152506004600073b43edf919ea51ae7eae0ab7c7a28e530aabb6d656001600160a01b03166001600160a01b031681526020019081526020016000206000820151816000015560208201518160010160006101000a81548160ff02191690831515021790555090505060405180604001604052806908fffbdc100d1cf400008152602001600115158152506004600073424d6e09c17898e5a7e22fd1ba7428c3a4960d366001600160a01b03166001600160a01b031681526020019081526020016000206000820151816000015560208201518160010160006101000a81548160ff0219169083151502179055509050506040518060400160405280690bd7a567c5f3015000008152602001600115158152506004600073a9bc50b12cae600feb52266c85e1bfdd94ca57136001600160a01b03166001600160a01b031681526020019081526020016000206000820151816000015560208201518160010160006101000a81548160ff021916908315150217905550905050604051806040016040528069039dbefb7e2d21b4000081526020016001151581525060046000737076b74fe5c5d5d3a786b08208924c0d3bd77fa36001600160a01b03166001600160a01b031681526020019081526020016000206000820151816000015560208201518160010160006101000a81548160ff02191690831515021790555090505060405180604001604052806902fffe9eb0045efc000081526020016001151581525060046000737e3d993a8d63c25d1db5f7ff8a8d6c59091003b16001600160a01b03166001600160a01b031681526020019081526020016000206000820151816000015560208201518160010160006101000a81548160ff02191690831515021790555090505060405180604001604052806902666ad8d5e4f55800008152602001600115158152506004600073a66e2a7be720c52476c3765421c57860386bb31e6001600160a01b03166001600160a01b031681526020019081526020016000206000820151816000015560208201518160010160006101000a81548160ff02191690831515021790555090505060405180604001604052806905fffd3d6008bdf800008152602001600115158152506004600073b338f54a9406ae1d9ae3a71e2588ab9bf3f9624d6001600160a01b03166001600160a01b031681526020019081526020016000206000820151816000015560208201518160010160006101000a81548160ff021916908315150217905550905050604051806040016040528069013544c7899d538400008152602001600115158152506004600073c35d62ce9d648fb2fdc70e63e9ef06b4ea2ea3156001600160a01b03166001600160a01b031681526020019081526020016000206000820151816000015560208201518160010160006101000a81548160ff0219169083151502179055509050506040518060400160405280691dffd67172c46710000081526020016001151581525060046000733f0d41d25467e9d187b9ce9cb280d1b4665b4e5b6001600160a01b03166001600160a01b031681526020019081526020016000206000820151816000015560208201518160010160006101000a81548160ff02191690831515021790555090505060405180604001604052806902fffe9eb0045efc0000815260200160011515815250600460007343fb8bc112fc097ea2c6208f4ba0ba7ed236be366001600160a01b03166001600160a01b031681526020019081526020016000206000820151816000015560208201518160010160006101000a81548160ff02191690831515021790555090505060405180604001604052806908fffbdc100d1cf4000081526020016001151581525060046000734e86f05a35dddb0d8d81b66b8f1398da392aabbc6001600160a01b03166001600160a01b031681526020019081526020016000206000820151816000015560208201518160010160006101000a81548160ff02191690831515021790555090505060405180604001604052806901ccd712fbc58bb4000081526020016001151581525060046000735134b770b0daf559e231ab33ebd7e5cb9fc1837b6001600160a01b03166001600160a01b031681526020019081526020016000206000820151816000015560208201518160010160006101000a81548160ff021916908315150217905550905050604051806040016040528069192b325901ec542000008152602001600115158152506004600073cbba166af38118e61729e5dc105dbaf4f2948cd06001600160a01b03166001600160a01b031681526020019081526020016000206000820151816000015560208201518160010160006101000a81548160ff02191690831515021790555090505060405180604001604052806909c28b3d74b6d9e8000081526020016001151581525060046000736322e80ea0e481db7741bf21259edd678250164a6001600160a01b03166001600160a01b031681526020019081526020016000206000820151816000015560208201518160010160006101000a81548160ff0219169083151502179055509050506040518060400160405280690390a08ec858e52c00008152602001600115158152506004600073e49ec5d3991d69ec8d3e14bee71ce5e11100583d6001600160a01b03166001600160a01b031681526020019081526020016000206000820151816000015560208201518160010160006101000a81548160ff0219169083151502179055509050506040518060400160405280690bffec9a095dd48c000081526020016001151581525060046000739df9589f197dacec2f41e1844f44858c1c90d9a96001600160a01b03166001600160a01b031681526020019081526020016000206000820151816000015560208201518160010160006101000a81548160ff02191690831515021790555090505060405180604001604052806905fffd3d6008bdf800008152602001600115158152506004600073c00faf1ebcdedae0c2a50892aca58a028b9eefcb6001600160a01b03166001600160a01b031681526020019081526020016000206000820151816000015560208201518160010160006101000a81548160ff0219169083151502179055509050506040518060400160405280690bffec9a095dd48c0000815260200160011515815250600460007368b6388f57cf22d19f84e7e9bb85907005ee80da6001600160a01b03166001600160a01b031681526020019081526020016000206000820151816000015560208201518160010160006101000a81548160ff021916908315150217905550905050604051806040016040528069069687db42db89bc00008152602001600115158152506004600073b51428eb18ee4504e2b084a6c16f27dc2fef3c586001600160a01b03166001600160a01b031681526020019081526020016000206000820151816000015560208201518160010160006101000a81548160ff0219169083151502179055509050506040518060400160405280690a332367c44bf03c000081526020016001151581525060046000738a8fff1b41583759b60c6aa2cb45cc4b7a5466876001600160a01b03166001600160a01b031681526020019081526020016000206000820151816000015560208201518160010160006101000a81548160ff02191690831515021790555090505060405180604001604052806909998fa1ea2c8698000081526020016001151581525060046000732a574da84838a051ac65ef69ca1381809b6077ce6001600160a01b03166001600160a01b031681526020019081526020016000206000820151816000015560208201518160010160006101000a81548160ff02191690831515021790555090505060405180604001604052806905fffd3d6008bdf800008152602001600115158152506004600073213da5859ddfd7b0291dc27bc9a44482eb494cff6001600160a01b03166001600160a01b031681526020019081526020016000206000820151816000015560208201518160010160006101000a81548160ff02191690831515021790555090505060405180604001604052806901ccd712fbc58bb400008152602001600115158152506004600073b3fa357917c25c3169c59865974330dada76e5bc6001600160a01b03166001600160a01b031681526020019081526020016000206000820151816000015560208201518160010160006101000a81548160ff021916908315150217905550905050604051806040016040528069069991033a28279c000081526020016001151581525060046000739b110ccfc441bedae0557eff13e2439b824046f76001600160a01b03166001600160a01b031681526020019081526020016000206000820151816000015560208201518160010160006101000a81548160ff02191690831515021790555090505060405180604001604052806905fffd3d6008bdf800008152602001600115158152506004600073e1e639eb7fe8a7c959085fa9536e6986889681c56001600160a01b03166001600160a01b031681526020019081526020016000206000820151816000015560208201518160010160006101000a81548160ff0219169083151502179055509050506040518060400160405280690133356c6af27aac000081526020016001151581525060046000733b6dc3415f527fddfaade9756aef4a9e50d806946001600160a01b03166001600160a01b031681526020019081526020016000206000820151816000015560208201518160010160006101000a81548160ff021916908315150217905550905050604051806040016040528069133311631da565cc000081526020016001151581525060046000732d6b080f8460ad3ca94447afd3c5493c28b4d3e46001600160a01b03166001600160a01b031681526020019081526020016000206000820151816000015560208201518160010160006101000a81548160ff02191690831515021790555090505060405180604001604052806902666ad8d5e4f558000081526020016001151581525060046000737d0c0614086210352d019ceadef49797735434b26001600160a01b03166001600160a01b031681526020019081526020016000206000820151816000015560208201518160010160006101000a81548160ff02191690831515021790555090505060405180604001604052806905fffd3d6008bdf800008152602001600115158152506004600073876a6da1059e003743c70772b706f30c9adcf0f46001600160a01b03166001600160a01b031681526020019081526020016000206000820151816000015560208201518160010160006101000a81548160ff02191690831515021790555090505060405180604001604052806902fffe9eb0045efc0000815260200160011515815250600460007391fabf1d77db0a69c46fda69a779ac7a801a9e836001600160a01b03166001600160a01b031681526020019081526020016000206000820151816000015560208201518160010160006101000a81548160ff02191690831515021790555090505060405180604001604052806902fffe9eb0045efc00008152602001600115158152506004600073c6f6a387afe4e5aa87e8f3b7ee708c8ed809a7dc6001600160a01b03166001600160a01b031681526020019081526020016000206000820151816000015560208201518160010160006101000a81548160ff02191690831515021790555090505060405180604001604052806905fffd3d6008bdf8000081526020016001151581525060046000731f9b46626b67ae43a8ea52be6af8dbb5c3455afe6001600160a01b03166001600160a01b031681526020019081526020016000206000820151816000015560208201518160010160006101000a81548160ff02191690831515021790555090505060405180604001604052806906d1ffca2ab3d540000081526020016001151581525060046000731085a4ab9053de45f185490a0ecf3d3769509be06001600160a01b03166001600160a01b031681526020019081526020016000206000820151816000015560208201518160010160006101000a81548160ff0219169083151502179055509050506040518060400160405280690bffec9a095dd48c00008152602001600115158152506004600073ea0099779119773e19d144849556027ec5d92e1d6001600160a01b03166001600160a01b031681526020019081526020016000206000820151816000015560208201518160010160006101000a81548160ff02191690831515021790555090505060405180604001604052806908fffbdc100d1cf4000081526020016001151581525060046000738722ecc4d654c566449cc9ae2b06e2613dc1e8fd6001600160a01b03166001600160a01b031681526020019081526020016000206000820151816000015560208201518160010160006101000a81548160ff02191690831515021790555090505060405180604001604052806902fffe9eb0045efc00008152602001600115158152506004600073ac002b284ed0eac4c56dc861128d39beb8e550fa6001600160a01b03166001600160a01b031681526020019081526020016000206000820151816000015560208201518160010160006101000a81548160ff0219169083151502179055509050506040518060400160405280690bffec9a095dd48c0000815260200160011515815250600460007349efe190df1c6a4d0eb4a87cc7a19e7168697d4f6001600160a01b03166001600160a01b031681526020019081526020016000206000820151816000015560208201518160010160006101000a81548160ff02191690831515021790555090505060405180604001604052806911ffe9d76966928400008152602001600115158152506004600073035a3f409119aa2fd2fac3973ec66dd12fbbaa3d6001600160a01b03166001600160a01b031681526020019081526020016000206000820151816000015560208201518160010160006101000a81548160ff0219169083151502179055509050506040518060400160405280690bffec9a095dd48c0000815260200160011515815250600460007312e350241c6a6d9926ce8b64939cd5fc7ca26ecc6001600160a01b03166001600160a01b031681526020019081526020016000206000820151816000015560208201518160010160006101000a81548160ff0219169083151502179055509050506040518060400160405280690bffec9a095dd48c0000815260200160011515815250600460007358533fafbfc8164140724ec688275de5aafd5d846001600160a01b03166001600160a01b031681526020019081526020016000206000820151816000015560208201518160010160006101000a81548160ff0219169083151502179055509050506040518060400160405280690433340b1af6d9a80000815260200160011515815250600460007351e625291c9044cd4d57ab28916347b8edc6afe26001600160a01b03166001600160a01b031681526020019081526020016000206000820151816000015560208201518160010160006101000a81548160ff021916908315150217905550905050604051806040016040528069060112cba611d1c8000081526020016001151581525060046000737d660eaca94e0c51e308207d697d71cbbec27ac96001600160a01b03166001600160a01b031681526020019081526020016000206000820151816000015560208201518160010160006101000a81548160ff0219169083151502179055509050506040518060400160405280690bffec9a095dd48c00008152602001600115158152506004600073eab6f230939b7478b8f439f3b852547b0590cf056001600160a01b03166001600160a01b031681526020019081526020016000206000820151816000015560208201518160010160006101000a81548160ff0219169083151502179055509050506040518060400160405280690bffec9a095dd48c000081526020016001151581525060046000735ffdffa9a30b05afcfd5305475ac3f0a428ed4886001600160a01b03166001600160a01b031681526020019081526020016000206000820151816000015560208201518160010160006101000a81548160ff02191690831515021790555090505060405180604001604052806905fffd3d6008bdf8000081526020016001151581525060046000734b602c4883bd91c4d7bd81dcbf39fd16bad971356001600160a01b03166001600160a01b031681526020019081526020016000206000820151816000015560208201518160010160006101000a81548160ff021916908315150217905550905050604051806040016040528069039101b3c74278e80000815260200160011515815250600460007348c997385113c6b3e483d56b1b7a566d5f19300a6001600160a01b03166001600160a01b031681526020019081526020016000206000820151816000015560208201518160010160006101000a81548160ff02191690831515021790555090505060405180604001604052806905fffd3d6008bdf80000815260200160011515815250600460007345ca80065b86a1bc905007fc833ba43446c3cfc06001600160a01b03166001600160a01b031681526020019081526020016000206000820151816000015560208201518160010160006101000a81548160ff02191690831515021790555090505060405180604001604052806905fffd3d6008bdf800008152602001600115158152506004600073305d7517e75c492da4729249ae21581ffafa80366001600160a01b03166001600160a01b031681526020019081526020016000206000820151816000015560208201518160010160006101000a81548160ff0219169083151502179055509050506040518060400160405280690effeb38b962338800008152602001600115158152506004600073af85d230901e10dd023c32c293e81c91bf5087406001600160a01b03166001600160a01b031681526020019081526020016000206000820151816000015560208201518160010160006101000a81548160ff02191690831515021790555090505060405180604001604052806905fffd3d6008bdf8000081526020016001151581525060046000737d9cbe258cf00cb71f1d2727904d973f1d93bef76001600160a01b03166001600160a01b031681526020019081526020016000206000820151816000015560208201518160010160006101000a81548160ff02191690831515021790555090505060405180604001604052806909998fa1ea2c869800008152602001600115158152506004600073b273eba808ddfca3987c4784e4302ad4c9b5fc346001600160a01b03166001600160a01b031681526020019081526020016000206000820151816000015560208201518160010160006101000a81548160ff0219169083151502179055509050506040518060400160405280690c7ad18bf2492718000081526020016001151581525060046000730fdb3699b949afae1d800d6c75b47a6b7d953acf6001600160a01b03166001600160a01b031681526020019081526020016000206000820151816000015560208201518160010160006101000a81548160ff02191690831515021790555090505060405180604001604052806905fffd3d6008bdf800008152602001600115158152506004600073d978ddf17af78114bd68ffea615577050bb632e36001600160a01b03166001600160a01b031681526020019081526020016000206000820151816000015560208201518160010160006101000a81548160ff021916908315150217905550905050604051806040016040528068df3cbaede6a298000081526020016001151581525060046000731fa1387ad3b74f0ed8d5312e22906f38bc71f9b06001600160a01b03166001600160a01b031681526020019081526020016000206000820151816000015560208201518160010160006101000a81548160ff02191690831515021790555090505060405180604001604052806902666ad8d5e4f558000081526020016001151581525060046000732504ecb0074f2fa681de512f9ca758e3a1a82df56001600160a01b03166001600160a01b031681526020019081526020016000206000820151816000015560208201518160010160006101000a81548160ff0219169083151502179055509050506040518060400160405280695832139982cf7830000081526020016001151581525060046000735cfa4abd4e01ca3a112313385f607cf616c2ccc26001600160a01b03166001600160a01b031681526020019081526020016000206000820151816000015560208201518160010160006101000a81548160ff02191690831515021790555090505060405180604001604052806902fffe9eb0045efc00008152602001600115158152506004600073ca1f1f49501cae0f8307946ed76cbcdd6d455f626001600160a01b03166001600160a01b031681526020019081526020016000206000820151816000015560208201518160010160006101000a81548160ff02191690831515021790555090505060405180604001604052806909b14e1a818cebb000008152602001600115158152506004600073e436427759511025aebd01e03a3ec929b64be12f6001600160a01b03166001600160a01b031681526020019081526020016000206000820151816000015560208201518160010160006101000a81548160ff0219169083151502179055509050506040518060400160405280690822b2bad36a046c00008152602001600115158152506004600073ea15acc519b4ae874be54fbb89085472d1bff59b6001600160a01b03166001600160a01b031681526020019081526020016000206000820151816000015560208201518160010160006101000a81548160ff0219169083151502179055509050506040518060400160405280690bffec9a095dd48c00008152602001600115158152506004600073971aa0301f24f38221d57b10ad7639e8e240c6b46001600160a01b03166001600160a01b031681526020019081526020016000206000820151816000015560208201518160010160006101000a81548160ff0219169083151502179055509050506040518060400160405280690449c133fee6dc2800008152602001600115158152506004600073483a791b3c628d3aeb46380fe35462cfad04effc6001600160a01b03166001600160a01b031681526020019081526020016000206000820151816000015560208201518160010160006101000a81548160ff0219169083151502179055509050506040518060400160405280691dffd67172c4671000008152602001600115158152506004600073aea79cb822adae9e1a5d5b7fed98847d773fd2fd6001600160a01b03166001600160a01b031681526020019081526020016000206000820151816000015560208201518160010160006101000a81548160ff02191690831515021790555090505060405180604001604052806905fffd3d6008bdf800008152602001600115158152506004600073ed166eaaf27cff1cffc9e7192e88392e85f02eac6001600160a01b03166001600160a01b031681526020019081526020016000206000820151816000015560208201518160010160006101000a81548160ff02191690831515021790555090505060405180604001604052806902fffe9eb0045efc000081526020016001151581525060046000739e3012fc1ca7687a379a442c7bbcee8835f2885a6001600160a01b03166001600160a01b031681526020019081526020016000206000820151816000015560208201518160010160006101000a81548160ff0219169083151502179055509050506040518060400160405280690151f22112da39280000815260200160011515815250600460007390e84f5d85ebe6ad9ec4ad7968a04919df0167a96001600160a01b03166001600160a01b031681526020019081526020016000206000820151816000015560208201518160010160006101000a81548160ff021916908315150217905550905050604051806040016040528069634c3442435c8be000008152602001600115158152506004600073b337c6372c0cd1fef25385c32c128404450f48716001600160a01b03166001600160a01b031681526020019081526020016000206000820151816000015560208201518160010160006101000a81548160ff02191690831515021790555090505060405180604001604052806923ffc5ce1c197da400008152602001600115158152506004600073cc2b0320e322ed9b13e049acf4dddc905c2f75a16001600160a01b03166001600160a01b031681526020019081526020016000206000820151816000015560208201518160010160006101000a81548160ff021916908315150217905550905050604051806040016040528069634c3442435c8be0000081526020016001151581525060046000733d510050fd08bd02c3c91baf5ded5198f4b175fc6001600160a01b03166001600160a01b031681526020019081526020016000206000820151816000015560208201518160010160006101000a81548160ff021916908315150217905550905050604051806040016040528069634c3442435c8be00000815260200160011515815250600460007319c9de3665b7d4f17cc59d87f62476e5aed9076f6001600160a01b03166001600160a01b031681526020019081526020016000206000820151816000015560208201518160010160006101000a81548160ff021916908315150217905550905050604051806040016040528069634c3442435c8be00000815260200160011515815250600460007313327aca5c36fc27a466c7dae72c2e5ef33e7fe56001600160a01b03166001600160a01b031681526020019081526020016000206000820151816000015560208201518160010160006101000a81548160ff0219169083151502179055509050506040518060400160405280693fd11566868013180000815260200160011515815250600460007394c528e0e1fd41874eedf09e2b7381d5ed011e036001600160a01b03166001600160a01b031681526020019081526020016000206000820151816000015560208201518160010160006101000a81548160ff021916908315150217905550905050604051806040016040528069634c3442435c8be00000815260200160011515815250600460007306fb8305ebd40d8c75825ee484bef312172a0d7f6001600160a01b03166001600160a01b031681526020019081526020016000206000820151816000015560208201518160010160006101000a81548160ff021916908315150217905550905050604051806040016040528069634c3442435c8be0000081526020016001151581525060046000732a23ee4d575499ec9ac58dcfd3960c5d3f1f0d3b6001600160a01b03166001600160a01b031681526020019081526020016000206000820151816000015560208201518160010160006101000a81548160ff021916908315150217905550905050604051806040016040528069634c3442435c8be00000815260200160011515815250600460007380627f1b99d5c6d739e940e11914b152157dd1c26001600160a01b03166001600160a01b031681526020019081526020016000206000820151816000015560208201518160010160006101000a81548160ff02191690831515021790555090505060405180604001604052806917ffd93412bba91800008152602001600115158152506004600073cfe8a0410bc17b061005e4f1951c675e17f594f86001600160a01b03166001600160a01b031681526020019081526020016000206000820151816000015560208201518160010160006101000a81548160ff0219169083151502179055509050506040518060400160405280693fd1156686801318000081526020016001151581525060046000730653441ab038d44e1d8c85f1d0d805e8270ffe4f6001600160a01b03166001600160a01b031681526020019081526020016000206000820151816000015560208201518160010160006101000a81548160ff0219169083151502179055509050506040518060400160405280690bffec9a095dd48c00008152602001600115158152506004600073b4eeba989ad41a7fa47d345b39b72eca3008e4906001600160a01b03166001600160a01b031681526020019081526020016000206000820151816000015560208201518160010160006101000a81548160ff021916908315150217905550905050604051806040016040528069634c3442435c8be000008152602001600115158152506004600073233c30557debee2779ac6254d7caf0c523b388316001600160a01b03166001600160a01b031681526020019081526020016000206000820151816000015560208201518160010160006101000a81548160ff021916908315150217905550905050604051806040016040528069634c3442435c8be0000081526020016001151581525060046000733d83e3b60f569e2a8834fdaf6bd3e86147ab3e066001600160a01b03166001600160a01b031681526020019081526020016000206000820151816000015560208201518160010160006101000a81548160ff021916908315150217905550905050604051806040016040528069634c3442435c8be0000081526020016001151581525060046000730162295a8690ba499aa34deb38d50f8dd95c0dcd6001600160a01b03166001600160a01b031681526020019081526020016000206000820151816000015560208201518160010160006101000a81548160ff021916908315150217905550905050604051806040016040528069634c3442435c8be000008152602001600115158152506004600073e4bfb6b246cc2c70028827ba0f093cfb94be65ba6001600160a01b03166001600160a01b031681526020019081526020016000206000820151816000015560208201518160010160006101000a81548160ff02191690831515021790555090505060405180604001604052806917ffd93412bba918000081526020016001151581525060046000733d1b9b4bb59f0cfb9df472a5a484bf6c236cf4af6001600160a01b03166001600160a01b031681526020019081526020016000206000820151816000015560208201518160010160006101000a81548160ff021916908315150217905550905050604051806040016040528069634c3442435c8be000008152602001600115158152506004600073c1464d0922e95e1f8f19fd3fda6b9cb9bf6817356001600160a01b03166001600160a01b031681526020019081526020016000206000820151816000015560208201518160010160006101000a81548160ff0219169083151502179055509050506040518060400160405280690bffec9a095dd48c000081526020016001151581525060046000731128ac0fa232c6697427e3a235284bb81f38d32c6001600160a01b03166001600160a01b031681526020019081526020016000206000820151816000015560208201518160010160006101000a81548160ff0219169083151502179055509050506040518060400160405280693fd1156686801318000081526020016001151581525060046000730f18724c245cb15ea4a1efccdfbcb23f8fc1fb796001600160a01b03166001600160a01b031681526020019081526020016000206000820151816000015560208201518160010160006101000a81548160ff021916908315150217905550905050604051806040016040528069634c3442435c8be0000081526020016001151581525060046000739f9f0fadf9974252ef624a68b23ab1cc5a8b240c6001600160a01b03166001600160a01b031681526020019081526020016000206000820151816000015560208201518160010160006101000a81548160ff021916908315150217905550905050604051806040016040528069634c3442435c8be000008152602001600115158152506004600073d20b976584bf506baf5cc604d1f0a1b8d07138da6001600160a01b03166001600160a01b031681526020019081526020016000206000820151816000015560208201518160010160006101000a81548160ff0219169083151502179055509050506040518060400160405280695b1dcbed485d4b14000081526020016001151581525060046000739a39a3a32a2726d5202da9b9ac04c6125a29d1ef6001600160a01b03166001600160a01b031681526020019081526020016000206000820151816000015560208201518160010160006101000a81548160ff021916908315150217905550905050604051806040016040528069634c3442435c8be000008152602001600115158152506004600073db1326adedf62a7da0d6f0917c51148fe7bda7ca6001600160a01b03166001600160a01b031681526020019081526020016000206000820151816000015560208201518160010160006101000a81548160ff0219169083151502179055509050506040518060400160405280693bff9f022ed526bc00008152602001600115158152506004600073e2041def046f48c0c5b21d0aa80204e98287e7aa6001600160a01b03166001600160a01b031681526020019081526020016000206000820151816000015560208201518160010160006101000a81548160ff021916908315150217905550905050604051806040016040528069634c3442435c8be000008152602001600115158152506004600073d7e0944b3166e0b7e4c3616d0c13a2fc5627cfa56001600160a01b03166001600160a01b031681526020019081526020016000206000820151816000015560208201518160010160006101000a81548160ff02191690831515021790555090505060405180604001604052806947ff8b9c3832fb4800008152602001600115158152506004600073ac9e75eb70cbda1295c274a608ee5129475ee7e46001600160a01b03166001600160a01b031681526020019081526020016000206000820151816000015560208201518160010160006101000a81548160ff021916908315150217905550905050604051806040016040528069634c3442435c8be000008152602001600115158152506004600073817a8f3faa84dfb8927b4e8cb5c606f19f5edcc16001600160a01b03166001600160a01b031681526020019081526020016000206000820151816000015560208201518160010160006101000a81548160ff021916908315150217905550905050604051806040016040528069634c3442435c8be00000815260200160011515815250600460007371601eaefcbd2e1885345cd326eb17d511efaf296001600160a01b03166001600160a01b031681526020019081526020016000206000820151816000015560208201518160010160006101000a81548160ff0219169083151502179055509050506040518060400160405280693fd1156686801318000081526020016001151581525060046000738bb8fc2ae445630485394929aecf09386cf683896001600160a01b03166001600160a01b031681526020019081526020016000206000820151816000015560208201518160010160006101000a81548160ff0219169083151502179055509050506040518060400160405280690bffec9a095dd48c00008152602001600115158152506004600073e9e753172ab676e76b5f289b55b8b79ce922f0666001600160a01b03166001600160a01b031681526020019081526020016000206000820151816000015560208201518160010160006101000a81548160ff0219169083151502179055509050506040518060400160405280693fd1156686801318000081526020016001151581525060046000731d1653a4f05abc69ee1d995624ab5f004a0b38a26001600160a01b03166001600160a01b031681526020019081526020016000206000820151816000015560208201518160010160006101000a81548160ff0219169083151502179055509050506040518060400160405280697cb20e5f789a5ca800008152602001600115158152506004600073720ba4fbbddb0a5281b4bb509905c03074e0386b6001600160a01b03166001600160a01b031681526020019081526020016000206000820151816000015560208201518160010160006101000a81548160ff0219169083151502179055509050506001600760006101000a81548160ff021916908315150217905550565b6001600160a01b0381168114610b6457600080fd5b600080604083850312156156b857600080fd5b82356156c381615690565b946020939093013593505050565b6000602082840312156156e357600080fd5b81356156ee81615690565b9392505050565b6020808252601c908201527b436f6e7472616374206973206e6f7420696e697469616c697a65642160201b604082015260600190565b60208082526018908201527718d85b1b195c881a5cc81b9bdd08185d5d1a1bdc9a5e995960421b604082015260600190565b634e487b7160e01b600052601160045260246000fd5b600082198211156157865761578661575d565b500190565b6020808252818101527f4f776e61626c653a2063616c6c6572206973206e6f7420746865206f776e6572604082015260600190565b6020808252601b908201527a546f6b656e20636c61696d206973206e6f7420737461727465642160281b604082015260600190565b6020808252601d908201527f436f6e747261637420616c726561647920696e697469616c697a656421000000604082015260600190565b60008282101561583e5761583e61575d565b50039056fe3f94a10a68cdc9fb14d74dc214cafe41515ed44b54494d7c2f5b420c038537b237e03db6e06fbc3f4183807b03ddcf6f8a2f4c2eaf6ce667597ea109ca9721eba26469706673582212203eec2ca74d9278ec86539ca24e832aeb2a6921e67c6d8417b9719ce417cf798964736f6c634300080d0033",
  "immutableReferences": {},
  "source": "// SPDX-License-Identifier: MIT\r\n\r\npragma solidity 0.8.13;\r\n\r\nimport \"@openzeppelin/contracts/token/ERC20/IERC20.sol\";\r\nimport \"@openzeppelin/contracts/access/Ownable.sol\";\r\nimport \"@openzeppelin/contracts/security/ReentrancyGuard.sol\";\r\n\r\nimport \"./Authorizable.sol\";\r\nimport \"./IvEvoToken.sol\";\r\n\r\n/**\r\n * @author EvoVerses\r\n * @title claimVEvoToken\r\n */\r\n\r\n/*\r\n * This contract allows whitelisted addresses to claim vEVO token (vested version of the EVO token).\r\n * They will be able to claim only the allowed amount.\r\n */\r\n\r\ncontract claimVEvoToken is Ownable, Authorizable, ReentrancyGuard {\r\n    // Structs\r\n    struct User {\r\n        uint256 amount;\r\n        bool valid;\r\n    }\r\n    //\r\n\r\n    IERC20 private _vEvoToken;\r\n    mapping(address => User) public userClaimable;\r\n    bool public isClaimEnabled;\r\n    bool isInitialized;\r\n    uint256 public totalClaimedTokens;\r\n    // Probably not necessary\r\n    bool public isWhitelistInitialized;\r\n\r\n    // Events\r\n    event UpdateUserClaimable(address indexed addr, uint256 amount);\r\n    event UpdateTokenClaimEvent(bool status);\r\n    event UserClaimedTokens(address indexed addr, uint256 amount);\r\n    event UpdateTotalClaimedTokens(uint256 amount);\r\n    //\r\n\r\n    // Modifiers\r\n    modifier onlyWhitelisted() {\r\n        require(\r\n            userClaimable[msg.sender].valid == true,\r\n            \"User is not from the private sale!\"\r\n        );\r\n        _;\r\n    }\r\n\r\n    modifier hasTokensLeft() {\r\n        require(\r\n            userClaimable[msg.sender].amount > 0,\r\n            \"User has not claimable tokens left!\"\r\n        );\r\n        _;\r\n    }\r\n\r\n    modifier onlyWithClaimEnabled() {\r\n        require(isClaimEnabled == true, \"Token claim is not started!\");\r\n        _;\r\n    }\r\n\r\n    modifier onlyIfNoInitialized() {\r\n        require(isInitialized == false, \"Contract already initialized!\");\r\n        _;\r\n    }\r\n\r\n    modifier onlyIfInitialized() {\r\n        require(isInitialized == true, \"Contract is not initialized!\");\r\n        _;\r\n    }\r\n\r\n    //\r\n\r\n    constructor() Ownable() {\r\n        isInitialized = false;\r\n    }\r\n\r\n    function initialize(IERC20 vEvoToken)\r\n        public\r\n        onlyAuthorized\r\n        onlyIfNoInitialized\r\n    {\r\n        _vEvoToken = vEvoToken;\r\n        isWhitelistInitialized = false;\r\n        isClaimEnabled = false;\r\n        totalClaimedTokens = 0;\r\n        _initializeWhitelist();\r\n        isInitialized = true;\r\n    }\r\n\r\n    function enableTokenClaimEvent() public onlyIfInitialized onlyAuthorized {\r\n        isClaimEnabled = true;\r\n        emit UpdateTokenClaimEvent(true);\r\n    }\r\n\r\n    function disableTokenClaimEvent() public onlyIfInitialized onlyAuthorized {\r\n        isClaimEnabled = false;\r\n        emit UpdateTokenClaimEvent(false);\r\n    }\r\n\r\n    function hasClaimable()\r\n        public\r\n        view\r\n        onlyIfInitialized\r\n        onlyWithClaimEnabled\r\n        returns (uint256)\r\n    {\r\n        address _user = msg.sender;\r\n        uint256 _retAmount = 0;\r\n\r\n        if (userClaimable[_user].valid) {\r\n            return userClaimable[_user].amount;\r\n        }\r\n\r\n        return _retAmount;\r\n    }\r\n\r\n    function claim()\r\n        public\r\n        onlyIfInitialized\r\n        onlyWithClaimEnabled\r\n        onlyWhitelisted\r\n        hasTokensLeft\r\n        nonReentrant\r\n    {\r\n        // If we enter here, the user is whitelisted and has tokens left and the claim event is running\r\n        address _user = msg.sender;\r\n        uint256 _claimableAmount = userClaimable[_user].amount;\r\n        userClaimable[_user].amount = 0;\r\n        totalClaimedTokens = totalClaimedTokens + _claimableAmount;\r\n        emit UpdateTotalClaimedTokens(totalClaimedTokens);\r\n        IvEvoToken(address(_vEvoToken)).mintTokenFor(_user, _claimableAmount);\r\n        emit UserClaimedTokens(_user, _claimableAmount);\r\n    }\r\n\r\n    function addToWhitelist(address addr, uint256 amount)\r\n        external\r\n        onlyIfInitialized\r\n        onlyAuthorized\r\n    {\r\n        // We probably should enter more validations here but since it will be run only by the owner...\r\n        if (userClaimable[addr].valid) {\r\n            // We have already whitelisted this one, but we might increase its whitelisted amount\r\n            userClaimable[addr].amount = userClaimable[addr].amount + amount;\r\n        } else {\r\n            // The user is not in the whitelist\r\n            userClaimable[addr] = User(amount, true);\r\n        }\r\n        emit UpdateUserClaimable(addr, userClaimable[addr].amount);\r\n    }\r\n\r\n    function removeFromWhitelist(address addr, uint256 amount)\r\n        external\r\n        onlyIfInitialized\r\n        onlyAuthorized\r\n    {\r\n        // We probably should enter more validations here but since it will be run only by the owner...\r\n        require(\r\n            userClaimable[addr].valid == true,\r\n            \"User is not in the whitelist!\"\r\n        );\r\n\r\n        // User is in the whitelist!\r\n        if (amount > userClaimable[addr].amount) {\r\n            userClaimable[addr].amount = 0;\r\n        } else {\r\n            userClaimable[addr].amount = userClaimable[addr].amount - amount;\r\n        }\r\n        emit UpdateUserClaimable(addr, userClaimable[addr].amount);\r\n    }\r\n\r\n    function _initializeWhitelist() private onlyIfNoInitialized onlyAuthorized {\r\n        require(\r\n            isWhitelistInitialized == false,\r\n            \"Whitelist is already initialized!\"\r\n        );\r\n\r\n        userClaimable[\r\n            address(0x784ca853277fe20b17c06C63958ADd91b047c166)\r\n        ] = User(28334 * (10**18), true);\r\n        userClaimable[\r\n            address(0x5560ea6c7f764bC49688E168A19B035c99EfA2cE)\r\n        ] = User(56667 * (10**18), true);\r\n        userClaimable[\r\n            address(0x0e97D72a5f07e288AaB1aBe66F831bE64C7853B1)\r\n        ] = User(11334 * (10**18), true);\r\n        userClaimable[\r\n            address(0xe9E0f19A41B3972383B603B667950e8fa603600E)\r\n        ] = User(56667 * (10**18), true);\r\n        userClaimable[\r\n            address(0x50aE5984f31ea1cD581D9883E3BEa971A3754946)\r\n        ] = User(25513 * (10**18), true);\r\n        userClaimable[\r\n            address(0xe0AB50Bb4EeB58DD8D1F0D8B758f7D573d06BA26)\r\n        ] = User(42501 * (10**18), true);\r\n        userClaimable[\r\n            address(0x162d0A0f7290e8fc983698D53D3Efe4Ba7F4499f)\r\n        ] = User(51001 * (10**18), true);\r\n        userClaimable[\r\n            address(0x41f20d9B73b0c0A473a0804cfA90016e2D66C0F9)\r\n        ] = User(15584 * (10**18), true);\r\n        userClaimable[\r\n            address(0x2a74b4e05BB82C03c17FaDd73b13F5b651597E65)\r\n        ] = User(56724 * (10**18), true);\r\n        userClaimable[\r\n            address(0x366Ec35fe5f667762B4cC21Fcc65B55EFb39691E)\r\n        ] = User(11447 * (10**18), true);\r\n        userClaimable[\r\n            address(0xEC8D43b6982daC8DfFC1294d79e494aABEE743eA)\r\n        ] = User(22667 * (10**18), true);\r\n        userClaimable[\r\n            address(0x0767b2Bc858E6089EA52539842e649Ec88680721)\r\n        ] = User(566669 * (10**18), true);\r\n        userClaimable[\r\n            address(0x8F7464F8115E50b152d04c5Be35d25b5d7d3C3de)\r\n        ] = User(56667 * (10**18), true);\r\n        userClaimable[\r\n            address(0x0B509B48DD857a27811E97324F360b1d044077d6)\r\n        ] = User(42501 * (10**18), true);\r\n        userClaimable[\r\n            address(0xc045dc7d059ad101691C545c319a496c703894b3)\r\n        ] = User(56667 * (10**18), true);\r\n        userClaimable[\r\n            address(0x94B56330aE10dcf0463660Cc8A4ae06C1Fa13159)\r\n        ] = User(113334 * (10**18), true);\r\n        userClaimable[\r\n            address(0xcBCcA505aA6908cD6Fbd4e78064A0a68B7DC10Cc)\r\n        ] = User(28334 * (10**18), true);\r\n        userClaimable[\r\n            address(0xB61dfCb9379027254ba458eE18FFB0F9cE25D088)\r\n        ] = User(5667 * (10**18), true);\r\n        userClaimable[\r\n            address(0x37732d06BA9fC502fCC51069F9938Fc5E6BC781F)\r\n        ] = User(11334 * (10**18), true);\r\n        userClaimable[\r\n            address(0x8D661227A1e671780f71bFdbC83A2a9b80c3A1Fb)\r\n        ] = User(56667 * (10**18), true);\r\n        userClaimable[\r\n            address(0xcC852b08EF9bED533e63DE253D9d15cD865Bac5d)\r\n        ] = User(42501 * (10**18), true);\r\n        userClaimable[\r\n            address(0x989f4C3181a64aa7d52d400c7c245b6384cAb4EA)\r\n        ] = User(11334 * (10**18), true);\r\n        userClaimable[\r\n            address(0xE54503E19133976141618b00Dfc894c35A73D5fd)\r\n        ] = User(30657 * (10**18), true);\r\n        userClaimable[\r\n            address(0x640F5fb43aEfcE2b4A3c22F204862723Bb08e6EB)\r\n        ] = User(28334 * (10**18), true);\r\n        userClaimable[\r\n            address(0x1b3cf414fdcD12B71Df6A9c6b1741A5128EA3dc8)\r\n        ] = User(5877 * (10**18), true);\r\n        userClaimable[\r\n            address(0x993beAFe52055532E95999ccEf6E8F226efD9809)\r\n        ] = User(13076 * (10**18), true);\r\n        userClaimable[\r\n            address(0x343f50d9C79a78008283A3b109DE97f3fd738F1C)\r\n        ] = User(28334 * (10**18), true);\r\n        userClaimable[\r\n            address(0x87e3C488D2183aCdb4e9b33D905E3086faeC33a8)\r\n        ] = User(34378 * (10**18), true);\r\n        userClaimable[\r\n            address(0x7b32fC6E42150b0316b2c7E6C913FFf944f873dB)\r\n        ] = User(56667 * (10**18), true);\r\n        userClaimable[\r\n            address(0xEaA91737c1F7Ee983FbC90177DDf4388f90a4BC3)\r\n        ] = User(8501 * (10**18), true);\r\n        userClaimable[\r\n            address(0x2F3059dbfbb208cD6027fd2ea7650179a138e1e4)\r\n        ] = User(28334 * (10**18), true);\r\n        userClaimable[\r\n            address(0xa29938d059664F7bCa45E2188E0B5604F3c16fa6)\r\n        ] = User(6064 * (10**18), true);\r\n        userClaimable[\r\n            address(0xCb67fEFFA39792fe2769796b2407d851faAff9ca)\r\n        ] = User(28334 * (10**18), true);\r\n        userClaimable[\r\n            address(0xA3bbd6478F9c5f8d940e1ccAD14c6335526E448a)\r\n        ] = User(14167 * (10**18), true);\r\n        userClaimable[\r\n            address(0xeadCe7a42F0A03A12AB599e4abE199abBe4F75eB)\r\n        ] = User(34004 * (10**18), true);\r\n        userClaimable[\r\n            address(0xc2893e25d477610db55A2806EB36a830fF520052)\r\n        ] = User(91976 * (10**18), true);\r\n        userClaimable[\r\n            address(0xef75137087a65F4fFB4FC9159E588Adbe5aEc4f6)\r\n        ] = User(34001 * (10**18), true);\r\n        userClaimable[\r\n            address(0xF96E38BcE53dbbaa6CB16E7A48c481CB7A97f61E)\r\n        ] = User(85001 * (10**18), true);\r\n        userClaimable[\r\n            address(0xb0268ea1b14941daF20B3b446f7Dc93b9Cef2b76)\r\n        ] = User(14167 * (10**18), true);\r\n        userClaimable[\r\n            address(0x5361dea02D6C759B89aA1ee92bA675CeDfa11ba6)\r\n        ] = User(28334 * (10**18), true);\r\n        userClaimable[\r\n            address(0xB43eDF919Ea51ae7Eae0AB7c7a28E530AabB6d65)\r\n        ] = User(90969 * (10**18), true);\r\n        userClaimable[\r\n            address(0x424d6e09C17898E5A7E22Fd1BA7428C3a4960d36)\r\n        ] = User(42501 * (10**18), true);\r\n        userClaimable[\r\n            address(0xA9BC50B12CaE600fEb52266C85E1bfDd94CA5713)\r\n        ] = User(55924 * (10**18), true);\r\n        userClaimable[\r\n            address(0x7076b74fE5C5D5d3a786B08208924C0d3bd77fA3)\r\n        ] = User(17077 * (10**18), true);\r\n        userClaimable[\r\n            address(0x7e3d993a8d63c25D1db5F7FF8a8d6C59091003b1)\r\n        ] = User(14167 * (10**18), true);\r\n        userClaimable[\r\n            address(0xa66e2A7BE720C52476c3765421c57860386bb31e)\r\n        ] = User(11334 * (10**18), true);\r\n        userClaimable[\r\n            address(0xB338f54a9406ae1d9ae3a71e2588aB9bf3F9624d)\r\n        ] = User(28334 * (10**18), true);\r\n        userClaimable[\r\n            address(0xC35D62CE9D648Fb2Fdc70E63e9Ef06B4eA2EA315)\r\n        ] = User(5705 * (10**18), true);\r\n        userClaimable[\r\n            address(0x3f0D41D25467e9d187B9ce9cB280d1b4665b4e5B)\r\n        ] = User(141668 * (10**18), true);\r\n        userClaimable[\r\n            address(0x43Fb8bC112fc097EA2C6208f4Ba0ba7eD236be36)\r\n        ] = User(14167 * (10**18), true);\r\n        userClaimable[\r\n            address(0x4E86F05a35Dddb0d8d81B66B8f1398DA392AABbc)\r\n        ] = User(42501 * (10**18), true);\r\n        userClaimable[\r\n            address(0x5134B770b0DaF559E231aB33Ebd7e5CB9Fc1837b)\r\n        ] = User(8501 * (10**18), true);\r\n        userClaimable[\r\n            address(0xCbBa166Af38118E61729e5dC105dBAf4F2948Cd0)\r\n        ] = User(118856 * (10**18), true);\r\n        userClaimable[\r\n            address(0x6322E80EA0e481Db7741bf21259EdD678250164a)\r\n        ] = User(46090 * (10**18), true);\r\n        userClaimable[\r\n            address(0xE49EC5d3991D69EC8D3e14Bee71cE5E11100583d)\r\n        ] = User(16835 * (10**18), true);\r\n        userClaimable[\r\n            address(0x9dF9589f197DACEC2f41E1844F44858C1C90D9a9)\r\n        ] = User(56667 * (10**18), true);\r\n        userClaimable[\r\n            address(0xC00Faf1EBcdEDae0C2a50892Aca58A028b9eefcB)\r\n        ] = User(28334 * (10**18), true);\r\n        userClaimable[\r\n            address(0x68B6388f57CF22d19F84e7e9BB85907005Ee80dA)\r\n        ] = User(56667 * (10**18), true);\r\n        userClaimable[\r\n            address(0xb51428EB18eE4504E2b084a6c16F27Dc2Fef3C58)\r\n        ] = User(31111 * (10**18), true);\r\n        userClaimable[\r\n            address(0x8a8FFf1B41583759b60c6aA2CB45cC4B7a546687)\r\n        ] = User(48167 * (10**18), true);\r\n        userClaimable[\r\n            address(0x2a574DA84838a051aC65ef69cA1381809B6077cE)\r\n        ] = User(45334 * (10**18), true);\r\n        userClaimable[\r\n            address(0x213dA5859dDfD7B0291DC27bC9A44482Eb494cFF)\r\n        ] = User(28334 * (10**18), true);\r\n        userClaimable[\r\n            address(0xB3Fa357917C25C3169c59865974330dADA76e5Bc)\r\n        ] = User(8501 * (10**18), true);\r\n        userClaimable[\r\n            address(0x9b110CCfC441bEdae0557eff13e2439B824046f7)\r\n        ] = User(31167 * (10**18), true);\r\n        userClaimable[\r\n            address(0xE1E639EB7Fe8a7C959085fA9536E6986889681C5)\r\n        ] = User(28334 * (10**18), true);\r\n        userClaimable[\r\n            address(0x3B6DC3415F527Fddfaade9756aEf4A9E50D80694)\r\n        ] = User(5667 * (10**18), true);\r\n        userClaimable[\r\n            address(0x2D6b080F8460aD3cA94447AFD3C5493c28b4D3e4)\r\n        ] = User(90667 * (10**18), true);\r\n        userClaimable[\r\n            address(0x7d0C0614086210352D019CeadeF49797735434B2)\r\n        ] = User(11334 * (10**18), true);\r\n        userClaimable[\r\n            address(0x876a6dA1059e003743c70772B706F30C9AdcF0F4)\r\n        ] = User(28334 * (10**18), true);\r\n        userClaimable[\r\n            address(0x91FABF1D77db0a69C46fda69A779ac7a801a9e83)\r\n        ] = User(14167 * (10**18), true);\r\n        userClaimable[\r\n            address(0xc6F6A387aFE4E5AA87e8f3b7EE708c8ED809A7DC)\r\n        ] = User(14167 * (10**18), true);\r\n        userClaimable[\r\n            address(0x1F9b46626b67Ae43A8eA52BE6AF8dBB5C3455AFe)\r\n        ] = User(28334 * (10**18), true);\r\n        userClaimable[\r\n            address(0x1085a4AB9053dE45F185490A0eCF3D3769509Be0)\r\n        ] = User(32208 * (10**18), true);\r\n        userClaimable[\r\n            address(0xEA0099779119773e19d144849556027Ec5d92e1D)\r\n        ] = User(56667 * (10**18), true);\r\n        userClaimable[\r\n            address(0x8722EcC4d654c566449Cc9ae2b06e2613DC1e8fD)\r\n        ] = User(42501 * (10**18), true);\r\n        userClaimable[\r\n            address(0xAc002B284Ed0eaC4c56Dc861128d39BEB8E550FA)\r\n        ] = User(14167 * (10**18), true);\r\n        userClaimable[\r\n            address(0x49eFE190DF1c6A4d0eb4a87cC7A19e7168697D4f)\r\n        ] = User(56667 * (10**18), true);\r\n        userClaimable[\r\n            address(0x035a3f409119aa2FD2Fac3973eC66dd12fbBAa3d)\r\n        ] = User(85001 * (10**18), true);\r\n        userClaimable[\r\n            address(0x12e350241C6a6D9926Ce8b64939cd5Fc7CA26ecc)\r\n        ] = User(56667 * (10**18), true);\r\n        userClaimable[\r\n            address(0x58533FaFbFc8164140724eC688275DE5aAFd5D84)\r\n        ] = User(56667 * (10**18), true);\r\n        userClaimable[\r\n            address(0x51e625291c9044cD4D57ab28916347b8EdC6afE2)\r\n        ] = User(19834 * (10**18), true);\r\n        userClaimable[\r\n            address(0x7D660eaCA94e0c51e308207d697d71CBBeC27aC9)\r\n        ] = User(28354 * (10**18), true);\r\n        userClaimable[\r\n            address(0xeAB6f230939b7478B8F439f3b852547b0590cF05)\r\n        ] = User(56667 * (10**18), true);\r\n        userClaimable[\r\n            address(0x5fFDFFa9a30B05afcfd5305475ac3F0a428ED488)\r\n        ] = User(56667 * (10**18), true);\r\n        userClaimable[\r\n            address(0x4b602C4883bd91C4d7bD81dCbf39fD16Bad97135)\r\n        ] = User(28334 * (10**18), true);\r\n        userClaimable[\r\n            address(0x48c997385113c6b3e483D56B1b7A566d5f19300a)\r\n        ] = User(16842 * (10**18), true);\r\n        userClaimable[\r\n            address(0x45CA80065B86A1bc905007Fc833bA43446c3Cfc0)\r\n        ] = User(28334 * (10**18), true);\r\n        userClaimable[\r\n            address(0x305d7517e75C492Da4729249aE21581ffAfa8036)\r\n        ] = User(28334 * (10**18), true);\r\n        userClaimable[\r\n            address(0xAF85D230901E10DD023C32c293E81C91BF508740)\r\n        ] = User(70834 * (10**18), true);\r\n        userClaimable[\r\n            address(0x7D9Cbe258cF00CB71F1d2727904d973f1D93Bef7)\r\n        ] = User(28334 * (10**18), true);\r\n        userClaimable[\r\n            address(0xb273EBA808DDFca3987C4784E4302AD4C9b5Fc34)\r\n        ] = User(45334 * (10**18), true);\r\n        userClaimable[\r\n            address(0x0FdB3699B949Afae1d800D6c75B47A6b7d953aCf)\r\n        ] = User(58934 * (10**18), true);\r\n        userClaimable[\r\n            address(0xD978ddF17Af78114Bd68fFea615577050BB632E3)\r\n        ] = User(28334 * (10**18), true);\r\n        userClaimable[\r\n            address(0x1Fa1387Ad3B74f0ED8d5312e22906f38bC71f9b0)\r\n        ] = User(4118 * (10**18), true);\r\n        userClaimable[\r\n            address(0x2504ecb0074F2Fa681DE512F9Ca758e3a1A82Df5)\r\n        ] = User(11334 * (10**18), true);\r\n        userClaimable[\r\n            address(0x5cFa4AbD4e01cA3A112313385F607CF616c2CCc2)\r\n        ] = User(416492 * (10**18), true);\r\n        userClaimable[\r\n            address(0xCA1F1f49501cae0F8307946ED76cBCDd6D455F62)\r\n        ] = User(14167 * (10**18), true);\r\n        userClaimable[\r\n            address(0xe436427759511025AEbD01E03a3eC929B64BE12f)\r\n        ] = User(45772 * (10**18), true);\r\n        userClaimable[\r\n            address(0xEa15AcC519B4ae874BE54fbb89085472d1bFf59b)\r\n        ] = User(38419 * (10**18), true);\r\n        userClaimable[\r\n            address(0x971aA0301F24F38221D57B10Ad7639E8e240C6b4)\r\n        ] = User(56667 * (10**18), true);\r\n        userClaimable[\r\n            address(0x483a791B3c628d3aeB46380fe35462CFad04effC)\r\n        ] = User(20250 * (10**18), true);\r\n        userClaimable[\r\n            address(0xaEa79CB822adae9E1a5D5B7fEd98847d773fd2fD)\r\n        ] = User(141668 * (10**18), true);\r\n        userClaimable[\r\n            address(0xeD166EaaF27cfF1cFFc9e7192e88392e85F02EaC)\r\n        ] = User(28334 * (10**18), true);\r\n        userClaimable[\r\n            address(0x9E3012FC1Ca7687a379a442C7BbcEE8835f2885a)\r\n        ] = User(14167 * (10**18), true);\r\n        userClaimable[\r\n            address(0x90e84F5d85EBe6Ad9eC4Ad7968A04919dF0167A9)\r\n        ] = User(6234 * (10**18), true);\r\n\r\n        //\r\n\r\n        userClaimable[\r\n            address(0xb337c6372C0cd1feF25385C32c128404450f4871)\r\n        ] = User(468920 * (10**18), true);\r\n        userClaimable[\r\n            address(0xcC2B0320e322Ed9B13E049ACF4DdDC905C2f75A1)\r\n        ] = User(170001 * (10**18), true);\r\n        userClaimable[\r\n            address(0x3D510050fD08bD02C3C91baf5Ded5198F4b175fc)\r\n        ] = User(468920 * (10**18), true);\r\n        userClaimable[\r\n            address(0x19c9DE3665b7D4f17Cc59D87F62476E5aeD9076f)\r\n        ] = User(468920 * (10**18), true);\r\n        userClaimable[\r\n            address(0x13327AcA5c36fC27A466C7DAE72C2E5eF33E7fE5)\r\n        ] = User(468920 * (10**18), true);\r\n        userClaimable[\r\n            address(0x94c528E0e1FD41874EeDF09e2b7381D5eD011e03)\r\n        ] = User(301366 * (10**18), true);\r\n        userClaimable[\r\n            address(0x06fB8305ebD40D8c75825Ee484BEf312172a0D7F)\r\n        ] = User(468920 * (10**18), true);\r\n        userClaimable[\r\n            address(0x2a23Ee4D575499ec9AC58dCfD3960C5D3f1F0d3B)\r\n        ] = User(468920 * (10**18), true);\r\n        userClaimable[\r\n            address(0x80627F1b99D5C6D739e940E11914B152157DD1c2)\r\n        ] = User(468920 * (10**18), true);\r\n        userClaimable[\r\n            address(0xCFE8a0410Bc17B061005e4f1951C675e17f594f8)\r\n        ] = User(113334 * (10**18), true);\r\n        userClaimable[\r\n            address(0x0653441ab038D44E1D8C85f1d0D805e8270FFe4f)\r\n        ] = User(301366 * (10**18), true);\r\n        userClaimable[\r\n            address(0xB4eEBa989aD41A7fa47D345B39b72ecA3008E490)\r\n        ] = User(56667 * (10**18), true);\r\n        userClaimable[\r\n            address(0x233C30557DebEe2779ac6254D7caF0c523B38831)\r\n        ] = User(468920 * (10**18), true);\r\n        userClaimable[\r\n            address(0x3d83e3b60f569E2A8834FdAf6bd3e86147AB3e06)\r\n        ] = User(468920 * (10**18), true);\r\n        userClaimable[\r\n            address(0x0162295a8690ba499Aa34DEb38D50f8DD95C0Dcd)\r\n        ] = User(468920 * (10**18), true);\r\n        userClaimable[\r\n            address(0xE4bfB6B246CC2C70028827ba0f093CFb94be65Ba)\r\n        ] = User(468920 * (10**18), true);\r\n        userClaimable[\r\n            address(0x3D1B9b4bb59F0Cfb9dF472a5A484bF6C236cF4Af)\r\n        ] = User(113334 * (10**18), true);\r\n        userClaimable[\r\n            address(0xC1464d0922e95e1F8f19Fd3fDa6b9CB9BF681735)\r\n        ] = User(468920 * (10**18), true);\r\n        userClaimable[\r\n            address(0x1128aC0Fa232c6697427e3A235284bb81F38d32c)\r\n        ] = User(56667 * (10**18), true);\r\n        userClaimable[\r\n            address(0x0f18724c245cB15Ea4a1EFCcdfbcB23F8fc1FB79)\r\n        ] = User(301366 * (10**18), true);\r\n        userClaimable[\r\n            address(0x9f9F0fAdf9974252Ef624A68B23Ab1cc5A8b240c)\r\n        ] = User(468920 * (10**18), true);\r\n        userClaimable[\r\n            address(0xD20B976584bF506BAf5cC604D1f0A1B8D07138dA)\r\n        ] = User(468920 * (10**18), true);\r\n        userClaimable[\r\n            address(0x9A39A3A32a2726D5202da9b9Ac04c6125A29D1Ef)\r\n        ] = User(430285 * (10**18), true);\r\n        userClaimable[\r\n            address(0xDb1326AdEdf62A7DA0D6f0917c51148FE7Bda7Ca)\r\n        ] = User(468920 * (10**18), true);\r\n        userClaimable[\r\n            address(0xe2041dEF046f48c0c5b21D0aa80204e98287e7aa)\r\n        ] = User(283335 * (10**18), true);\r\n        userClaimable[\r\n            address(0xd7E0944b3166E0b7e4c3616d0c13A2fC5627cFA5)\r\n        ] = User(468920 * (10**18), true);\r\n        userClaimable[\r\n            address(0xAC9E75EB70CBDA1295c274A608Ee5129475ee7e4)\r\n        ] = User(340002 * (10**18), true);\r\n        userClaimable[\r\n            address(0x817a8f3faA84DFB8927b4E8cb5C606F19f5eDcc1)\r\n        ] = User(468920 * (10**18), true);\r\n        userClaimable[\r\n            address(0x71601eaeFCbD2E1885345CD326eB17d511EFAf29)\r\n        ] = User(468920 * (10**18), true);\r\n        userClaimable[\r\n            address(0x8bb8FC2aE445630485394929aECf09386cF68389)\r\n        ] = User(301366 * (10**18), true);\r\n        userClaimable[\r\n            address(0xE9e753172AB676E76b5F289B55B8B79CE922F066)\r\n        ] = User(56667 * (10**18), true);\r\n        userClaimable[\r\n            address(0x1d1653A4F05abC69EE1D995624AB5F004a0b38a2)\r\n        ] = User(301366 * (10**18), true);\r\n        userClaimable[\r\n            address(0x720BA4FBbdDb0A5281B4bb509905C03074E0386B)\r\n        ] = User(588858 * (10**18), true);\r\n\r\n        isWhitelistInitialized = true;\r\n    }\r\n}\r\n",
  "sourcePath": "D:\\Projects\\EvoVerses\\contracts\\contracts\\claimVEvoToken.sol",
  "compiler": {
    "name": "solc",
    "version": "0.8.13+commit.abaa5c0e.Emscripten.clang"
  },
  "schemaVersion": "3.4.6",
  "updatedAt": "2022-04-05T16:58:46.793Z",
  "networkType": "ethereum",
  "devdoc": {
    "author": "EvoVerses",
    "kind": "dev",
    "methods": {
      "owner()": {
        "details": "Returns the address of the current owner."
      },
      "renounceOwnership()": {
        "details": "Leaves the contract without owner. It will not be possible to call `onlyOwner` functions anymore. Can only be called by the current owner. NOTE: Renouncing ownership will leave the contract without an owner, thereby removing any functionality that is only available to the owner."
      },
      "transferOwnership(address)": {
        "details": "Transfers ownership of the contract to a new account (`newOwner`). Can only be called by the current owner."
      }
    },
    "title": "claimVEvoToken",
    "version": 1
  },
  "userdoc": {
    "kind": "user",
    "methods": {},
    "version": 1
  }
}