{
  "contractName": "EvoToken",
  "abi": [
    {
      "anonymous": false,
      "inputs": [
        {
          "indexed": true,
          "internalType": "address",
          "name": "owner",
          "type": "address"
        },
        {
          "indexed": true,
          "internalType": "address",
          "name": "spender",
          "type": "address"
        },
        {
          "indexed": false,
          "internalType": "uint256",
          "name": "value",
          "type": "uint256"
        }
      ],
      "name": "Approval",
      "type": "event"
    },
    {
      "anonymous": false,
      "inputs": [
        {
          "indexed": true,
          "internalType": "address",
          "name": "delegator",
          "type": "address"
        },
        {
          "indexed": true,
          "internalType": "address",
          "name": "fromDelegate",
          "type": "address"
        },
        {
          "indexed": true,
          "internalType": "address",
          "name": "toDelegate",
          "type": "address"
        }
      ],
      "name": "DelegateChanged",
      "type": "event"
    },
    {
      "anonymous": false,
      "inputs": [
        {
          "indexed": true,
          "internalType": "address",
          "name": "delegate",
          "type": "address"
        },
        {
          "indexed": false,
          "internalType": "uint256",
          "name": "previousBalance",
          "type": "uint256"
        },
        {
          "indexed": false,
          "internalType": "uint256",
          "name": "newBalance",
          "type": "uint256"
        }
      ],
      "name": "DelegateVotesChanged",
      "type": "event"
    },
    {
      "anonymous": false,
      "inputs": [
        {
          "indexed": true,
          "internalType": "address",
          "name": "to",
          "type": "address"
        },
        {
          "indexed": false,
          "internalType": "uint256",
          "name": "value",
          "type": "uint256"
        }
      ],
      "name": "Lock",
      "type": "event"
    },
    {
      "anonymous": false,
      "inputs": [
        {
          "indexed": false,
          "internalType": "uint256",
          "name": "previousRate",
          "type": "uint256"
        },
        {
          "indexed": false,
          "internalType": "uint256",
          "name": "newRate",
          "type": "uint256"
        }
      ],
      "name": "MaxTransferAmountRateUpdated",
      "type": "event"
    },
    {
      "anonymous": false,
      "inputs": [
        {
          "indexed": true,
          "internalType": "address",
          "name": "previousOwner",
          "type": "address"
        },
        {
          "indexed": true,
          "internalType": "address",
          "name": "newOwner",
          "type": "address"
        }
      ],
      "name": "OwnershipTransferred",
      "type": "event"
    },
    {
      "anonymous": false,
      "inputs": [
        {
          "indexed": true,
          "internalType": "address",
          "name": "from",
          "type": "address"
        },
        {
          "indexed": true,
          "internalType": "address",
          "name": "to",
          "type": "address"
        },
        {
          "indexed": false,
          "internalType": "uint256",
          "name": "value",
          "type": "uint256"
        }
      ],
      "name": "Transfer",
      "type": "event"
    },
    {
      "anonymous": false,
      "inputs": [
        {
          "indexed": true,
          "internalType": "address",
          "name": "to",
          "type": "address"
        },
        {
          "indexed": false,
          "internalType": "uint256",
          "name": "value",
          "type": "uint256"
        }
      ],
      "name": "Unlock",
      "type": "event"
    },
    {
      "inputs": [],
      "name": "DELEGATION_TYPEHASH",
      "outputs": [
        {
          "internalType": "bytes32",
          "name": "",
          "type": "bytes32"
        }
      ],
      "stateMutability": "view",
      "type": "function"
    },
    {
      "inputs": [],
      "name": "DOMAIN_TYPEHASH",
      "outputs": [
        {
          "internalType": "bytes32",
          "name": "",
          "type": "bytes32"
        }
      ],
      "stateMutability": "view",
      "type": "function"
    },
    {
      "inputs": [
        {
          "internalType": "address",
          "name": "_toAdd",
          "type": "address"
        }
      ],
      "name": "addAuthorized",
      "outputs": [],
      "stateMutability": "nonpayable",
      "type": "function"
    },
    {
      "inputs": [
        {
          "internalType": "address",
          "name": "owner",
          "type": "address"
        },
        {
          "internalType": "address",
          "name": "spender",
          "type": "address"
        }
      ],
      "name": "allowance",
      "outputs": [
        {
          "internalType": "uint256",
          "name": "",
          "type": "uint256"
        }
      ],
      "stateMutability": "view",
      "type": "function"
    },
    {
      "inputs": [
        {
          "internalType": "address",
          "name": "spender",
          "type": "address"
        },
        {
          "internalType": "uint256",
          "name": "amount",
          "type": "uint256"
        }
      ],
      "name": "approve",
      "outputs": [
        {
          "internalType": "bool",
          "name": "",
          "type": "bool"
        }
      ],
      "stateMutability": "nonpayable",
      "type": "function"
    },
    {
      "inputs": [
        {
          "internalType": "address",
          "name": "",
          "type": "address"
        }
      ],
      "name": "authorized",
      "outputs": [
        {
          "internalType": "bool",
          "name": "",
          "type": "bool"
        }
      ],
      "stateMutability": "view",
      "type": "function"
    },
    {
      "inputs": [
        {
          "internalType": "address",
          "name": "account",
          "type": "address"
        }
      ],
      "name": "balanceOf",
      "outputs": [
        {
          "internalType": "uint256",
          "name": "",
          "type": "uint256"
        }
      ],
      "stateMutability": "view",
      "type": "function"
    },
    {
      "inputs": [
        {
          "internalType": "address",
          "name": "",
          "type": "address"
        },
        {
          "internalType": "uint32",
          "name": "",
          "type": "uint32"
        }
      ],
      "name": "checkpoints",
      "outputs": [
        {
          "internalType": "uint32",
          "name": "fromBlock",
          "type": "uint32"
        },
        {
          "internalType": "uint256",
          "name": "votes",
          "type": "uint256"
        }
      ],
      "stateMutability": "view",
      "type": "function"
    },
    {
      "inputs": [],
      "name": "decimals",
      "outputs": [
        {
          "internalType": "uint8",
          "name": "",
          "type": "uint8"
        }
      ],
      "stateMutability": "view",
      "type": "function"
    },
    {
      "inputs": [
        {
          "internalType": "address",
          "name": "spender",
          "type": "address"
        },
        {
          "internalType": "uint256",
          "name": "subtractedValue",
          "type": "uint256"
        }
      ],
      "name": "decreaseAllowance",
      "outputs": [
        {
          "internalType": "bool",
          "name": "",
          "type": "bool"
        }
      ],
      "stateMutability": "nonpayable",
      "type": "function"
    },
    {
      "inputs": [
        {
          "internalType": "address",
          "name": "spender",
          "type": "address"
        },
        {
          "internalType": "uint256",
          "name": "addedValue",
          "type": "uint256"
        }
      ],
      "name": "increaseAllowance",
      "outputs": [
        {
          "internalType": "bool",
          "name": "",
          "type": "bool"
        }
      ],
      "stateMutability": "nonpayable",
      "type": "function"
    },
    {
      "inputs": [],
      "name": "lockFromBlock",
      "outputs": [
        {
          "internalType": "uint256",
          "name": "",
          "type": "uint256"
        }
      ],
      "stateMutability": "view",
      "type": "function"
    },
    {
      "inputs": [],
      "name": "lockToBlock",
      "outputs": [
        {
          "internalType": "uint256",
          "name": "",
          "type": "uint256"
        }
      ],
      "stateMutability": "view",
      "type": "function"
    },
    {
      "inputs": [],
      "name": "manualMintLimit",
      "outputs": [
        {
          "internalType": "uint256",
          "name": "",
          "type": "uint256"
        }
      ],
      "stateMutability": "view",
      "type": "function"
    },
    {
      "inputs": [],
      "name": "manualMinted",
      "outputs": [
        {
          "internalType": "uint256",
          "name": "",
          "type": "uint256"
        }
      ],
      "stateMutability": "view",
      "type": "function"
    },
    {
      "inputs": [],
      "name": "maxTransferAmountRate",
      "outputs": [
        {
          "internalType": "uint16",
          "name": "",
          "type": "uint16"
        }
      ],
      "stateMutability": "view",
      "type": "function"
    },
    {
      "inputs": [],
      "name": "miner",
      "outputs": [
        {
          "internalType": "address",
          "name": "",
          "type": "address"
        }
      ],
      "stateMutability": "view",
      "type": "function"
    },
    {
      "inputs": [],
      "name": "name",
      "outputs": [
        {
          "internalType": "string",
          "name": "",
          "type": "string"
        }
      ],
      "stateMutability": "view",
      "type": "function"
    },
    {
      "inputs": [
        {
          "internalType": "address",
          "name": "",
          "type": "address"
        }
      ],
      "name": "nonces",
      "outputs": [
        {
          "internalType": "uint256",
          "name": "",
          "type": "uint256"
        }
      ],
      "stateMutability": "view",
      "type": "function"
    },
    {
      "inputs": [
        {
          "internalType": "address",
          "name": "",
          "type": "address"
        }
      ],
      "name": "numCheckpoints",
      "outputs": [
        {
          "internalType": "uint32",
          "name": "",
          "type": "uint32"
        }
      ],
      "stateMutability": "view",
      "type": "function"
    },
    {
      "inputs": [],
      "name": "owner",
      "outputs": [
        {
          "internalType": "address",
          "name": "",
          "type": "address"
        }
      ],
      "stateMutability": "view",
      "type": "function"
    },
    {
      "inputs": [],
      "name": "profileAgeReq",
      "outputs": [
        {
          "internalType": "uint64",
          "name": "",
          "type": "uint64"
        }
      ],
      "stateMutability": "view",
      "type": "function"
    },
    {
      "inputs": [],
      "name": "profilesContract",
      "outputs": [
        {
          "internalType": "contract IProfiles",
          "name": "",
          "type": "address"
        }
      ],
      "stateMutability": "view",
      "type": "function"
    },
    {
      "inputs": [
        {
          "internalType": "address",
          "name": "_toRemove",
          "type": "address"
        }
      ],
      "name": "removeAuthorized",
      "outputs": [],
      "stateMutability": "nonpayable",
      "type": "function"
    },
    {
      "inputs": [],
      "name": "renounceOwnership",
      "outputs": [],
      "stateMutability": "nonpayable",
      "type": "function"
    },
    {
      "inputs": [],
      "name": "symbol",
      "outputs": [
        {
          "internalType": "string",
          "name": "",
          "type": "string"
        }
      ],
      "stateMutability": "view",
      "type": "function"
    },
    {
      "inputs": [],
      "name": "totalSupply",
      "outputs": [
        {
          "internalType": "uint256",
          "name": "",
          "type": "uint256"
        }
      ],
      "stateMutability": "view",
      "type": "function"
    },
    {
      "inputs": [
        {
          "internalType": "address",
          "name": "to",
          "type": "address"
        },
        {
          "internalType": "uint256",
          "name": "amount",
          "type": "uint256"
        }
      ],
      "name": "transfer",
      "outputs": [
        {
          "internalType": "bool",
          "name": "",
          "type": "bool"
        }
      ],
      "stateMutability": "nonpayable",
      "type": "function"
    },
    {
      "inputs": [
        {
          "internalType": "address",
          "name": "from",
          "type": "address"
        },
        {
          "internalType": "address",
          "name": "to",
          "type": "address"
        },
        {
          "internalType": "uint256",
          "name": "amount",
          "type": "uint256"
        }
      ],
      "name": "transferFrom",
      "outputs": [
        {
          "internalType": "bool",
          "name": "",
          "type": "bool"
        }
      ],
      "stateMutability": "nonpayable",
      "type": "function"
    },
    {
      "inputs": [
        {
          "internalType": "address",
          "name": "newOwner",
          "type": "address"
        }
      ],
      "name": "transferOwnership",
      "outputs": [],
      "stateMutability": "nonpayable",
      "type": "function"
    },
    {
      "inputs": [
        {
          "internalType": "string",
          "name": "_name",
          "type": "string"
        },
        {
          "internalType": "string",
          "name": "_symbol",
          "type": "string"
        },
        {
          "internalType": "uint256",
          "name": "cap_",
          "type": "uint256"
        },
        {
          "internalType": "uint256",
          "name": "_manualMintLimit",
          "type": "uint256"
        },
        {
          "internalType": "uint256",
          "name": "_lockFromBlock",
          "type": "uint256"
        },
        {
          "internalType": "uint256",
          "name": "_lockToBlock",
          "type": "uint256"
        }
      ],
      "name": "initialize",
      "outputs": [],
      "stateMutability": "nonpayable",
      "type": "function"
    },
    {
      "inputs": [],
      "name": "cap",
      "outputs": [
        {
          "internalType": "uint256",
          "name": "",
          "type": "uint256"
        }
      ],
      "stateMutability": "view",
      "type": "function"
    },
    {
      "inputs": [
        {
          "internalType": "uint256",
          "name": "_newCap",
          "type": "uint256"
        }
      ],
      "name": "capUpdate",
      "outputs": [],
      "stateMutability": "nonpayable",
      "type": "function"
    },
    {
      "inputs": [
        {
          "internalType": "address",
          "name": "_profilesAddress",
          "type": "address"
        }
      ],
      "name": "setProfiles",
      "outputs": [
        {
          "internalType": "bool",
          "name": "success",
          "type": "bool"
        }
      ],
      "stateMutability": "nonpayable",
      "type": "function"
    },
    {
      "inputs": [
        {
          "internalType": "uint64",
          "name": "_age",
          "type": "uint64"
        }
      ],
      "name": "setProfileAgeReq",
      "outputs": [
        {
          "internalType": "bool",
          "name": "success",
          "type": "bool"
        }
      ],
      "stateMutability": "nonpayable",
      "type": "function"
    },
    {
      "inputs": [
        {
          "internalType": "uint256",
          "name": "_newLockFrom",
          "type": "uint256"
        }
      ],
      "name": "lockFromUpdate",
      "outputs": [],
      "stateMutability": "nonpayable",
      "type": "function"
    },
    {
      "inputs": [
        {
          "internalType": "uint256",
          "name": "_newLockTo",
          "type": "uint256"
        }
      ],
      "name": "lockToUpdate",
      "outputs": [],
      "stateMutability": "nonpayable",
      "type": "function"
    },
    {
      "inputs": [],
      "name": "unlockedSupply",
      "outputs": [
        {
          "internalType": "uint256",
          "name": "",
          "type": "uint256"
        }
      ],
      "stateMutability": "view",
      "type": "function"
    },
    {
      "inputs": [],
      "name": "lockedSupply",
      "outputs": [
        {
          "internalType": "uint256",
          "name": "",
          "type": "uint256"
        }
      ],
      "stateMutability": "view",
      "type": "function"
    },
    {
      "inputs": [],
      "name": "circulatingSupply",
      "outputs": [
        {
          "internalType": "uint256",
          "name": "",
          "type": "uint256"
        }
      ],
      "stateMutability": "view",
      "type": "function"
    },
    {
      "inputs": [],
      "name": "totalLock",
      "outputs": [
        {
          "internalType": "uint256",
          "name": "",
          "type": "uint256"
        }
      ],
      "stateMutability": "view",
      "type": "function"
    },
    {
      "inputs": [
        {
          "internalType": "address",
          "name": "_to",
          "type": "address"
        },
        {
          "internalType": "uint256",
          "name": "_amount",
          "type": "uint256"
        }
      ],
      "name": "mint",
      "outputs": [],
      "stateMutability": "nonpayable",
      "type": "function"
    },
    {
      "inputs": [
        {
          "internalType": "address",
          "name": "_to",
          "type": "address"
        },
        {
          "internalType": "uint256",
          "name": "_amount",
          "type": "uint256"
        }
      ],
      "name": "manualMint",
      "outputs": [],
      "stateMutability": "nonpayable",
      "type": "function"
    },
    {
      "inputs": [
        {
          "internalType": "address",
          "name": "_holder",
          "type": "address"
        }
      ],
      "name": "totalBalanceOf",
      "outputs": [
        {
          "internalType": "uint256",
          "name": "",
          "type": "uint256"
        }
      ],
      "stateMutability": "view",
      "type": "function"
    },
    {
      "inputs": [
        {
          "internalType": "address",
          "name": "_holder",
          "type": "address"
        }
      ],
      "name": "lockOf",
      "outputs": [
        {
          "internalType": "uint256",
          "name": "",
          "type": "uint256"
        }
      ],
      "stateMutability": "view",
      "type": "function"
    },
    {
      "inputs": [
        {
          "internalType": "address",
          "name": "_holder",
          "type": "address"
        }
      ],
      "name": "lastUnlockBlock",
      "outputs": [
        {
          "internalType": "uint256",
          "name": "",
          "type": "uint256"
        }
      ],
      "stateMutability": "view",
      "type": "function"
    },
    {
      "inputs": [
        {
          "internalType": "address",
          "name": "_holder",
          "type": "address"
        },
        {
          "internalType": "uint256",
          "name": "_amount",
          "type": "uint256"
        }
      ],
      "name": "lock",
      "outputs": [],
      "stateMutability": "nonpayable",
      "type": "function"
    },
    {
      "inputs": [
        {
          "internalType": "address",
          "name": "_holder",
          "type": "address"
        }
      ],
      "name": "canUnlockAmount",
      "outputs": [
        {
          "internalType": "uint256",
          "name": "",
          "type": "uint256"
        }
      ],
      "stateMutability": "view",
      "type": "function"
    },
    {
      "inputs": [
        {
          "internalType": "address",
          "name": "account",
          "type": "address"
        },
        {
          "internalType": "uint256",
          "name": "amount",
          "type": "uint256"
        }
      ],
      "name": "unlockForUser",
      "outputs": [],
      "stateMutability": "nonpayable",
      "type": "function"
    },
    {
      "inputs": [],
      "name": "unlock",
      "outputs": [],
      "stateMutability": "nonpayable",
      "type": "function"
    },
    {
      "inputs": [
        {
          "internalType": "address",
          "name": "_to",
          "type": "address"
        }
      ],
      "name": "transferAll",
      "outputs": [],
      "stateMutability": "nonpayable",
      "type": "function"
    },
    {
      "inputs": [
        {
          "internalType": "address",
          "name": "delegator",
          "type": "address"
        }
      ],
      "name": "delegates",
      "outputs": [
        {
          "internalType": "address",
          "name": "",
          "type": "address"
        }
      ],
      "stateMutability": "view",
      "type": "function"
    },
    {
      "inputs": [
        {
          "internalType": "address",
          "name": "delegatee",
          "type": "address"
        }
      ],
      "name": "delegate",
      "outputs": [],
      "stateMutability": "nonpayable",
      "type": "function"
    },
    {
      "inputs": [
        {
          "internalType": "address",
          "name": "delegatee",
          "type": "address"
        },
        {
          "internalType": "uint256",
          "name": "nonce",
          "type": "uint256"
        },
        {
          "internalType": "uint256",
          "name": "expiry",
          "type": "uint256"
        },
        {
          "internalType": "uint8",
          "name": "v",
          "type": "uint8"
        },
        {
          "internalType": "bytes32",
          "name": "r",
          "type": "bytes32"
        },
        {
          "internalType": "bytes32",
          "name": "s",
          "type": "bytes32"
        }
      ],
      "name": "delegateBySig",
      "outputs": [],
      "stateMutability": "nonpayable",
      "type": "function"
    },
    {
      "inputs": [
        {
          "internalType": "address",
          "name": "account",
          "type": "address"
        }
      ],
      "name": "getCurrentVotes",
      "outputs": [
        {
          "internalType": "uint256",
          "name": "",
          "type": "uint256"
        }
      ],
      "stateMutability": "view",
      "type": "function"
    },
    {
      "inputs": [
        {
          "internalType": "address",
          "name": "account",
          "type": "address"
        },
        {
          "internalType": "uint256",
          "name": "blockNumber",
          "type": "uint256"
        }
      ],
      "name": "getPriorVotes",
      "outputs": [
        {
          "internalType": "uint256",
          "name": "",
          "type": "uint256"
        }
      ],
      "stateMutability": "view",
      "type": "function"
    },
    {
      "inputs": [
        {
          "internalType": "uint16",
          "name": "_maxTransferAmountRate",
          "type": "uint16"
        }
      ],
      "name": "updateMaxTransferAmountRate",
      "outputs": [],
      "stateMutability": "nonpayable",
      "type": "function"
    },
    {
      "inputs": [],
      "name": "maxTransferAmount",
      "outputs": [
        {
          "internalType": "uint256",
          "name": "",
          "type": "uint256"
        }
      ],
      "stateMutability": "view",
      "type": "function"
    },
    {
      "inputs": [
        {
          "internalType": "address",
          "name": "_account",
          "type": "address"
        },
        {
          "internalType": "bool",
          "name": "_excluded",
          "type": "bool"
        }
      ],
      "name": "setExcludedFromAntiWhale",
      "outputs": [],
      "stateMutability": "nonpayable",
      "type": "function"
    }
  ],
  "bytecode": "0x608060405234801561001057600080fd5b50613299806100206000396000f3fe608060405234801561001057600080fd5b50600436106102a95760003560e01c806306428f02146102ae57806306fdde03146102d7578063095ea7b3146102ec5780630cb285e21461030f5780630ea3a6911461032457806318160ddd146103375780631bc5283514610349578063202b17601461037b57806320606b701461038e57806323b872dd146103a3578063282d3fdf146103b6578063313ce567146103c9578063349dc329146103d8578063355274ea146103eb57806336c41a28146103f357806339509351146104065780633a1aae35146104195780633ff8bf2e1461042157806340346c491461044257806340c10f1914610455578063485d7d94146104685780634b0ee02a1461047b578063587cde1e1461048e5780635a46d3b5146104ba5780635c19a95c146104e357806366fc237b146104f65780636a141e2c146104ff5780636fcfff451461051257806370a082311461054d578063715018a614610560578063782d6fe1146105685780637ecebe001461057b57806389a2867c1461059b5780638da5cb5b146105c45780638e875e1a146105cc5780639358928b146105d557806395d89b41146105dd578063a3a7e7f3146105e5578063a457c2d7146105f8578063a69df4b51461060b578063a9059cbb14610613578063a9e7572314610626578063af2b0f661461062e578063b4b5ea5714610641578063b918161114610654578063c38533c614610677578063c3cda5201461068a578063c7f59a671461069d578063ca5c7b91146106b0578063cf1c316a146106b8578063dd62ed3e146106cb578063e4c5ff46146106de578063e6b2fb4a146106f1578063e7a324dc146106fa578063f1127ed81461070f578063f2fde38b14610766578063f85b84a414610779578063f96cbc1c14610782578063fd3d27b814610795575b600080fd5b609f546102c1906001600160a01b031681565b6040516102ce9190612ab4565b60405180910390f35b6102df61079d565b6040516102ce9190612af4565b6102ff6102fa366004612b3c565b61082f565b60405190151581526020016102ce565b61032261031d366004612b68565b610849565b005b610322610332366004612c44565b6108a0565b6035545b6040519081526020016102ce565b609f5461036390600160a01b90046001600160401b031681565b6040516001600160401b0390911681526020016102ce565b61033b610389366004612cca565b610a05565b61033b6000805160206131ac83398151915281565b6102ff6103b1366004612ce7565b610acc565b6103226103c4366004612b3c565b610af0565b604051601281526020016102ce565b609e546102c1906001600160a01b031681565b60985461033b565b6102ff610401366004612cca565b610cc1565b6102ff610414366004612b3c565b610de4565b60995461033b565b60a25461042f9061ffff1681565b60405161ffff90911681526020016102ce565b610322610450366004612b68565b610e23565b610322610463366004612b3c565b610e71565b610322610476366004612cca565b610ed3565b61033b610489366004612cca565b610f38565b6102c161049c366004612cca565b6001600160a01b03908116600090815260a460205260409020541690565b61033b6104c8366004612cca565b6001600160a01b0316600090815260a0602052604090205490565b6103226104f1366004612cca565b610f66565b61033b609a5481565b61032261050d366004612d28565b610f73565b610538610520366004612cca565b60a66020526000908152604090205463ffffffff1681565b60405163ffffffff90911681526020016102ce565b61033b61055b366004612cca565b611120565b61032261113b565b61033b610576366004612b3c565b611176565b61033b610589366004612cca565b60a76020526000908152604090205481565b61033b6105a9366004612cca565b6001600160a01b0316600090815260a1602052604090205490565b6102c16113e2565b61033b609b5481565b61033b6113f1565b6102df611401565b6103226105f3366004612cca565b611410565b6102ff610606366004612b3c565b6114ff565b610322611591565b6102ff610621366004612b3c565b6115a8565b61033b6115b6565b61032261063c366004612b3c565b6115e1565b61033b61064f366004612cca565b611656565b6102ff610662366004612cca565b60976020526000908152604090205460ff1681565b610322610685366004612b68565b6116cb565b610322610698366004612d5b565b611719565b6103226106ab366004612db7565b6119ab565b61033b611a1f565b6103226106c6366004612cca565b611a2a565b61033b6106d9366004612df5565b611a7d565b6103226106ec366004612b3c565b611aa8565b61033b609d5481565b61033b6000805160206131cc83398151915281565b61074a61071d366004612e23565b60a56020908152600092835260408084209091529082529020805460019091015463ffffffff9091169082565b6040805163ffffffff90931683526020830191909152016102ce565b610322610774366004612cca565b611ba1565b61033b609c5481565b6102ff610790366004612e6f565b611c3e565b61033b611cb5565b6060603680546107ac90612e8c565b80601f01602080910402602001604051908101604052809291908181526020018280546107d890612e8c565b80156108255780601f106107fa57610100808354040283529160200191610825565b820191906000526020600020905b81548152906001019060200180831161080857829003601f168201915b5050505050905090565b60003361083d818585611ccd565b60019150505b92915050565b3360009081526097602052604090205460ff168061087657503361086b6113e2565b6001600160a01b0316145b61089b5760405162461bcd60e51b815260040161089290612ec6565b60405180910390fd5b609b55565b600054610100900460ff166108bb5760005460ff16156108bf565b303b155b6109225760405162461bcd60e51b815260206004820152602e60248201527f496e697469616c697a61626c653a20636f6e747261637420697320616c72656160448201526d191e481a5b9a5d1a585b1a5e995960921b6064820152608401610892565b600054610100900460ff16158015610944576000805461ffff19166101011790555b6000609d819055609f8054600160a01b600160e01b031916905560a2805461ffff19166127101790556098869055609c859055609a849055609b83905533815260a36020526040808220805460ff1990811660019081179092557f69b4e8f94ad9e612080e13aad01219472d8c2c7ae7aa6cdf175400ddc8c4ed3d805482168317905530845291909220805490911690911790556109e28787611df1565b6109ea611e22565b80156109fc576000805461ff00191690555b50505050505050565b6000609a54431015610a1957506000919050565b609b544310610a3e57506001600160a01b0316600090815260a0602052604090205490565b6001600160a01b038216600090815260a16020526040812054610a619043612f0e565b6001600160a01b038416600090815260a16020526040812054609b549293509091610a8c9190612f0e565b6001600160a01b038516600090815260a060205260409020549091508190610ab5908490612f25565b610abf9190612f5a565b949350505050565b919050565b600033610ada858285611e51565b610ae5858585611ecb565b506001949350505050565b3360009081526097602052604090205460ff1680610b1d575033610b126113e2565b6001600160a01b0316145b610b395760405162461bcd60e51b815260040161089290612ec6565b6001600160a01b038216610b8f5760405162461bcd60e51b815260206004820152601f60248201527f43616e6e6f74206c6f636b20746f20746865207a65726f2061646472657373006044820152606401610892565b610b9882611120565b811115610be25760405162461bcd60e51b81526020600482015260186024820152774c6f636b20616d6f756e74206f7665722062616c616e636560401b6044820152606401610892565b610bed823083611ecb565b6001600160a01b038216600090815260a06020526040902054610c11908290612f6e565b6001600160a01b038316600090815260a06020526040902055609954610c38908290612f6e565b609955609a546001600160a01b038316600090815260a160205260409020541015610c7a57609a546001600160a01b038316600090815260a160205260409020555b816001600160a01b03167f625fed9875dada8643f2418b838ae0bc78d9a148a18eee4ee1979ff0f3f5d42782604051610cb591815260200190565b60405180910390a25050565b3360009081526097602052604081205460ff1680610cee575033610ce36113e2565b6001600160a01b0316145b610d0a5760405162461bcd60e51b815260040161089290612ec6565b600082905060006001600160a01b0316816001600160a01b031663b5708ccc6040518163ffffffff1660e01b8152600401602060405180830381865afa158015610d58573d6000803e3d6000fd5b505050506040513d601f19601f82011682018060405250810190610d7c9190612f86565b6001600160a01b031603610dbc5760405162461bcd60e51b81526020600482015260076024820152661a5b9d985b1a5960ca1b6044820152606401610892565b609f80546001600160a01b0319166001600160a01b0392909216919091179055506001919050565b3360008181526034602090815260408083206001600160a01b038716845290915281205490919061083d9082908690610e1e908790612f6e565b611ccd565b3360009081526097602052604090205460ff1680610e50575033610e456113e2565b6001600160a01b0316145b610e6c5760405162461bcd60e51b815260040161089290612ec6565b609855565b33610e7a6113e2565b6001600160a01b031614610ea05760405162461bcd60e51b815260040161089290612fa3565b610eaa8282612122565b6001600160a01b03808316600090815260a46020526040812054610ecf9216836121fb565b5050565b33610edc6113e2565b6001600160a01b031614610f025760405162461bcd60e51b815260040161089290612fa3565b336001600160a01b03821603610f1757600080fd5b6001600160a01b03166000908152609760205260409020805460ff19169055565b6000610f4382611120565b6001600160a01b038316600090815260a060205260409020546108439190612f6e565b610f70338261235a565b50565b3360009081526097602052604090205460ff1680610fa0575033610f956113e2565b6001600160a01b0316145b610fbc5760405162461bcd60e51b815260040161089290612ec6565b6127108161ffff1611156110465760405162461bcd60e51b8152602060048201526057602482015260008051602061322483398151915260448201527f207472616e7366657220616d6f756e742072617465206d757374206e6f7420656064820152763c31b2b2b2103a34329036b0bc34b6bab6903930ba329760491b608482015260a401610892565b60328161ffff1610156110c65760405162461bcd60e51b815260206004820152604e602482015260008051602061322483398151915260448201527f207472616e7366657220616d6f756e742072617465206d757374206265206d6f60648201526d3932903a3430b710181718181a9760911b608482015260a401610892565b60a2546040805161ffff928316815291831660208301527fff6316521befb2f41341a167cc0af9a05541f2b9d73de40cba35c37d34e87e6f910160405180910390a160a2805461ffff191661ffff92909216919091179055565b6001600160a01b031660009081526033602052604090205490565b336111446113e2565b6001600160a01b03161461116a5760405162461bcd60e51b815260040161089290612fa3565b61117460006123e9565b565b60004382106111db5760405162461bcd60e51b815260206004820152602b60248201527f45766f546f6b656e3a3a6765745072696f72566f7465733a206e6f742079657460448201526a0819195d195c9b5a5b995960aa1b6064820152608401610892565b6001600160a01b038316600090815260a6602052604081205463ffffffff169081900361120c576000915050610843565b6001600160a01b038416600090815260a5602052604081208491611231600185612fd8565b63ffffffff9081168252602082019290925260400160002054161161129a576001600160a01b038416600090815260a56020526040812090611274600184612fd8565b63ffffffff1663ffffffff16815260200190815260200160002060010154915050610843565b6001600160a01b038416600090815260a56020908152604080832083805290915290205463ffffffff168310156112d5576000915050610843565b6000806112e3600184612fd8565b90505b8163ffffffff168163ffffffff1611156113ab57600060026113088484612fd8565b6113129190612ffd565b61131c9083612fd8565b6001600160a01b038816600090815260a56020908152604080832063ffffffff808616855290835292819020815180830190925280549093168082526001909301549181019190915291925087900361137f576020015194506108439350505050565b805163ffffffff16871115611396578193506113a4565b6113a1600183612fd8565b92505b50506112e6565b506001600160a01b038516600090815260a56020908152604080832063ffffffff9094168352929052206001015491505092915050565b6065546001600160a01b031690565b60006113fc60355490565b905090565b6060603780546107ac90612e8c565b33600090815260a06020526040808220546001600160a01b038416835291205461143a9190612f6e565b6001600160a01b038216600090815260a06020908152604080832093909355609a5460a190915291902054101561148857609a546001600160a01b038216600090815260a160205260409020555b33600090815260a16020526040808220546001600160a01b038416835291205410156114cf5733600090815260a16020526040808220546001600160a01b03841683529120555b33600081815260a06020908152604080832083905560a1909152812055610f7090826114fa82611120565b611ecb565b3360008181526034602090815260408083206001600160a01b0387168452909152812054909190838110156115845760405162461bcd60e51b815260206004820152602560248201527f45524332303a2064656372656173656420616c6c6f77616e63652062656c6f77604482015264207a65726f60d81b6064820152608401610892565b610ae58286868403611ccd565b600061159c33610a05565b9050610f70338261243b565b60003361083d818585611ecb565b60a2546000906127109061ffff166115cd60355490565b6115d79190612f25565b6113fc9190612f5a565b3360009081526097602052604090205460ff168061160e5750336116036113e2565b6001600160a01b0316145b61162a5760405162461bcd60e51b815260040161089290612ec6565b600061163583610a05565b9050801561164757611647838261243b565b611651838361243b565b505050565b6001600160a01b038116600090815260a6602052604081205463ffffffff16806116815760006116c4565b6001600160a01b038316600090815260a560205260408120906116a5600184612fd8565b63ffffffff1663ffffffff168152602001908152602001600020600101545b9392505050565b3360009081526097602052604090205460ff16806116f85750336116ed6113e2565b6001600160a01b0316145b6117145760405162461bcd60e51b815260040161089290612ec6565b609a55565b60006000805160206131ac83398151915261173261079d565b805190602001206117404690565b60408051602080820195909552808201939093526060830191909152306080808401919091528151808403909101815260a0830182528051908401206000805160206131cc83398151915260c08401526001600160a01b038b1660e084015261010083018a90526101208084018a90528251808503909101815261014084019092528151919093012061190160f01b610160830152610162820183905261018282018190529192506000906101a20160408051601f198184030181528282528051602091820120600080855291840180845281905260ff8a169284019290925260608301889052608083018790529092509060019060a0016020604051602081039080840390855afa15801561185a573d6000803e3d6000fd5b5050604051601f1901519150506001600160a01b0381166118be5760405162461bcd60e51b815260206004820152602a602482015260008051602061318c833981519152604482015269207369676e617475726560b01b6064820152608401610892565b6001600160a01b038116600090815260a7602052604081208054916118e283613020565b9190505589146119315760405162461bcd60e51b8152602060048201526026602482015260008051602061318c833981519152604482015265206e6f6e636560d01b6064820152608401610892565b874211156119945760405162461bcd60e51b815260206004820152602a60248201527f45766f546f6b656e3a3a64656c656761746542795369673a207369676e6174756044820152691c9948195e1c1a5c995960b21b6064820152608401610892565b61199e818b61235a565b505050505b505050505050565b3360009081526097602052604090205460ff16806119d85750336119cd6113e2565b6001600160a01b0316145b6119f45760405162461bcd60e51b815260040161089290612ec6565b6001600160a01b0391909116600090815260a360205260409020805460ff1916911515919091179055565b60006113fc60995490565b33611a336113e2565b6001600160a01b031614611a595760405162461bcd60e51b815260040161089290612fa3565b6001600160a01b03166000908152609760205260409020805460ff19166001179055565b6001600160a01b03918216600090815260346020908152604080832093909416825291909152205490565b3360009081526097602052604090205460ff1680611ad5575033611aca6113e2565b6001600160a01b0316145b611af15760405162461bcd60e51b815260040161089290612ec6565b609c54609d5410611b5d5760405162461bcd60e51b815260206004820152603060248201527f45524332303a206d616e75616c4d696e7465642067726561746572207468616e60448201526f081b585b9d585b135a5b9d131a5b5a5d60821b6064820152608401610892565b611b678282612122565b6001600160a01b03808316600090815260a46020526040812054611b8c9216836121fb565b80609d54611b9a9190612f6e565b609d555050565b33611baa6113e2565b6001600160a01b031614611bd05760405162461bcd60e51b815260040161089290612fa3565b6001600160a01b038116611c355760405162461bcd60e51b815260206004820152602660248201527f4f776e61626c653a206e6577206f776e657220697320746865207a65726f206160448201526564647265737360d01b6064820152608401610892565b610f70816123e9565b3360009081526097602052604081205460ff1680611c6b575033611c606113e2565b6001600160a01b0316145b611c875760405162461bcd60e51b815260040161089290612ec6565b50609f80546001600160401b038316600160a01b02600160a01b600160e01b03199091161790556001919050565b6000609954611cc360355490565b6113fc9190612f0e565b6001600160a01b038316611d2f5760405162461bcd60e51b8152602060048201526024808201527f45524332303a20617070726f76652066726f6d20746865207a65726f206164646044820152637265737360e01b6064820152608401610892565b6001600160a01b038216611d905760405162461bcd60e51b815260206004820152602260248201527f45524332303a20617070726f766520746f20746865207a65726f206164647265604482015261737360f01b6064820152608401610892565b6001600160a01b0383811660008181526034602090815260408083209487168084529482529182902085905590518481527f8c5be1e5ebec7d5bd14f71427d1e84f3dd0314c0f7b2291e5b200ac8c7c3b925910160405180910390a3505050565b600054610100900460ff16611e185760405162461bcd60e51b815260040161089290613039565b610ecf8282612596565b600054610100900460ff16611e495760405162461bcd60e51b815260040161089290613039565b6111746125e4565b6000611e5d8484611a7d565b90506000198114611ec55781811015611eb85760405162461bcd60e51b815260206004820152601d60248201527f45524332303a20696e73756666696369656e7420616c6c6f77616e63650000006044820152606401610892565b611ec58484848403611ccd565b50505050565b8282826000611ed86115b6565b1115611f9d576001600160a01b038316600090815260a3602052604090205460ff16158015611f2057506001600160a01b038216600090815260a3602052604090205460ff16155b15611f9d57611f2d6115b6565b811115611f9d5760405162461bcd60e51b815260206004820152603860248201527f616e74695768616c653a205472616e7366657220616d6f756e74206578636565604482015277191cc81d1a19481b585e151c985b9cd9995c905b5bdd5b9d60421b6064820152608401610892565b609f5486908690600160a01b90046001600160401b0316156120db576001600160a01b038116600090815260a3602052604081205460ff16151590036120db57609f54604051631335a56760e21b81526000916001600160a01b031690634cd6959c9061200e908590600401612ab4565b600060405180830381865afa15801561202b573d6000803e3d6000fd5b505050506040513d6000823e601f3d908101601f19168201604052612053919081019061309a565b509195505050506001600160401b038316158015925090506120945750609f546001600160401b03600160a01b90910481169061209290831642612f0e565b115b6120d95760405162461bcd60e51b81526020600482015260166024820152750e0e4deccd2d8ca40dcdee840ded8c840cadcdeeaced60531b6044820152606401610892565b505b6120e6888888612614565b6001600160a01b03808916600090815260a46020526040808220548a84168352912054612118929182169116886121fb565b5050505050505050565b6001600160a01b0382166121785760405162461bcd60e51b815260206004820152601f60248201527f45524332303a206d696e7420746f20746865207a65726f2061646472657373006044820152606401610892565b612184600083836127db565b80603560008282546121969190612f6e565b90915550506001600160a01b038216600090815260336020526040812080548392906121c3908490612f6e565b90915550506040518181526001600160a01b038316906000906000805160206132448339815191529060200160405180910390a35050565b816001600160a01b0316836001600160a01b03161415801561221d5750600081115b15611651576001600160a01b038316156122c0576001600160a01b038316600090815260a6602052604081205463ffffffff16908161225d5760006122a0565b6001600160a01b038516600090815260a56020526040812090612281600185612fd8565b63ffffffff1663ffffffff168152602001908152602001600020600101545b905060006122ae8483612f0e565b90506122bc8684848461284a565b5050505b6001600160a01b03821615611651576001600160a01b038216600090815260a6602052604081205463ffffffff1690816122fb57600061233e565b6001600160a01b038416600090815260a5602052604081209061231f600185612fd8565b63ffffffff1663ffffffff168152602001908152602001600020600101545b9050600061234c8483612f6e565b90506119a38584848461284a565b6001600160a01b03808316600090815260a460205260408120549091169061238184611120565b6001600160a01b03858116600081815260a4602052604080822080546001600160a01b031916898616908117909155905194955093928616927f3134e8a2e6d97e929a7e54011ea5485d7d196dd5f0ba4d4ef95803e8e3fc257f9190a4611ec58284836121fb565b606580546001600160a01b038381166001600160a01b0319831681179093556040519116919082907f8be0079c531659141344cd1fd0a4f28419497f9722a3daafe3b4186f6b6457e090600090a35050565b6001600160a01b038216600090815260a0602052604090205461249d5760405162461bcd60e51b815260206004820152601a602482015279496e73756666696369656e74206c6f636b656420746f6b656e7360301b6044820152606401610892565b6001600160a01b038216600090815260a060205260409020548111156124d857506001600160a01b038116600090815260a060205260409020545b6124e130611120565b8111156124f4576124f130611120565b90505b6124ff308383611ecb565b6001600160a01b038216600090815260a06020526040902054612523908290612f0e565b6001600160a01b038316600090815260a0602090815260408083209390935560a1905220439055609954612558908290612f0e565b6099556040518181526001600160a01b038316907f6381d9813cabeb57471b5a7e05078e64845ccdb563146a6911d536f24ce960f190602001610cb5565b600054610100900460ff166125bd5760405162461bcd60e51b815260040161089290613039565b81516125d0906036906020850190612a1b565b508051611651906037906020840190612a1b565b600054610100900460ff1661260b5760405162461bcd60e51b815260040161089290613039565b611174336123e9565b6001600160a01b0383166126785760405162461bcd60e51b815260206004820152602560248201527f45524332303a207472616e736665722066726f6d20746865207a65726f206164604482015264647265737360d81b6064820152608401610892565b6001600160a01b0382166126da5760405162461bcd60e51b815260206004820152602360248201527f45524332303a207472616e7366657220746f20746865207a65726f206164647260448201526265737360e81b6064820152608401610892565b6126e58383836127db565b6001600160a01b0383166000908152603360205260409020548181101561275d5760405162461bcd60e51b815260206004820152602660248201527f45524332303a207472616e7366657220616d6f756e7420657863656564732062604482015265616c616e636560d01b6064820152608401610892565b6001600160a01b03808516600090815260336020526040808220858503905591851681529081208054849290612794908490612f6e565b92505081905550826001600160a01b0316846001600160a01b0316600080516020613244833981519152846040516127ce91815260200190565b60405180910390a3611ec5565b6001600160a01b03831661165157609854816127f660355490565b6128009190612f6e565b11156116515760405162461bcd60e51b8152602060048201526019602482015278115490cc8c10d85c1c19590e8818d85c08195e18d959591959603a1b6044820152606401610892565b600061286e436040518060600160405280603881526020016131ec603891396129ec565b905060008463ffffffff161180156128c857506001600160a01b038516600090815260a56020526040812063ffffffff8316916128ac600188612fd8565b63ffffffff908116825260208201929092526040016000205416145b15612911576001600160a01b038516600090815260a56020526040812083916128f2600188612fd8565b63ffffffff1681526020810191909152604001600020600101556129a1565b60408051808201825263ffffffff838116825260208083018681526001600160a01b038a16600090815260a583528581208a851682529092529390209151825463ffffffff191691161781559051600191820155612970908590613163565b6001600160a01b038616600090815260a660205260409020805463ffffffff191663ffffffff929092169190911790555b60408051848152602081018490526001600160a01b038716917fdec2bacdd2f05b59de34da9b523dff8be42e5e38e818c82fdb0bae774387a724910160405180910390a25050505050565b600081600160201b8410612a135760405162461bcd60e51b81526004016108929190612af4565b509192915050565b828054612a2790612e8c565b90600052602060002090601f016020900481019282612a495760008555612a8f565b82601f10612a6257805160ff1916838001178555612a8f565b82800160010185558215612a8f579182015b82811115612a8f578251825591602001919060010190612a74565b50612a9b929150612a9f565b5090565b5b80821115612a9b5760008155600101612aa0565b6001600160a01b0391909116815260200190565b60005b83811015612ae3578181015183820152602001612acb565b83811115611ec55750506000910152565b6020815260008251806020840152612b13816040850160208701612ac8565b601f01601f19169190910160400192915050565b6001600160a01b0381168114610f7057600080fd5b60008060408385031215612b4f57600080fd5b8235612b5a81612b27565b946020939093013593505050565b600060208284031215612b7a57600080fd5b5035919050565b634e487b7160e01b600052604160045260246000fd5b604051601f8201601f191681016001600160401b0381118282101715612bbf57612bbf612b81565b604052919050565b60006001600160401b03821115612be057612be0612b81565b50601f01601f191660200190565b600082601f830112612bff57600080fd5b8135612c12612c0d82612bc7565b612b97565b818152846020838601011115612c2757600080fd5b816020850160208301376000918101602001919091529392505050565b60008060008060008060c08789031215612c5d57600080fd5b86356001600160401b0380821115612c7457600080fd5b612c808a838b01612bee565b97506020890135915080821115612c9657600080fd5b50612ca389828a01612bee565b96999698505050506040850135946060810135946080820135945060a09091013592509050565b600060208284031215612cdc57600080fd5b81356116c481612b27565b600080600060608486031215612cfc57600080fd5b8335612d0781612b27565b92506020840135612d1781612b27565b929592945050506040919091013590565b600060208284031215612d3a57600080fd5b813561ffff811681146116c457600080fd5b60ff81168114610f7057600080fd5b60008060008060008060c08789031215612d7457600080fd5b8635612d7f81612b27565b955060208701359450604087013593506060870135612d9d81612d4c565b9598949750929560808101359460a0909101359350915050565b60008060408385031215612dca57600080fd5b8235612dd581612b27565b915060208301358015158114612dea57600080fd5b809150509250929050565b60008060408385031215612e0857600080fd5b8235612e1381612b27565b91506020830135612dea81612b27565b60008060408385031215612e3657600080fd5b8235612e4181612b27565b9150602083013563ffffffff81168114612dea57600080fd5b6001600160401b0381168114610f7057600080fd5b600060208284031215612e8157600080fd5b81356116c481612e5a565b600181811c90821680612ea057607f821691505b602082108103612ec057634e487b7160e01b600052602260045260246000fd5b50919050565b60208082526018908201527718d85b1b195c881a5cc81b9bdd08185d5d1a1bdc9a5e995960421b604082015260600190565b634e487b7160e01b600052601160045260246000fd5b600082821015612f2057612f20612ef8565b500390565b6000816000190483118215151615612f3f57612f3f612ef8565b500290565b634e487b7160e01b600052601260045260246000fd5b600082612f6957612f69612f44565b500490565b60008219821115612f8157612f81612ef8565b500190565b600060208284031215612f9857600080fd5b81516116c481612b27565b6020808252818101527f4f776e61626c653a2063616c6c6572206973206e6f7420746865206f776e6572604082015260600190565b600063ffffffff83811690831681811015612ff557612ff5612ef8565b039392505050565b600063ffffffff8084168061301457613014612f44565b92169190910492915050565b60006001820161303257613032612ef8565b5060010190565b6020808252602b908201527f496e697469616c697a61626c653a20636f6e7472616374206973206e6f74206960408201526a6e697469616c697a696e6760a81b606082015260800190565b8051610ac781612e5a565b8051610ac781612d4c565b600080600080600080600060e0888a0312156130b557600080fd5b8751965060208801516130c781612b27565b60408901519096506001600160401b038111156130e357600080fd5b8801601f81018a136130f457600080fd5b8051613102612c0d82612bc7565b8181528b602083850101111561311757600080fd5b613128826020830160208601612ac8565b965061313991505060608901613084565b93506131476080890161308f565b925060a0880151915060c0880151905092959891949750929550565b600063ffffffff80831681851680830382111561318257613182612ef8565b0194935050505056fe45766f546f6b656e3a3a64656c656761746542795369673a20696e76616c69648cad95687ba82c2ce50e74f7b754645e5117c3a5bec8151c0726d5857980a866e48329057bfd03d55e49b547132e39cffd9c1820ad7b9d4c5307691425d15adf45766f546f6b656e3a3a5f7772697465436865636b706f696e743a20626c6f636b206e756d626572206578636565647320333220626974737570646174654d61785472616e73666572416d6f756e74526174653a204d6178ddf252ad1be2c89b69c2b068fc378daa952ba7f163c4a11628f55a4df523b3efa2646970667358221220cf93a3f9939960efb683cb1c61e9319c1b2498df7e97c27b338fb13bc23c694164736f6c634300080d0033",
  "immutableReferences": {},
  "source": "// SPDX-License-Identifier: MIT\r\n\r\npragma solidity 0.8.13;\r\n\r\n//import \"@openzeppelin/contracts/token/ERC20/ERC20.sol\";\r\n//import \"@openzeppelin/contracts/access/Ownable.sol\";\r\n\r\nimport \"@openzeppelin/contracts-upgradeable/token/ERC20/ERC20Upgradeable.sol\";\r\nimport \"@openzeppelin/contracts-upgradeable/access/OwnableUpgradeable.sol\";\r\n\r\nimport \"./AuthorizableUpgradeable.sol\";\r\n\r\nimport \"./IProfiles.sol\";\r\n\r\n/**\r\n * @author EvoVerses\r\n * @title EvoToken\r\n */\r\ncontract EvoToken is\r\n    Initializable,\r\n    ERC20Upgradeable,\r\n    OwnableUpgradeable,\r\n    AuthorizableUpgradeable\r\n{\r\n    uint256 private _cap;\r\n    uint256 private _totalLock;\r\n    uint256 public lockFromBlock;\r\n    uint256 public lockToBlock;\r\n    uint256 public manualMintLimit;\r\n    uint256 public manualMinted;\r\n    address public miner;\r\n    IProfiles public profilesContract;\r\n    uint64 public profileAgeReq;\r\n\r\n    mapping(address => uint256) private _locks;\r\n    mapping(address => uint256) private _lastUnlockBlock;\r\n\r\n    // Max transfer amount rate in basis points. Default is 100% of total\r\n    // supply, and it can't be less than 0.5% of the supply.\r\n    uint16 public maxTransferAmountRate;\r\n\r\n    // Addresses that are excluded from anti-whale checking.\r\n    mapping(address => bool) private _excludedFromAntiWhale;\r\n\r\n    // Events.\r\n    event MaxTransferAmountRateUpdated(uint256 previousRate, uint256 newRate);\r\n    event Lock(address indexed to, uint256 value);\r\n    event Unlock(address indexed to, uint256 value);\r\n\r\n    // Modifiers.\r\n\r\n    /**\r\n     * @dev Ensures that the anti-whale rules are enforced.\r\n     */\r\n    modifier antiWhale(\r\n        address sender,\r\n        address recipient,\r\n        uint256 amount\r\n    ) {\r\n        if (maxTransferAmount() > 0) {\r\n            if (\r\n                _excludedFromAntiWhale[sender] == false &&\r\n                _excludedFromAntiWhale[recipient] == false\r\n            ) {\r\n                require(\r\n                    amount <= maxTransferAmount(),\r\n                    \"antiWhale: Transfer amount exceeds the maxTransferAmount\"\r\n                );\r\n            }\r\n        }\r\n        _;\r\n    }\r\n\r\n    /**\r\n     * @dev Ensures that the recipient has a profile.\r\n     */\r\n    modifier onlyProfile(address sender, address recipient) {\r\n        if (profileAgeReq > 0) {\r\n            if (_excludedFromAntiWhale[recipient] == false) {\r\n                // Get the profile of the recipient, and check the age.\r\n                uint64 _created = 0;\r\n                (, , , _created, , , ) = profilesContract.getProfileByAddress(\r\n                    recipient\r\n                );\r\n                require(\r\n                    _created > 0 &&\r\n                        ((block.timestamp - _created) > profileAgeReq),\r\n                    \"profile not old enough\"\r\n                );\r\n            }\r\n        }\r\n        _;\r\n    }\r\n\r\n    function initialize(\r\n        string memory _name,\r\n        string memory _symbol,\r\n        uint256 cap_,\r\n        uint256 _manualMintLimit,\r\n        uint256 _lockFromBlock,\r\n        uint256 _lockToBlock\r\n    ) public initializer {\r\n        manualMinted = 0;\r\n        profileAgeReq = 0;\r\n        maxTransferAmountRate = 10000;\r\n\r\n        _cap = cap_; // 600,000,000 ?\r\n        manualMintLimit = _manualMintLimit; // 7,178,746 + 20,429,254 + 2,000,000 + 2,000,000 + 30,000,000 + 25,000,000 + 17,000,000\r\n        lockFromBlock = _lockFromBlock;\r\n        lockToBlock = _lockToBlock;\r\n\r\n        _excludedFromAntiWhale[msg.sender] = true;\r\n        _excludedFromAntiWhale[address(0)] = true;\r\n        _excludedFromAntiWhale[address(this)] = true;\r\n\r\n        __ERC20_init(_name, _symbol);\r\n        __Ownable_init();\r\n    }\r\n\r\n    /**\r\n     * @dev Returns the cap on the token's total supply.\r\n     */\r\n    function cap() public view returns (uint256) {\r\n        return _cap;\r\n    }\r\n\r\n    /**\r\n     * @dev Updates the total cap.\r\n     */\r\n    function capUpdate(uint256 _newCap) public onlyAuthorized {\r\n        _cap = _newCap;\r\n    }\r\n\r\n    /// @dev Sets the profiles contract.\r\n    function setProfiles(address _profilesAddress)\r\n        public\r\n        onlyAuthorized\r\n        returns (bool success)\r\n    {\r\n        IProfiles candidateContract = IProfiles(_profilesAddress);\r\n\r\n        // Verify that it is an actual contract.\r\n        require(candidateContract.heroesNftContract() != address(0), \"invalid\");\r\n\r\n        // Set it.\r\n        profilesContract = candidateContract;\r\n        return true;\r\n    }\r\n\r\n    /// @dev Sets the profiles age requirement.\r\n    function setProfileAgeReq(uint64 _age)\r\n        public\r\n        onlyAuthorized\r\n        returns (bool success)\r\n    {\r\n        // Set it.\r\n        profileAgeReq = _age;\r\n        return true;\r\n    }\r\n\r\n    // Update the lockFromBlock\r\n    function lockFromUpdate(uint256 _newLockFrom) public onlyAuthorized {\r\n        lockFromBlock = _newLockFrom;\r\n    }\r\n\r\n    // Update the lockToBlock\r\n    function lockToUpdate(uint256 _newLockTo) public onlyAuthorized {\r\n        lockToBlock = _newLockTo;\r\n    }\r\n\r\n    function unlockedSupply() public view returns (uint256) {\r\n        return totalSupply() - _totalLock;\r\n    }\r\n\r\n    function lockedSupply() public view returns (uint256) {\r\n        return totalLock();\r\n    }\r\n\r\n    function circulatingSupply() public view returns (uint256) {\r\n        return totalSupply();\r\n    }\r\n\r\n    function totalLock() public view returns (uint256) {\r\n        return _totalLock;\r\n    }\r\n\r\n    /**\r\n     * @dev See {ERC20-_beforeTokenTransfer}.\r\n     *\r\n     * Requirements:\r\n     *\r\n     * - minted tokens must not cause the total supply to go over the cap.\r\n     */\r\n    function _beforeTokenTransfer(\r\n        address from,\r\n        address to,\r\n        uint256 amount\r\n    ) internal virtual override {\r\n        super._beforeTokenTransfer(from, to, amount);\r\n\r\n        if (from == address(0)) {\r\n            // When minting tokens\r\n            require(\r\n                totalSupply() + amount <= _cap,\r\n                \"ERC20Capped: cap exceeded\"\r\n            );\r\n        }\r\n    }\r\n\r\n    /**\r\n     * @dev Moves tokens `amount` from `sender` to `recipient`.\r\n     *\r\n     * This is internal function is equivalent to {transfer}, and can be used to\r\n     * e.g. implement automatic token fees, slashing mechanisms, etc.\r\n     *\r\n     * Emits a {Transfer} event.\r\n     *\r\n     * Requirements:\r\n     *\r\n     * - `sender` cannot be the zero address.\r\n     * - `recipient` cannot be the zero address.\r\n     * - `sender` must have a balance of at least `amount`.\r\n     */\r\n    function _transfer(\r\n        address sender,\r\n        address recipient,\r\n        uint256 amount\r\n    )\r\n        internal\r\n        virtual\r\n        override\r\n        antiWhale(sender, recipient, amount)\r\n        onlyProfile(sender, recipient)\r\n    {\r\n        super._transfer(sender, recipient, amount);\r\n        _moveDelegates(_delegates[sender], _delegates[recipient], amount);\r\n    }\r\n\r\n    /// @notice Creates `_amount` token to `_to`. Must only be called by the owner (MasterGardener).\r\n    function mint(address _to, uint256 _amount) public onlyOwner {\r\n        _mint(_to, _amount);\r\n        _moveDelegates(address(0), _delegates[_to], _amount);\r\n    }\r\n\r\n    function manualMint(address _to, uint256 _amount) public onlyAuthorized {\r\n        require(\r\n            manualMinted < manualMintLimit,\r\n            \"ERC20: manualMinted greater than manualMintLimit\"\r\n        );\r\n        _mint(_to, _amount);\r\n        _moveDelegates(address(0), _delegates[_to], _amount);\r\n        manualMinted = manualMinted + _amount;\r\n    }\r\n\r\n    function totalBalanceOf(address _holder) public view returns (uint256) {\r\n        return _locks[_holder] + balanceOf(_holder);\r\n    }\r\n\r\n    function lockOf(address _holder) public view returns (uint256) {\r\n        return _locks[_holder];\r\n    }\r\n\r\n    function lastUnlockBlock(address _holder) public view returns (uint256) {\r\n        return _lastUnlockBlock[_holder];\r\n    }\r\n\r\n    function lock(address _holder, uint256 _amount) public onlyAuthorized {\r\n        require(_holder != address(0), \"Cannot lock to the zero address\");\r\n        require(_amount <= balanceOf(_holder), \"Lock amount over balance\");\r\n\r\n        _transfer(_holder, address(this), _amount);\r\n\r\n        _locks[_holder] = _locks[_holder] + _amount;\r\n        _totalLock = _totalLock + _amount;\r\n        if (_lastUnlockBlock[_holder] < lockFromBlock) {\r\n            _lastUnlockBlock[_holder] = lockFromBlock;\r\n        }\r\n        emit Lock(_holder, _amount);\r\n    }\r\n\r\n    function canUnlockAmount(address _holder) public view returns (uint256) {\r\n        if (block.number < lockFromBlock) {\r\n            return 0;\r\n        } else if (block.number >= lockToBlock) {\r\n            return _locks[_holder];\r\n        } else {\r\n            uint256 releaseBlock = block.number - _lastUnlockBlock[_holder];\r\n            uint256 numberLockBlock = lockToBlock - _lastUnlockBlock[_holder];\r\n            return (_locks[_holder] * releaseBlock) / numberLockBlock;\r\n        }\r\n    }\r\n\r\n    // Unlocks some locked tokens immediately.\r\n    function unlockForUser(address account, uint256 amount)\r\n        public\r\n        onlyAuthorized\r\n    {\r\n        // First we need to unlock all tokens the address is eligible for.\r\n        uint256 pendingLocked = canUnlockAmount(account);\r\n        if (pendingLocked > 0) {\r\n            _unlock(account, pendingLocked);\r\n        }\r\n\r\n        // Now that that's done, we can unlock the extra amount passed in.\r\n        _unlock(account, amount);\r\n    }\r\n\r\n    function unlock() public {\r\n        uint256 amount = canUnlockAmount(msg.sender);\r\n        _unlock(msg.sender, amount);\r\n    }\r\n\r\n    function _unlock(address holder, uint256 amount) internal {\r\n        require(_locks[holder] > 0, \"Insufficient locked tokens\");\r\n\r\n        // Make sure they aren't trying to unlock more than they have locked.\r\n        if (amount > _locks[holder]) {\r\n            amount = _locks[holder];\r\n        }\r\n\r\n        // If the amount is greater than the total balance, set it to max.\r\n        if (amount > balanceOf(address(this))) {\r\n            amount = balanceOf(address(this));\r\n        }\r\n        _transfer(address(this), holder, amount);\r\n        _locks[holder] = _locks[holder] - amount;\r\n        _lastUnlockBlock[holder] = block.number;\r\n        _totalLock = _totalLock - amount;\r\n\r\n        emit Unlock(holder, amount);\r\n    }\r\n\r\n    // This function is for dev address migrate all balance to a multi sig address\r\n    function transferAll(address _to) public {\r\n        _locks[_to] = _locks[_to] + _locks[msg.sender];\r\n\r\n        if (_lastUnlockBlock[_to] < lockFromBlock) {\r\n            _lastUnlockBlock[_to] = lockFromBlock;\r\n        }\r\n\r\n        if (_lastUnlockBlock[_to] < _lastUnlockBlock[msg.sender]) {\r\n            _lastUnlockBlock[_to] = _lastUnlockBlock[msg.sender];\r\n        }\r\n\r\n        _locks[msg.sender] = 0;\r\n        _lastUnlockBlock[msg.sender] = 0;\r\n\r\n        _transfer(msg.sender, _to, balanceOf(msg.sender));\r\n    }\r\n\r\n    // Copied and modified from YAM code:\r\n    // https://github.com/yam-finance/yam-protocol/blob/master/contracts/token/YAMGovernanceStorage.sol\r\n    // https://github.com/yam-finance/yam-protocol/blob/master/contracts/token/YAMGovernance.sol\r\n    // Which is copied and modified from COMPOUND:\r\n    // https://github.com/compound-finance/compound-protocol/blob/master/contracts/Governance/Comp.sol\r\n\r\n    /// @dev A record of each accounts delegate\r\n    mapping(address => address) internal _delegates;\r\n\r\n    /// @notice A checkpoint for marking number of votes from a given block\r\n    struct Checkpoint {\r\n        uint32 fromBlock;\r\n        uint256 votes;\r\n    }\r\n\r\n    /// @notice A record of votes checkpoints for each account, by index\r\n    mapping(address => mapping(uint32 => Checkpoint)) public checkpoints;\r\n\r\n    /// @notice The number of checkpoints for each account\r\n    mapping(address => uint32) public numCheckpoints;\r\n\r\n    /// @notice The EIP-712 typehash for the contract's domain\r\n    bytes32 public constant DOMAIN_TYPEHASH =\r\n        keccak256(\r\n            \"EIP712Domain(string name,uint256 chainId,address verifyingContract)\"\r\n        );\r\n\r\n    /// @notice The EIP-712 typehash for the delegation struct used by the contract\r\n    bytes32 public constant DELEGATION_TYPEHASH =\r\n        keccak256(\"Delegation(address delegatee,uint256 nonce,uint256 expiry)\");\r\n\r\n    /// @notice A record of states for signing / validating signatures\r\n    mapping(address => uint256) public nonces;\r\n\r\n    /// @notice An event thats emitted when an account changes its delegate\r\n    event DelegateChanged(\r\n        address indexed delegator,\r\n        address indexed fromDelegate,\r\n        address indexed toDelegate\r\n    );\r\n\r\n    /// @notice An event thats emitted when a delegate account's vote balance changes\r\n    event DelegateVotesChanged(\r\n        address indexed delegate,\r\n        uint256 previousBalance,\r\n        uint256 newBalance\r\n    );\r\n\r\n    /**\r\n     * @notice Delegate votes from `msg.sender` to `delegatee`\r\n     * @param delegator The address to get delegatee for\r\n     */\r\n    function delegates(address delegator) external view returns (address) {\r\n        return _delegates[delegator];\r\n    }\r\n\r\n    /**\r\n     * @notice Delegate votes from `msg.sender` to `delegatee`\r\n     * @param delegatee The address to delegate votes to\r\n     */\r\n    function delegate(address delegatee) external {\r\n        return _delegate(msg.sender, delegatee);\r\n    }\r\n\r\n    /**\r\n     * @notice Delegates votes from signatory to `delegatee`\r\n     * @param delegatee The address to delegate votes to\r\n     * @param nonce The contract state required to match the signature\r\n     * @param expiry The time at which to expire the signature\r\n     * @param v The recovery byte of the signature\r\n     * @param r Half of the ECDSA signature pair\r\n     * @param s Half of the ECDSA signature pair\r\n     */\r\n    function delegateBySig(\r\n        address delegatee,\r\n        uint256 nonce,\r\n        uint256 expiry,\r\n        uint8 v,\r\n        bytes32 r,\r\n        bytes32 s\r\n    ) external {\r\n        bytes32 domainSeparator = keccak256(\r\n            abi.encode(\r\n                DOMAIN_TYPEHASH,\r\n                keccak256(bytes(name())),\r\n                getChainId(),\r\n                address(this)\r\n            )\r\n        );\r\n\r\n        bytes32 structHash = keccak256(\r\n            abi.encode(DELEGATION_TYPEHASH, delegatee, nonce, expiry)\r\n        );\r\n\r\n        bytes32 digest = keccak256(\r\n            abi.encodePacked(\"\\x19\\x01\", domainSeparator, structHash)\r\n        );\r\n\r\n        address signatory = ecrecover(digest, v, r, s);\r\n        require(\r\n            signatory != address(0),\r\n            \"EvoToken::delegateBySig: invalid signature\"\r\n        );\r\n        require(\r\n            nonce == nonces[signatory]++,\r\n            \"EvoToken::delegateBySig: invalid nonce\"\r\n        );\r\n        require(\r\n            block.timestamp <= expiry,\r\n            \"EvoToken::delegateBySig: signature expired\"\r\n        );\r\n        return _delegate(signatory, delegatee);\r\n    }\r\n\r\n    /**\r\n     * @notice Gets the current votes balance for `account`\r\n     * @param account The address to get votes balance\r\n     * @return The number of current votes for `account`\r\n     */\r\n    function getCurrentVotes(address account) external view returns (uint256) {\r\n        uint32 nCheckpoints = numCheckpoints[account];\r\n        return\r\n            nCheckpoints > 0 ? checkpoints[account][nCheckpoints - 1].votes : 0;\r\n    }\r\n\r\n    /**\r\n     * @notice Determine the prior number of votes for an account as of a block number\r\n     * @dev Block number must be a finalized block or else this function will revert to prevent misinformation.\r\n     * @param account The address of the account to check\r\n     * @param blockNumber The block number to get the vote balance at\r\n     * @return The number of votes the account had as of the given block\r\n     */\r\n    function getPriorVotes(address account, uint256 blockNumber)\r\n        external\r\n        view\r\n        returns (uint256)\r\n    {\r\n        require(\r\n            blockNumber < block.number,\r\n            \"EvoToken::getPriorVotes: not yet determined\"\r\n        );\r\n\r\n        uint32 nCheckpoints = numCheckpoints[account];\r\n        if (nCheckpoints == 0) {\r\n            return 0;\r\n        }\r\n\r\n        // First check most recent balance\r\n        if (checkpoints[account][nCheckpoints - 1].fromBlock <= blockNumber) {\r\n            return checkpoints[account][nCheckpoints - 1].votes;\r\n        }\r\n\r\n        // Next check implicit zero balance\r\n        if (checkpoints[account][0].fromBlock > blockNumber) {\r\n            return 0;\r\n        }\r\n\r\n        uint32 lower = 0;\r\n        uint32 upper = nCheckpoints - 1;\r\n        while (upper > lower) {\r\n            uint32 center = upper - (upper - lower) / 2; // ceil, avoiding overflow\r\n            Checkpoint memory cp = checkpoints[account][center];\r\n            if (cp.fromBlock == blockNumber) {\r\n                return cp.votes;\r\n            } else if (cp.fromBlock < blockNumber) {\r\n                lower = center;\r\n            } else {\r\n                upper = center - 1;\r\n            }\r\n        }\r\n        return checkpoints[account][lower].votes;\r\n    }\r\n\r\n    function _delegate(address delegator, address delegatee) internal {\r\n        address currentDelegate = _delegates[delegator];\r\n        uint256 delegatorBalance = balanceOf(delegator);\r\n        _delegates[delegator] = delegatee;\r\n\r\n        emit DelegateChanged(delegator, currentDelegate, delegatee);\r\n\r\n        _moveDelegates(currentDelegate, delegatee, delegatorBalance);\r\n    }\r\n\r\n    function _moveDelegates(\r\n        address srcRep,\r\n        address dstRep,\r\n        uint256 amount\r\n    ) internal {\r\n        if (srcRep != dstRep && amount > 0) {\r\n            if (srcRep != address(0)) {\r\n                // decrease old representative\r\n                uint32 srcRepNum = numCheckpoints[srcRep];\r\n                uint256 srcRepOld = srcRepNum > 0\r\n                    ? checkpoints[srcRep][srcRepNum - 1].votes\r\n                    : 0;\r\n                uint256 srcRepNew = srcRepOld - amount;\r\n                _writeCheckpoint(srcRep, srcRepNum, srcRepOld, srcRepNew);\r\n            }\r\n\r\n            if (dstRep != address(0)) {\r\n                // increase new representative\r\n                uint32 dstRepNum = numCheckpoints[dstRep];\r\n                uint256 dstRepOld = dstRepNum > 0\r\n                    ? checkpoints[dstRep][dstRepNum - 1].votes\r\n                    : 0;\r\n                uint256 dstRepNew = dstRepOld + amount;\r\n                _writeCheckpoint(dstRep, dstRepNum, dstRepOld, dstRepNew);\r\n            }\r\n        }\r\n    }\r\n\r\n    function _writeCheckpoint(\r\n        address delegatee,\r\n        uint32 nCheckpoints,\r\n        uint256 oldVotes,\r\n        uint256 newVotes\r\n    ) internal {\r\n        uint32 blockNumber = safe32(\r\n            block.number,\r\n            \"EvoToken::_writeCheckpoint: block number exceeds 32 bits\"\r\n        );\r\n\r\n        if (\r\n            nCheckpoints > 0 &&\r\n            checkpoints[delegatee][nCheckpoints - 1].fromBlock == blockNumber\r\n        ) {\r\n            checkpoints[delegatee][nCheckpoints - 1].votes = newVotes;\r\n        } else {\r\n            checkpoints[delegatee][nCheckpoints] = Checkpoint(\r\n                blockNumber,\r\n                newVotes\r\n            );\r\n            numCheckpoints[delegatee] = nCheckpoints + 1;\r\n        }\r\n\r\n        emit DelegateVotesChanged(delegatee, oldVotes, newVotes);\r\n    }\r\n\r\n    function safe32(uint256 n, string memory errorMessage)\r\n        internal\r\n        pure\r\n        returns (uint32)\r\n    {\r\n        require(n < 2**32, errorMessage);\r\n        return uint32(n);\r\n    }\r\n\r\n    function getChainId() internal view returns (uint256) {\r\n        // Since Solidity 0.8.0 we can use this instead of assembly: https://docs.soliditylang.org/en/v0.8.0/units-and-global-variables.html\r\n        return block.chainid;\r\n    }\r\n\r\n    /**\r\n     * @dev Update the max transfer amount rate.\r\n     */\r\n    function updateMaxTransferAmountRate(uint16 _maxTransferAmountRate)\r\n        public\r\n        onlyAuthorized\r\n    {\r\n        require(\r\n            _maxTransferAmountRate <= 10000,\r\n            \"updateMaxTransferAmountRate: Max transfer amount rate must not exceed the maximum rate.\"\r\n        );\r\n        require(\r\n            _maxTransferAmountRate >= 50,\r\n            \"updateMaxTransferAmountRate: Max transfer amount rate must be more than 0.005.\"\r\n        );\r\n        emit MaxTransferAmountRateUpdated(\r\n            maxTransferAmountRate,\r\n            _maxTransferAmountRate\r\n        );\r\n        maxTransferAmountRate = _maxTransferAmountRate;\r\n    }\r\n\r\n    /**\r\n     * @dev Calculates the max transfer amount.\r\n     */\r\n    function maxTransferAmount() public view returns (uint256) {\r\n        return (totalSupply() * maxTransferAmountRate) / 10000;\r\n    }\r\n\r\n    /**\r\n     * @dev Sets an address as excluded or not from the anti-whale checking.\r\n     */\r\n    function setExcludedFromAntiWhale(address _account, bool _excluded)\r\n        public\r\n        onlyAuthorized\r\n    {\r\n        _excludedFromAntiWhale[_account] = _excluded;\r\n    }\r\n}\r\n",
  "sourcePath": "D:\\Projects\\EvoVerses\\contracts\\contracts\\EvoToken.sol",
  "compiler": {
    "name": "solc",
    "version": "0.8.13+commit.abaa5c0e.Emscripten.clang"
  },
  "schemaVersion": "3.4.6",
  "updatedAt": "2022-04-05T16:58:12.751Z",
  "devdoc": {
    "author": "EvoVerses",
    "kind": "dev",
    "methods": {
      "allowance(address,address)": {
        "details": "See {IERC20-allowance}."
      },
      "approve(address,uint256)": {
        "details": "See {IERC20-approve}. NOTE: If `amount` is the maximum `uint256`, the allowance is not updated on `transferFrom`. This is semantically equivalent to an infinite approval. Requirements: - `spender` cannot be the zero address."
      },
      "balanceOf(address)": {
        "details": "See {IERC20-balanceOf}."
      },
      "cap()": {
        "details": "Returns the cap on the token's total supply."
      },
      "capUpdate(uint256)": {
        "details": "Updates the total cap."
      },
      "decimals()": {
        "details": "Returns the number of decimals used to get its user representation. For example, if `decimals` equals `2`, a balance of `505` tokens should be displayed to a user as `5.05` (`505 / 10 ** 2`). Tokens usually opt for a value of 18, imitating the relationship between Ether and Wei. This is the value {ERC20} uses, unless this function is overridden; NOTE: This information is only used for _display_ purposes: it in no way affects any of the arithmetic of the contract, including {IERC20-balanceOf} and {IERC20-transfer}."
      },
      "decreaseAllowance(address,uint256)": {
        "details": "Atomically decreases the allowance granted to `spender` by the caller. This is an alternative to {approve} that can be used as a mitigation for problems described in {IERC20-approve}. Emits an {Approval} event indicating the updated allowance. Requirements: - `spender` cannot be the zero address. - `spender` must have allowance for the caller of at least `subtractedValue`."
      },
      "delegate(address)": {
        "params": {
          "delegatee": "The address to delegate votes to"
        }
      },
      "delegateBySig(address,uint256,uint256,uint8,bytes32,bytes32)": {
        "params": {
          "delegatee": "The address to delegate votes to",
          "expiry": "The time at which to expire the signature",
          "nonce": "The contract state required to match the signature",
          "r": "Half of the ECDSA signature pair",
          "s": "Half of the ECDSA signature pair",
          "v": "The recovery byte of the signature"
        }
      },
      "delegates(address)": {
        "params": {
          "delegator": "The address to get delegatee for"
        }
      },
      "getCurrentVotes(address)": {
        "params": {
          "account": "The address to get votes balance"
        },
        "returns": {
          "_0": "The number of current votes for `account`"
        }
      },
      "getPriorVotes(address,uint256)": {
        "details": "Block number must be a finalized block or else this function will revert to prevent misinformation.",
        "params": {
          "account": "The address of the account to check",
          "blockNumber": "The block number to get the vote balance at"
        },
        "returns": {
          "_0": "The number of votes the account had as of the given block"
        }
      },
      "increaseAllowance(address,uint256)": {
        "details": "Atomically increases the allowance granted to `spender` by the caller. This is an alternative to {approve} that can be used as a mitigation for problems described in {IERC20-approve}. Emits an {Approval} event indicating the updated allowance. Requirements: - `spender` cannot be the zero address."
      },
      "maxTransferAmount()": {
        "details": "Calculates the max transfer amount."
      },
      "name()": {
        "details": "Returns the name of the token."
      },
      "owner()": {
        "details": "Returns the address of the current owner."
      },
      "renounceOwnership()": {
        "details": "Leaves the contract without owner. It will not be possible to call `onlyOwner` functions anymore. Can only be called by the current owner. NOTE: Renouncing ownership will leave the contract without an owner, thereby removing any functionality that is only available to the owner."
      },
      "setExcludedFromAntiWhale(address,bool)": {
        "details": "Sets an address as excluded or not from the anti-whale checking."
      },
      "setProfileAgeReq(uint64)": {
        "details": "Sets the profiles age requirement."
      },
      "setProfiles(address)": {
        "details": "Sets the profiles contract."
      },
      "symbol()": {
        "details": "Returns the symbol of the token, usually a shorter version of the name."
      },
      "totalSupply()": {
        "details": "See {IERC20-totalSupply}."
      },
      "transfer(address,uint256)": {
        "details": "See {IERC20-transfer}. Requirements: - `to` cannot be the zero address. - the caller must have a balance of at least `amount`."
      },
      "transferFrom(address,address,uint256)": {
        "details": "See {IERC20-transferFrom}. Emits an {Approval} event indicating the updated allowance. This is not required by the EIP. See the note at the beginning of {ERC20}. NOTE: Does not update the allowance if the current allowance is the maximum `uint256`. Requirements: - `from` and `to` cannot be the zero address. - `from` must have a balance of at least `amount`. - the caller must have allowance for ``from``'s tokens of at least `amount`."
      },
      "transferOwnership(address)": {
        "details": "Transfers ownership of the contract to a new account (`newOwner`). Can only be called by the current owner."
      },
      "updateMaxTransferAmountRate(uint16)": {
        "details": "Update the max transfer amount rate."
      }
    },
    "stateVariables": {
      "_delegates": {
        "details": "A record of each accounts delegate"
      }
    },
    "title": "EvoToken",
    "version": 1
  },
  "userdoc": {
    "events": {
      "DelegateChanged(address,address,address)": {
        "notice": "An event thats emitted when an account changes its delegate"
      },
      "DelegateVotesChanged(address,uint256,uint256)": {
        "notice": "An event thats emitted when a delegate account's vote balance changes"
      }
    },
    "kind": "user",
    "methods": {
      "DELEGATION_TYPEHASH()": {
        "notice": "The EIP-712 typehash for the delegation struct used by the contract"
      },
      "DOMAIN_TYPEHASH()": {
        "notice": "The EIP-712 typehash for the contract's domain"
      },
      "checkpoints(address,uint32)": {
        "notice": "A record of votes checkpoints for each account, by index"
      },
      "delegate(address)": {
        "notice": "Delegate votes from `msg.sender` to `delegatee`"
      },
      "delegateBySig(address,uint256,uint256,uint8,bytes32,bytes32)": {
        "notice": "Delegates votes from signatory to `delegatee`"
      },
      "delegates(address)": {
        "notice": "Delegate votes from `msg.sender` to `delegatee`"
      },
      "getCurrentVotes(address)": {
        "notice": "Gets the current votes balance for `account`"
      },
      "getPriorVotes(address,uint256)": {
        "notice": "Determine the prior number of votes for an account as of a block number"
      },
      "mint(address,uint256)": {
        "notice": "Creates `_amount` token to `_to`. Must only be called by the owner (MasterGardener)."
      },
      "nonces(address)": {
        "notice": "A record of states for signing / validating signatures"
      },
      "numCheckpoints(address)": {
        "notice": "The number of checkpoints for each account"
      }
    },
    "version": 1
  }
}